:1000000042C0D7C15BC05AC059C058C057C056C0C3
:1000100055C054C053C052C051C050C04FC04EC054
:100020004DC04CC04BC04AC049C048C047C046C084
:1000300045C044C0040309041C037700770077001F
:100040002E00660069007300630068006C002E00DB
:10005000640065000E035500530042006100730008
:10006000700012011001FF000008C016DC0502013B
:1000700001020001090212000101008019090400B7
:1000800000000000000011241FBECFEFD2E0DEBF51
:10009000CDBF11E0A0E0B1E0E2EBFEE002C00590D0
:1000A0000D92A230B107D9F711E0A2E0B1E001C092
:1000B0001D92A334B107E1F797D4FAC6A1CFE9E6C0
:1000C000F0E0808183608083E89A08950F931F9306
:1000D000CF93DF9360912701161604F5635080914A
:1000E0002401C7E3D1E0C81BD109809123018D32DF
:1000F00009F44DC08091020187FD4EC0CE018CD421
:100100008F3F09F485C0882309F05AC02FEF30E0F3
:100110003093020120930001109227018091010188
:1001200084FF29C0809100018F3F29F1682F893019
:1001300008F03DC0861B809300018091020180FF82
:1001400034C003EC8F5F8093020187FD69C0662392
:1001500009F455C088E191E01BD5682F7727162F49
:10016000693008F479C08FEF809300019EE100931D
:100170001701909301019AE083B1837009F0F7C0F1
:100180009150D1F71092280110922201F0C08AE517
:10019000809301016830B9F020E030E8309302012B
:1001A0002093000110922701B9CF0BE4CBCF68E078
:1001B000861B809300018091020180FFF6CFC1CFA2
:1001C00020E030E0EBCF8881807609F05CC020E24F
:1001D00031E0109220018981882309F05BC01092E0
:1001E0002101309326012093250122E030E88F8100
:1001F0008823A1F68E81821788F6282FCFCF60E062
:1002000088E191E0D2D094E08FEF80930001AFCFEE
:10021000809300018EE1809301012FEF30E078CFD1
:10022000209125013091260186FD1FC0462F4150A7
:100230004F3F61F0F901942FA8E1B1E081918D93D6
:100240009150E0F7240F311D2F5F3F4F309326016F
:1002500020932501772783CF88E191E0A6D0912FC5
:100260009C5F183008F083CFCFCF462F41504F3FCF
:1002700069F3F901942FA8E1B1E084918D9331964F
:100280009150D8F7DFCFCE01D5D4282F8F3FA9F0DA
:1002900030E8ADCF853059F08630A9F08830E9F0EC
:1002A000893021F18A3041F120E030E8A0CF8A8105
:1002B0008093280120E030E89ACF888187FF27CFFC
:1002C0002E8130E025CF8B818130E9F0823081F1C1
:1002D000833011F120E030EC8ACF8AE291E09093F4
:1002E00026018093250121E030E881CF8A81809327
:1002F0002A0120E030E87BCF3093260120932501AE
:1003000021E030E874CF82E690E09093260180935C
:10031000250122E130EC6BCF8A81882391F484E3BC
:1003200090E0909326018093250124E030EC5FCF8C
:1003300084E790E0909326018093250122E130EC40
:1003400056CF813059F0823029F684E590E09093C1
:100350002601809325012EE030EC49CF88E390E020
:1003600090932601809325012CE130EC40CFDF9162
:10037000CF911F910F910895A82FB92F8FEF9FEF65
:1003800041E050EA615070F02D9138E0722F7827EB
:1003900096958795269570FF02C0842795273A95F4
:1003A000A9F7F0CF809590950895E6DF8D939D9302
:1003B0000895CF93CFB7CF93189BFECF189B09C05A
:1003C000189B07C0189B05C0189B03C0189B01C051
:1003D0009EC0DF93C0912401DD27C55DDE4F189BD1
:1003E00002C0DF91EBCF2F930F931F9303B12FEF39
:1003F00000FB20F94F933F9313B14FEF012700FB10
:1004000021F93BE031C04E7F012F13B1216028C09C
:10041000102F4D7F2260000003B129C04B7F246064
:10042000012F000013B12BC013B1477F28602AC0F1
:100430004F7E03B120612CC04F7D13B120622FC0CD
:100440004F7B03B1206432C0422703B149934FEF81
:100450000000102710FB20F913B11370A9F1297FB8
:1004600091F2012700FB21F903B1237F89F231507A
:10047000F0F1102710FB22F913B1277E79F2012742
:1004800000FB23F92F7C81F203B1102710FB24F924
:100490002F7971F200C013B1012700FB25F92F73EA
:1004A00059F200C003B1102710FB26F9223040F2A8
:1004B00000C013B1012700FB27F9243028F64F773D
:1004C000206813B10000F9CF3B503195333011E073
:1004D0001CBBB8F0C31BD0400881033C41F10B3476
:1004E00031F11981412F1F7720912201121731F428
:1004F000093691F10D3279F0013E69F022272093FF
:1005000029013F914F911F910F912F91DF91CF9131
:10051000CFBFCF911895009329013F914F911F9123
:100520000F912F91DF91CCB3C0FD46CFF0CF00915A
:100530002901002331F310912701112349F53430AB
:100540004AF13093270100932301109124013BE0ED
:10055000311B309324011EC0009127010130C4F4E7
:100560000AE53091010134FD17C000930101C7E194
:10057000D1E016C0052710E005B91FC0052722C02D
:10058000052727C005272CC0052710E005B933C073
:100590004AE503C042ED01C0432FC4E1D0E032E0A0
:1005A00014B11360289A05B114B95F9353E020E8A1
:1005B00020FF052705B9279517951C3FD8F620FF82
:1005C0000527279505B917951C3FC0F620FF05277D
:1005D0002795179505B91C3F98F620FF0527279505
:1005E00017951C3F05B970F600C0499120FF0527FB
:1005F00005B9279517951C3F38F620FF0527279545
:1006000005B917951C3F38F520FF05272795179545
:1006100005B91C3F10F520FF0527279517951C3FAE
:1006200005B9E8F4242F3A9519F60C7F5F9105B9C6
:1006300000C010912801C651D04011F01093220142
:1006400011E01CBB016014B11C7F402F4C7F05B929
:1006500014B945B956CF0527D3CF0527D8CF0527DD
:10066000DDCF82E58CBD81E08DBD0895882339F40E
:1006700087E693E09093420180934101089584E8D6
:1006800093E09093420180934101089596B586B519
:10069000891B8C30E0F3089584B18C6284B92A9868
:1006A0002D98F4DF2A9AF2DF2A98809141019091E7
:1006B00042018458934009F00895D3DF089584B12E
:1006C000837D84B985B1837D85B91CBC0895FF9273
:1006D0000F931F93182FFF2400E00CC02B98FF0CE2
:1006E0001C99F3942D9AD2DF2D98D0DF0F5F08303C
:1006F00029F0110F17FFF2CF2B9AF1CF8F2D9927E9
:100700001F910F91FF9008958EBD0DB407FEFDCF90
:100710008EB5992708950F931F930FE103C00150E1
:100720000F3F51F1E0914101F09142018CEA0995AE
:10073000E0914101F091420183E50995E091410189
:10074000F091420180E00995182FE0914101F0916C
:10075000420180E00995133591F01CBC2D9A96DF7B
:100760002D9894DF809141019091420184589340EB
:10077000B1F677DF0150B0F681E090E002C080E092
:1007800090E01F910F910895EF92FF920F931F93A6
:100790007B018C01862F8170880F880F880FE09174
:1007A0004101F091420180620995D801C70129E019
:1007B000B695A795979587952A95D1F7E091410130
:1007C000F0914201099516950795F794E794E09109
:1007D0004101F09142018E2D0995E0914101F09186
:1007E000420180E0099599271F910F91FF90EF90AA
:1007F00008950F931F938C01E0914101F091420104
:1008000080EA0995812F9927E0914101F0914201F9
:100810000995E0914101F0914201802F0995E09105
:100820004101F091420180E0099599271F910F91B4
:100830000895FF920F931F938C01F62EE0914101D2
:10084000F091420180EC0995812F9927E0914101B7
:10085000F09142010995E0914101F0914201802F10
:100860000995E0914101F09142018F2D09958EE1AA
:10087000AED080E090E01F910F91FF900895CF924D
:10088000DF92EF92FF920F931F936B017C01142F65
:10089000E0914101F09142018CE40995D701C60134
:1008A00069E0B695A795979587956A95D1F7E091F8
:1008B0004101F09142010995D701C601B695A7956E
:1008C00097958795E0914101F09142010995E0915A
:1008D0004101F091420180E009951F3FA9F006B562
:1008E0001EE1C701B60150DF8F3F59F486B5801B6A
:1008F0008D3310F006B51150112399F781E090E087
:1009000007C080E090E004C08FE061D080E090E01C
:100910001F910F91FF90EF90DF90CF900895CF92AD
:10092000DF92EF92FF920F931F936B017C01042FD4
:10093000122F862F8170880F880F880FE091410158
:10094000F091420180640995D701C601E9E0B695AE
:10095000A79597958795EA95D1F7E0914101F09198
:1009600042010995D701C601B695A7959795879538
:10097000E0914101F09142010995E0914101F0912E
:100980004201802F09951123A1F00F37A9F006B578
:100990001EE1C701B601F8DE8F3759F486B5801B1A
:1009A0008D3310F006B51150112399F781E090E0D6
:1009B00007C080E090E004C08FE009D080E090E0C4
:1009C0001F910F91FF90EF90DF90CF900895382FF7
:1009D000882349F020E096B586B5891B8C33E0F377
:1009E0002F5F3217C1F708951BB815B88BEF8AB97E
:1009F0008FEF84B99EEF9150F1F78150E1F714B871
:100A000093E097B98EEF88B995BD81E02FDE57DB73
:100A100078945CDB5BDBFDCFBF92CF92DF92EF92ED
:100A2000FF920F931F93CF93DF937C01C62E80918B
:100A30000301813029F0843019F08FEF90E09EC0DF
:100A4000CC2009F499C0BB24DD2458C08091130147
:100A500090911401892B09F063C0CD2DDD27F7019A
:100A6000EC0FFD1F60910F01709110018091110139
:100A70009091120121E0408152DF80910401909118
:100A8000050101979093050180930401892BF1F4EE
:100A9000109203018091150181FF3FC080911601E2
:100AA0009927209113013091140182179307A9F11E
:100AB000CE0DDF1D60910F01709110018091110129
:100AC000909112014881DBDE91E0B92E80910F01F7
:100AD00090911001A0911101B09112010196A11DF8
:100AE000B11D80930F0190931001A0931101B09359
:100AF0001201D394CD14E9F180910301813009F4FE
:100B0000A5CFCD2DDD27F701EC0FFD1F6081809172
:100B10000F01909110018DDEB0CF81E0B82ED6CFBD
:100B2000CD2DDD2787010C0F1D1F60910F017091E6
:100B30001001809111019091120120E0F801408193
:100B4000EEDE80911601815080931601882309F012
:100B500094CF60910F0170911001809111019091DB
:100B60001201F80140818BDE809113018093160100
:100B700084CF8B2D992702C080E090E0DF91CF9148
:100B80001F910F91FF90EF90DF90CF90BF9008954D
:100B90000F931F93CF93DF93EC01062F90910301E6
:100BA000892F8250823018F08FEF90E03EC066238C
:100BB000C1F110E021C080910F019091100119DE68
:100BC000FE01E10FF11D808380910F0190911001D2
:100BD000A0911101B09112010196A11DB11D809348
:100BE0000F0190931001A0931101B09312011F5FA8
:100BF000011791F0909103019230E9F660910F0195
:100C0000709110018091110190911201BDDDFE01E2
:100C1000E10FF11D8083D8CF083018F0802F99277D
:100C200004C010920301802F9927DF91CF911F916B
:100C30000F910895CF93DF93EC018981813041F1C9
:100C4000823009F4B6C0833009F4B8C0843059F159
:100C5000873009F484C0853009F41BC1863009F45B
:100C60004FC0883009F4E5C0893079F481E0809381
:100C700006018A819B81AC81BD8180930F01909395
:100C80001001A0931101B093120120E030E006C1E1
:100C9000329933C080E0EADC109206014198FCDC16
:100CA00020E030E0FBC0809106018823A1F48B8115
:100CB0002A819927982F88273327822B932BAA27BD
:100CC00097FDA095BA2F80930F0190931001A093E8
:100CD0001101B09312018F812E819927982F8827B7
:100CE0003327822B932B909305018093040182E09C
:100CF000809303012FEF30E0D1C081E0B7DCCCCF8F
:100D000080910601882309F47FC02C819D819F700A
:100D1000909315018D81482F5527407F5070429543
:100D20005295507F5427407F5427420F511D5093B6
:100D300014014093130190FD64C08F812E81992787
:100D4000982F88273327822B932B9093050180932C
:100D5000040181E0809303012FEF30E09FC0809178
:100D600006018823A1F48B812A819927982F88274F
:100D70003327822B932BAA2797FDA095BA2F809318
:100D80000F0190931001A0931101B09312018F8174
:100D90002E819927982F88273327822B932B909386
:100DA00005018093040183E0809303012FEF30E07D
:100DB00075C085DC419A20E030E070C0E0914101CF
:100DC000F09142018A81099580930701E0914101E8
:100DD000F09142018B81099580930801E0914101D6
:100DE000F09142018C81099580930901E0914101C4
:100DF000F09142018D81099580930A0124E030E051
:100E00004DC04093160199CF8B812A819927982F45
:100E100088273327822B932BAA2797FDA095BA2FDB
:100E200080930F0190931001A0931101B0931201D0
:100E30006CCF809106018823A1F48B812A819927A8
:100E4000982F88273327822B932BAA2797FDA095CD
:100E5000BA2F80930F0190931001A0931101B093CA
:100E600012011092140110921301109215018F813A
:100E70002E819927982F88273327822B932B9093A5
:100E800005018093040184E0809303012FEF30E09B
:100E900005C041DC8093070121E030E087E091E06C
:100EA0009093260180932501C901DF91CF91089588
:020EB000FFCF72
:020EB200FF5AE5
:00000001FF
