:1000000042C095C15BC05AC059C058C057C056C005
:1000100055C054C053C052C051C050C04FC04EC054
:100020004DC04CC04BC04AC049C048C047C046C084
:1000300045C044C009021200010100A019090400D2
:1000400000000000000012011001FF000008C016AF
:10005000DC050701010200010E03550053004200B8
:100060006100730070001C037700770077002E009A
:10007000660069007300630068006C002E00640075
:1000800065000403090411241FBECFEFD4E0DEBFD6
:10009000CDBF11E0A0E0B1E0E0E9FFE002C00590D3
:1000A0000D92A230B107D9F721E0A2E0B1E001C082
:1000B0001D92A834B207E1F75DD768C7A1CFCF93EF
:1000C000DF9360912801635067FDA4C080912501F2
:1000D000CCE0D0E0C81BD109C45DDE4F8091240183
:1000E0008D3209F086C0683009F092C083EC8093AD
:1000F00017018AE58093010110922301888180769F
:1001000031F0CE01AAD48F3F09F462C068C08A8161
:10011000109220019981911106C01092210120E2D4
:1001200031E082E050C0953019F4809329013DC040
:100130009630A9F59B81913019F486E490E004C0D3
:10014000923041F484E390E090932701809326015C
:1001500082E121C09330F1F4811108C082E890E07F
:10016000909327018093260184E015C0813041F4EB
:1001700086E690E090932701809326018CE10BC0E6
:10018000823041F488E590E0909327018093260126
:100190008EE001C080E090E49093230120C098306D
:1001A00079F0993031F480932B0120E231E080E046
:1001B0000AC081E09A3009F080E020E231E003C01B
:1001C0002BE231E081E0309327012093260107C024
:1001D000988197FD8E8190E89093230107C09F81BD
:1001E000911104C09E81981708F4892F8093000113
:1001F0000FC08091230187FF0BC0CE01FAD58F3F3E
:1002000021F48EE18093010103C08111109200015D
:10021000109228018091010184FF55C08091000156
:100220008F3F09F450C0C82F893008F0C8E08C1BFC
:10023000809300019091170188E889278093170126
:10024000CC2309F44BC02091230127FF08C06C2F59
:1002500088E191E062D5C82F893078F523C080917C
:1002600026019091270126FF0AC0A8E1B1E0FC0118
:100270002C2F34913D9331962150D9F708C0DC01E1
:10028000E8E1F1E02C2F3D9131932150E1F72FEF80
:100290002C0F30E02F5F3F4F820F931F9093270169
:1002A000809326016C2F88E191E03DD0CC5FCC306B
:1002B00041F08FEF8093000104C08FEF8093000125
:1002C000CEE1C093010184E193B1937069F4815050
:1002D000D9F7109229011092220106C060E088E14E
:1002E00091E021D0C4E0E5CFDF91CF910895E9E618
:1002F000F0E0808183608083E89A0895A82FB92F69
:1003000080E090E041E050EA609530E009C02D9136
:1003100082279795879510F084279527305EC8F33C
:100320006F5FA8F30895EADF8D939D930895CF93AF
:10033000CFB7CF93C395189BE9F7189B09C0189BBB
:1003400007C0189B05C0189B03C0189B01C0A1C023
:10035000DF93C0912501DD27C45DDE4F189B02C0ED
:10036000DF91EBCF2F930F931F9303B12FEF00FB80
:1003700020F94F933F9313B14FEF012700FB21F971
:100380003BE031C04E7F012F13B1216028C0102FF8
:100390004D7F2260000003B129C04B7F2460012FF4
:1003A000000013B12BC013B1477F28602AC04F7ED5
:1003B00003B120612CC04F7D13B120622FC04F7B51
:1003C00003B1206432C0422703B149934FEF0000CC
:1003D000102710FB20F913B11370C9F1297F91F296
:1003E000012700FB21F903B1237F89F2315058F135
:1003F000102710FB22F913B1277E79F2012700FBA9
:1004000023F92F7C81F203B1102710FB24F92F79F7
:1004100071F200C013B1012700FB25F92F7359F2C7
:1004200000C003B1102710FB26F9223040F200C0B3
:1004300013B1012700FB27F9243028F64F772068F5
:1004400013B10000F9CF11E01CBB002717C03B50CF
:100450003195C31BD04011E01CBB0881033CE9F07F
:100460000B34D9F0209122011981110F1213EDCF15
:10047000093641F10D3211F0013E39F700932A019E
:100480003F914F911F910F912F91DF91CCB3C0FD00
:1004900051CFCF91CFBFCF91189520912A01222320
:1004A00079F310912801112311F5343012F13093B2
:1004B000280120932401109125013BE0311B30934A
:1004C000250117C00091280101308CF40AE5309114
:1004D000010134FD10C000930101C7E1D1E00FC05C
:1004E0002795A8F45150A9F4220F0000F9CF4AE54E
:1004F00003C042ED01C0432FC4E1D0E032E014B1AB
:100500001360289A14B905B120E413E05F93012722
:1005100056E005B9279520F4515021F4220FF9CF68
:10052000012756E000003B5A05B9D0F2279528F480
:10053000515029F4220F0000F9CF012756E02795EA
:1005400005B920F4515021F4220FF9CF012756E0CC
:100550002991332305B921F60C7F10912901110F40
:10056000C651D04005B911F01093220111E01CBB17
:10057000016014B11C7F402F4C7F5F9100C000C010
:1005800005B914B945B97CCF8EBD0DB407FEFDCFBA
:100590008EB50895DC01CB0121E1B695A79597951D
:1005A00087952A95D1F7209144012817D9F0809397
:1005B0004401E0914201F09143018DE40995E091FD
:1005C0004201F091430180E00995E0914201F091F0
:1005D0004301809144010995E0914201F09143016A
:1005E00080E009940895882319F0883020F101C033
:1005F0008CE024EC32E030934301209342011DBC97
:1006000091E0909345018A3081F028F4883081F0A0
:10061000893061F006C08B3031F08D3011F41CBC94
:10062000089581E08DBD81E004C09DBD82E001C0E0
:1006300083E08CBD089525E333E03093430120939C
:10064000420127E030E0281B310983E001C0880F18
:100650002A95EAF780934501089526B590914501C2
:1006600086B5821B8917E0F308951F93CF93DF931C
:10067000182FD8E0C0E017FF02C02B9A01C02B98BA
:10068000110FCC0F1C99CF5F2D9AE7DF2D98E5DF76
:10069000D15089F78C2FDF91CF911F910895259A22
:1006A000239A229A2C9A2A9A81E066D12A988FEF6F
:1006B00080934401089584B1837D84B92C982B984C
:1006C0001CBC1092020108950F931F93CF93DF93E8
:1006D0008091020181112EC08CE0809302012AC01A
:1006E000C0914201D091430182E0C43CD80719F483
:1006F0008CB580658CBD13E02A9A81E03DD12A98A3
:100700008EE33AD18CEAFE01099583E5FE01099555
:1007100080E0FE010995082F80E0FE010995033570
:1007200079F0115049F71CBC8091020181508093EF
:10073000020159DF809102018111D2CF81E001C015
:1007400080E0DF91CF911F910F910895CF92DF92BA
:10075000EF92FF926B017C011DDF8C2D8170880F61
:10076000880F880FE0914201F09143018062099562
:10077000D701C60129E0B695A795979587952A9543
:10078000D1F7E0914201F09143010995D701C601EB
:10079000B695A79597958795E0914201F091430111
:1007A0000995E0914201F091430180E0FF90EF90C4
:1007B000DF90CF900994CF92DF92EF92FF92CF9388
:1007C000DF936B017C01C42FD22FE4DE8C2D81706E
:1007D000880F880F880FE0914201F09143018064F7
:1007E0000995D701C60129E0B695A79597958795F4
:1007F0002A95D1F7E0914201F09143010995D70183
:10080000C601B695A79597958795E0914201F0911D
:1008100043010995E0914201F09143018C2F099524
:10082000DD2321F0CF3721F48FE0A6D080E00FC088
:10083000D6B5CEE1C701B60189DF8F37B9F786B5E6
:100840008D1B8D33B8F3D6B5C150A1F781E0DF9190
:10085000CF91FF90EF90DF90CF900895CF92DF92ED
:10086000EF92FF92CF93DF936B017C01C42F92DE56
:10087000E0914201F09143018CE40995D701C60152
:1008800029E0B695A795979587952A95D1F7E09198
:100890004201F09143010995D701C601B695A7958C
:1008A00097958795E0914201F09143010995E09178
:1008B0004201F091430180E00995CF3F19F48FE0A8
:1008C0005BD010C0D6B5CEE1C701B6013FDF8F3F88
:1008D00049F486B58D1B8D33B8F3D6B5C150A1F759
:1008E00081E001C080E0DF91CF91FF90EF90DF9039
:1008F000CF900895CF93DF93EC01E0914201F09106
:10090000430180EA0995E0914201F09143018D2F66
:100910000995E0914201F09143018C2F0995E091F6
:100920004201F091430180E0DF91CF9109941F9340
:10093000CF93DF93D82F192FC62FE0914201F0916A
:10094000430180EC0995E0914201F0914301812F30
:100950000995E0914201F09143018D2F0995E091B5
:100960004201F09143018C2F09958EE105D080E082
:10097000DF91CF911F91089526B596B5921B9C33B8
:10098000E0F38150C9F70895259A23982B9A50E2F5
:1009900017D05A95E9F70895AC0188E605D0842F61
:1009A00003D089E601D0852F0FD028E030E038272A
:1009B00080FB869506D02A95D1F730FB02D000D077
:1009C000689423982B9A16F02B98239AE09146016D
:1009D000F09147013197F0F72D9AE3B1E3FBE091F5
:1009E0004601F09147013197F0F72D98089520ECDA
:1009F000E7DF46F42A95E1F780E02AE1E5DF2A9572
:100A0000E9F7DECF28E030E0DBDF869587F938278D
:100A10002A95D1F7D5DF27F9322772F3D1DFD0CF6E
:100A2000DB01742FB9DF84E2BFDFE1DF8D937A95BC
:100A3000D1F70895DB01742FAFDF83EFB5DF8DE1D0
:100A4000B3DF84E6B1DF8D91AFDF82E7ADDFCFDFCB
:100A50008078D9F77A9589F70895CF93DF93EC01E1
:100A60008981813061F4329902C085E002C08091B1
:100A70000201B9DD10920D01399A11DE44C18230B4
:100A800011F419DEF2C0833009F5E0914201F091D2
:100A900043018A81099580930F01E0914201F09111
:100AA00043018B81099580931001E0914201F091FF
:100AB00043018C81099580931101E0914201F091ED
:100AC00043018D810995809312011BC18430D1F4BB
:100AD00080910D0181110EC08A819B81092E000C2D
:100AE000AA0BBB0B8093090190930A01A0930B0101
:100AF000B0930C018E819F81909308018093070130
:100B000082E0F0C08730D1F480910D0181110EC0D8
:100B10008A819B81092E000CAA0BBB0B80930901D3
:100B200090930A01A0930B01B0930C018E819F81D9
:100B3000909308018093070183E0D4C0853011F4BD
:100B4000C3DD98C0863079F580910D0181110EC00A
:100B50008A819B81092E000CAA0BBB0B8093090193
:100B600090930A01A0930B01B0930C013C812D815D
:100B7000822F8F7080930401822F807F40E1849FB9
:100B8000C0011124830F911D9093060180930501EC
:100B900020FD809303018E819F81909308018093B3
:100BA000070181E09FC0883001F580910D0181111E
:100BB0000EC08A819B81092E000CAA0BBB0B80936F
:100BC000090190930A01A0930B01B0930C011092BC
:100BD000060110920501109204018E819F8190936D
:100BE00008018093070184E07DC0893081F481E0B1
:100BF00080930D018A819B81AC81BD818093090125
:100C000090930A01A0930B01B0930C017CC08A3031
:100C100031F48A818093020110920F012DC08B3034
:100C200081F48A819B8190934701809346012A9A9F
:100C3000229A83E0A1DE2A98399A80E19DDEA4DE23
:100C400062C08C30A1F480ECAFDE80E0ADDE8AE0E3
:100C500093DE2A9A85E090DE2A9885E08DDE84B1C5
:100C6000837D84B985B1837D85B939984CC08D3039
:100C700029F4BDDE80930F0181E046C08E3019F467
:100C80008A8192DE40C08F30B1F48A819B81092E27
:100C9000000CAA0BBB0B8093090190930A01A0934F
:100CA0000B01B0930C018E819F819093080180937A
:100CB000070185E017C08031C9F48A819B81092E24
:100CC000000CAA0BBB0B8093090190930A01A0931F
:100CD0000B01B0930C018E819F819093080180934A
:100CE000070186E080930E018FEF0EC08F3759F415
:100CF00081E080930F011092100110921101109267
:100D0000120184E001C080E02FE031E03093270140
:100D100020932601DF91CF910895EF92FF920F93D8
:100D20001F93CF93C62F20910E013EEF320F32302A
:100D300028F48C017C01E60EF11C43C0253009F03B
:100D40004FC0462FBC018091090190910A0168DED5
:100D50008091090190910A01A0910B01B0910C01C1
:100D60008C0F911DA11DB11D8093090190930A0163
:100D7000A0930B01B0930C0135C080910E0182301D
:100D800021F56091090170910A0180910B01909108
:100D90000C01DCDCF80180838091090190910A014B
:100DA000A0910B01B0910C010196A11DB11D809382
:100DB000090190930A01A0930B01B0930C010F5FFE
:100DC0001F4F0E151F05C9F606C0809109019091AD
:100DD0000A0190DDDFCFC83028F410920E0102C066
:100DE0008FEF01C08C2FCF911F910F91FF90EF904B
:100DF0000895EF92FF921F93CF93DF93162F2091C8
:100E00000E01213031F4EC017C01E10EF11C10E007
:100E100066C02430C1F3263009F0A3C0462FBC01C0
:100E20008091090190910A0105DE8091090190915C
:100E30000A01A0910B01B0910C01810F911DA11D20
:100E4000B11D8093090190930A01A0930B01B09307
:100E50000C018091070190910801811B91099093E9
:100E6000080180930701892B09F07DC010920E01C3
:100E700081E07AC080910E01813009F04DC020914F
:100E80000501309106016091090170910A0180917C
:100E90000B0190910C01232B31F521E048818BDC73
:100EA0008091070190910801019790930801809328
:100EB0000701892BC1F18091090190910A01A0914C
:100EC0000B01B0910C010196A11DB11D8093090188
:100ED00090930A01A0930B01B0930C012196CE15BB
:100EE000DF0541F63CC020E0488165DC80910301CC
:100EF0008150809303018111D3CF609109017091DA
:100F00000A0180910B0190910C014881A7DC80912E
:100F1000050180930301C4CF6881809109019091FC
:100F20000A0105DDBDCF10920E018091040181FF01
:100F300014C08091030190E02091050130910601D9
:100F40008217930751F06091090170910A01809115
:100F50000B0190910C01488181DC11E0ACCF812F15
:100F600003C08FEF01C080E0DF91CF911F91FF9010
:100F7000EF90089583E085BD8FEF84B98FE1FCDCAD
:100F800014B8389AB4D978949AD8FECFF894FFCF91
:020F9000FF5A06
:00000001FF
