:100000005BC0ADC169C068C067C066C065C064C080
:1000100063C062C061C060C05FC05EC05DC05CC0E4
:100020005BC05AC059C058C057C056C055C054C014
:1000300053C052C009021200010100A019090400B6
:100040000000000000000E03550053004200610054
:100050007300700014036600690073006300680099
:100060006C002E00640065000403090412034D00B7
:100070005300460054003100300030005D0028007D
:100080000000000104000100000000000000000169
:1000900057494E5553420000000000000000000088
:1000A00000000000000012010002FF000008C0165E
:1000B000DC0508010102030111241FBECFEFD4E0CB
:1000C000DEBFCDBF21E0A0E0B1E001C01D92A834A9
:1000D000B207E1F77AD785C793CFCF93DF936091CB
:1000E0002801635067FDA8C080912401CCE0D0E0D6
:1000F000C81BD109C45DDE4F809123018D3209F008
:100100008AC0683009F096C083EC809316018AE5B6
:1001100080932501109222018881807619F0CE010A
:10012000C5D466C08A8110921F019981911106C0C1
:10013000109220012FE131E082E055C0953019F492
:100140008093290142C09630D1F59B81913019F4FA
:1001500086EA90E004C0923041F484E390E090930A
:1001600027018093260182E126C0933001F5811199
:1001700008C088E690E0909327018093260184E0F0
:100180001AC0813041F484E590E090932701809378
:10019000260184E110C0823041F486E490E090931F
:1001A0002701809326018EE006C0833019F0CE012E
:1001B0006CD401C080E090E49093220119C0983083
:1001C00079F0993031F480932B012FE131E080E018
:1001D0000AC081E09A3009F080E02FE131E003C0ED
:1001E0002BE231E081E0309327012093260109C002
:1001F0008F3F39F4988197FD8E8190E8909322018A
:1002000007C09F81911104C09E81981708F4892F1F
:10021000809300010FC08091220187FF0BC0CE01A7
:1002200013D68F3F21F48EE18093250103C0811105
:1002300010920001109228018091250184FF55C081
:10024000809100018F3F09F450C0C82F893008F019
:10025000C8E08C1B809300019091160188E88927E3
:1002600080931601CC2309F44BC02091220127FF73
:1002700008C06C2F87E191E07BD5C82F893078F5D5
:1002800023C0809126019091270126FF0AC0A7E193
:10029000B1E0FC012C2F34913D9331962150D9F7D8
:1002A00008C0DC01E7E1F1E02C2F3D9131932150B2
:1002B000E1F72FEF2C0F30E02F5F3F4F820F931F9E
:1002C00090932701809326016C2F87E191E043D022
:1002D000CC5FCC3041F08FEF8093000104C08FEFF2
:1002E00080930001CEE1C093250184E193B1937026
:1002F00069F48150D9F7109229011092210106C0AA
:1003000060E087E191E027D0C4E0E5CFDF91CF91B5
:1003100008958AE5809325018FEF80930001E9E637
:10032000F0E0808182608083E89A0895A82FB92F39
:1003300080E090E041E050EA609530E009C02D9106
:1003400082279795879510F084279527305EC8F30C
:100350006F5FA8F30895EADF8D939D930895CF937F
:10036000CFB7CF93C395189BE9F7189B09C0189B8B
:1003700007C0189B05C0189B03C0189B01C0A1C0F3
:10038000DF93C0912401DD27C45DDE4F189B02C0BE
:10039000DF91EBCF2F930F931F9303B12FEF00FB50
:1003A00020F94F933F9313B14FEF012700FB21F941
:1003B0003BE031C04E7F012F13B1216028C0102FC8
:1003C0004D7F2260000003B129C04B7F2460012FC4
:1003D000000013B12BC013B1477F28602AC04F7EA5
:1003E00003B120612CC04F7D13B120622FC04F7B21
:1003F00003B1206432C0422703B149934FEF00009C
:10040000102710FB20F913B11370C9F1297F91F265
:10041000012700FB21F903B1237F89F2315058F104
:10042000102710FB22F913B1277E79F2012700FB78
:1004300023F92F7C81F203B1102710FB24F92F79C7
:1004400071F200C013B1012700FB25F92F7359F297
:1004500000C003B1102710FB26F9223040F200C083
:1004600013B1012700FB27F9243028F64F772068C5
:1004700013B10000F9CF11E01CBB002717C03B509F
:100480003195C31BD04011E01CBB0881033CE9F04F
:100490000B34D9F0209121011981110F1213EDCFE6
:1004A000093641F10D3211F0013E39F700932A016E
:1004B0003F914F911F910F912F91DF91CCB3C0FDD0
:1004C00051CFCF91CFBFCF91189520912A012223F0
:1004D00079F310912801112311F5343012F1309382
:1004E000280120932301109124013BE0311B30931C
:1004F000240117C00091280101308CF40AE53091E5
:10050000250134FD10C000932501C6E1D1E00FC0E4
:100510002795A8F45150A9F4220F0000F9CF4AE51D
:1005200003C042ED01C0432FC4E1D0E032E014B17A
:100530001360289A14B905B120E413E05F930127F2
:1005400056E005B9279520F4515021F4220FF9CF38
:10055000012756E000003B5A05B9D0F2279528F450
:10056000515029F4220F0000F9CF012756E02795BA
:1005700005B920F4515021F4220FF9CF012756E09C
:100580002991332305B921F60C7F10912901110F10
:10059000C651D04005B911F01093210111E01CBBE8
:1005A000016014B11C7F402F4C7F5F9100C000C0E0
:1005B00005B914B945B97CCF8EBD0DB407FEFDCF8A
:1005C0008EB50895DC01CB0121E1B695A7959795ED
:1005D00087952A95D1F7209144012817D9F0809367
:1005E0004401E0914201F09143018DE40995E091CD
:1005F0004201F091430180E00995E0914201F091C0
:100600004301809144010995E0914201F091430139
:1006100080E009940895882319F0883020F101C002
:100620008CE02CED32E030934301209342011DBC5D
:1006300091E0909345018A3081F028F4883081F070
:10064000893061F006C08B3031F08D3011F41CBC64
:10065000089581E08DBD81E004C09DBD82E001C0B0
:1006600083E08CBD08952DE433E030934301209363
:10067000420127E030E0281B310983E001C0880FE8
:100680002A95EAF780934501089526B59091450192
:1006900086B5821B8917E0F308951F93CF93DF93EC
:1006A000182FD8E0C0E017FF02C02B9A01C02B988A
:1006B000110FCC0F1C99CF5F2D9AE7DF2D98E5DF46
:1006C000D15089F78C2FDF91CF911F910895259AF2
:1006D000239A229A2C9A2A9A81E066D12A988FEF3F
:1006E00080934401089584B1837D84B92C982B981C
:1006F0001CBC1092010108950F931F93CF93DF93B9
:100700008091010181112EC08CE0809301012AC0EB
:10071000C0914201D091430182E0CC3DD80719F449
:100720008CB580658CBD13E02A9A81E03DD12A9872
:100730008EE33AD18CEAFE01099583E5FE01099525
:1007400080E0FE010995082F80E0FE010995033540
:1007500079F0115049F71CBC8091010181508093C0
:10076000010159DF809101018111D2CF81E001C0E7
:1007700080E0DF91CF911F910F910895CF92DF928A
:10078000EF92FF926B017C011DDF8C2D8170880F31
:10079000880F880FE0914201F09143018062099532
:1007A000D701C60129E0B695A795979587952A9513
:1007B000D1F7E0914201F09143010995D701C601BB
:1007C000B695A79597958795E0914201F0914301E1
:1007D0000995E0914201F091430180E0FF90EF9094
:1007E000DF90CF900994CF92DF92EF92FF92CF9358
:1007F000DF936B017C01C42FD22FE4DE8C2D81703E
:10080000880F880F880FE0914201F09143018064C6
:100810000995D701C60129E0B695A79597958795C3
:100820002A95D1F7E0914201F09143010995D70152
:10083000C601B695A79597958795E0914201F091ED
:1008400043010995E0914201F09143018C2F0995F4
:10085000DD2321F0CF3721F48FE0A6D080E00FC058
:10086000D6B5CEE1C701B60189DF8F37B9F786B5B6
:100870008D1B8D33B8F3D6B5C150A1F781E0DF9160
:10088000CF91FF90EF90DF90CF900895CF92DF92BD
:10089000EF92FF92CF93DF936B017C01C42F92DE26
:1008A000E0914201F09143018CE40995D701C60122
:1008B00029E0B695A795979587952A95D1F7E09168
:1008C0004201F09143010995D701C601B695A7955C
:1008D00097958795E0914201F09143010995E09148
:1008E0004201F091430180E00995CF3F19F48FE078
:1008F0005BD010C0D6B5CEE1C701B6013FDF8F3F58
:1009000049F486B58D1B8D33B8F3D6B5C150A1F728
:1009100081E001C080E0DF91CF91FF90EF90DF9008
:10092000CF900895CF93DF93EC01E0914201F091D5
:10093000430180EA0995E0914201F09143018D2F36
:100940000995E0914201F09143018C2F0995E091C6
:100950004201F091430180E0DF91CF9109941F9310
:10096000CF93DF93D82F192FC62FE0914201F0913A
:10097000430180EC0995E0914201F0914301812F00
:100980000995E0914201F09143018D2F0995E09185
:100990004201F09143018C2F09958EE105D080E052
:1009A000DF91CF911F91089526B596B5921B9C3388
:1009B000E0F38150C9F70895259A23982B9A50E2C5
:1009C00017D05A95E9F70895AC0188E605D0842F31
:1009D00003D089E601D0852F0FD028E030E03827FA
:1009E00080FB869506D02A95D1F730FB02D000D047
:1009F000689423982B9A16F02B98239AE09146013D
:100A0000F09147013197F0F72D9AE3B1E3FBE091C4
:100A10004601F09147013197F0F72D98089520ECA9
:100A2000E7DF46F42A95E1F780E02AE1E5DF2A9541
:100A3000E9F7DECF28E030E0DBDF869587F938275D
:100A40002A95D1F7D5DF27F9322772F3D1DFD0CF3E
:100A5000DB01742FB9DF84E2BFDFE1DF8D937A958C
:100A6000D1F70895DB01742FAFDF83EFB5DF8DE1A0
:100A7000B3DF84E6B1DF8D91AFDF82E7ADDFCFDF9B
:100A80008078D9F77A9589F70895FC01238123307E
:100A900059F482818E3E41F48CE690E090932701D8
:100AA0008093260182E1089580E00895CF93DF933B
:100AB000EC018981813041F480910101ACDD10921B
:100AC0000C01399A04DE48C1823011F40CDEF3C007
:100AD000833011F5E0914201F09143018A8109953B
:100AE00080930E01E0914201F09143018B810995C1
:100AF00080930F01E0914201F09143018C810995AF
:100B000080931001E0914201F09143018D8109959C
:100B10008093110184E021C18430D1F480910C01D3
:100B200081110EC08A819B81092E000CAA0BBB0B80
:100B30008093080190930901A0930A01B0930B01DF
:100B40008E819F81909307018093060182E0F0C01F
:100B50008730D1F480910C0181110EC08A819B8174
:100B6000092E000CAA0BBB0B80930801909309017E
:100B7000A0930A01B0930B018E819F81909307018E
:100B80008093060183E0D4C0853011F4B5DD98C0B0
:100B9000863079F580910C0181110EC08A819B818C
:100BA000092E000CAA0BBB0B80930801909309013E
:100BB000A0930A01B0930B013C812D81822F8F708D
:100BC00080930301822F807F40E1849FC001112424
:100BD000830F911D909305018093040120FD809364
:100BE00002018E819F81909307018093060181E02D
:100BF0009FC0883001F580910C0181110EC08A815F
:100C00009B81092E000CAA0BBB0B809308019093CB
:100C10000901A0930A01B0930B01109205011092F3
:100C20000401109203018E819F81909307018093AC
:100C3000060184E07DC0893081F481E080930C015D
:100C40008A819B81AC81BD818093080190930901C9
:100C5000A0930A01B0930B017FC08A3031F48A81DE
:100C60008093010110920E012DC08B3081F48A8196
:100C70009B8190934701809346012A9A229A83E0B0
:100C800093DE2A98399A80E18FDE96DE65C08C303B
:100C9000A1F480ECA1DE80E09FDE8AE085DE2A9A66
:100CA00085E082DE2A9885E07FDE84B1837D84B989
:100CB00085B1837D85B939984FC08D3029F4AFDE79
:100CC00080930E0181E049C08E3019F48A8184DE60
:100CD00043C08F30B1F48A819B81092E000CAA0B8E
:100CE000BB0B8093080190930901A0930A01B09374
:100CF0000B018E819F81909307018093060185E00F
:100D000017C08031C9F48A819B81092E000CAA0B7F
:100D1000BB0B8093080190930901A0930A01B09343
:100D20000B018E819F81909307018093060186E0DD
:100D300080930D018FEF11C08D3571F48C8184305B
:100D400099F48EE790E0909327018093260180E448
:100D50008093220188E209C080E02EE031E03093E8
:100D600027012093260101C080E0DF91CF910895F3
:100D7000EF92FF920F931F93CF93C62F20910D01F7
:100D80003EEF320F323028F48C017C01E60EF11C6C
:100D900043C0253009F04FC0462FBC0180910801A7
:100DA0009091090155DE8091080190910901A0916F
:100DB0000A01B0910B018C0F911DA11DB11D8093F3
:100DC000080190930901A0930A01B0930B0135C06B
:100DD00080910D01823021F5609108017091090127
:100DE00080910A0190910B01C9DCF8018083809108
:100DF000080190910901A0910A01B0910B0101969F
:100E0000A11DB11D8093080190930901A0930A01CF
:100E1000B0930B010F5F1F4F0E151F05C9F606C0DB
:100E200080910801909109017DDDDFCFC83028F461
:100E300010920D0102C08FEF01C08C2FCF911F9136
:100E40000F91FF90EF900895EF92FF921F93CF9331
:100E5000DF93162F20910D01213031F4EC017C013C
:100E6000E10EF11C10E066C02430C1F3263009F019
:100E7000A3C0462FBC018091080190910901F2DDC9
:100E80008091080190910901A0910A01B0910B0194
:100E9000810F911DA11DB11D80930801909309013F
:100EA000A0930A01B0930B01809106019091070174
:100EB000811B91099093070180930601892B09F00A
:100EC0007DC010920D0181E07AC080910D018130CA
:100ED00009F04DC020910401309105016091080195
:100EE0007091090180910A0190910B01232B31F53A
:100EF00021E0488178DC80910601909107010197FB
:100F00009093070180930601892BC1F1809108011C
:100F100090910901A0910A01B0910B010196A11DC8
:100F2000B11D8093080190930901A0930A01B09329
:100F30000B012196CE15DF0541F63CC020E048812B
:100F400052DC809102018150809302018111D3CF44
:100F5000609108017091090180910A0190910B0143
:100F6000488194DC8091040180930201C4CF6881A0
:100F70008091080190910901F2DCBDCF10920D0122
:100F80008091030181FF14C08091020190E02091C3
:100F90000401309105018217930751F06091080117
:100FA0007091090180910A0190910B0148816EDCDA
:100FB00011E0ACCF812F03C08FEF01C080E0DF9143
:100FC000CF911F91FF90EF90089583E085BD8FEF43
:100FD00084B98FE1E9DC14B8389A9BD978947DD82C
:060FE000FECFF894FFCFE4
:00000001FF
