:100000005FC193C378C177C176C175C174C173C133
:1000100072C171C170C16FC16EC16DC16CC16BC164
:100020006AC169C115CB45CB66C165C164C163C1F5
:1000300062C161C10E0355005300420061007300AC
:1000400070001C037700770077002E0066006900BF
:100050007300630068006C002E00640065000403F8
:1000600009040600FF0901A1017508150126FF001A
:100070009508090181029508090191029508090175
:10008000B20201C00A00000000000306BE01080021
:1000900001000000B4010800020000009C001400F0
:1000A000030057494E555342000000000000000075
:1000B0000000800004000100280044006500760074
:1000C00069006300650049006E00740065007200FD
:1000D0006600610063006500470055004900440068
:1000E00000004E007B004100440035003700440012
:1000F0003300420039002D00310031003600360057
:100100002D0034003300460038002D003800370041
:10011000390030002D00300042004500310034002D
:1001200044004400430037003500300034007D00B7
:1001300000000800020001008800800004000100A7
:1001400028004400650076006900630065004900EE
:100150006E00740065007200660061006300650057
:10016000470055004900440000004E007B0041005C
:1001700044003500370044003300420039002D00B0
:1001800031003100360036002D00340033004600C7
:1001900038002D0038003700390030002D003100C4
:1001A0004200450031003400440044004300370061
:1001B0003500300034007D0000000800020002001D
:1001C00088008000040001002800440065007600DB
:1001D00069006300650049006E00740065007200EC
:1001E0006600610063006500470055004900440057
:1001F00000004E007B004100440035003700440001
:100200003300420039002D00310031003600360045
:100210002D0034003300460038002D003800370030
:10022000390030002D00320042004500310034001A
:1002300044004400430037003500300034007D00A6
:100240000000050F2100011C100500DF60DDD889CA
:1002500045C74C9CD2659D9E648A9F00000306BEE4
:10026000015D0009024B0003010080FA090400004F
:1002700000FF00000209040100020300000209213E
:10028000010100012222000705810308000A070579
:10029000010308000A090402000103000002092109
:1002A000010100012222000705820308000A120151
:1002B000010200000008C016DC0510010102030164
:1002C00011241FBECFEFD4E0DEBFCDBF11E0A0E010
:1002D000B1E0E6E8F8E102C005900D92AC30B1075C
:1002E000D9F722E0ACE0B1E001C01D92AF37B20710
:1002F000E1F738DAC6CA84CE1F93CF93DF93FA01B1
:1003000020913C012E31C9F0208124FF05C03181AC
:1003100028E82327218302C02AE52083262FDC0139
:10032000CF010296EC013D91399321501216DCF376
:10033000EF01162FF6D11C5F1883DF91CF911F912B
:1003400008954CE351E0D8CF48E651E0D5CFEF9285
:10035000FF920F931F93CF93DF9360914E016350F1
:1003600067FD1DC180914B01CCE0D0E0C81BD109D5
:10037000CE5ADE4F80914A01803118F4CE01CDD89B
:1003800008C18D3209F0F3C0683009F002C183EC76
:10039000809331018AE580930201109249012881FE
:1003A000822F807619F0CE0184D5C9C09A813C8114
:1003B00010923A018981811114C02F71223051F4B9
:1003C000313841F490913C0181E09E3109F080E0A8
:1003D00080933A0110923B012AE331E082E090E001
:1003E000A9C0282F2D7F213091F491119FC0313861
:1003F00009F09CC0813011F08EE101C08AE5809344
:100400003C018BE480933D01809369018FC085306E
:1004100019F490934F018AC0863009F069C08B812E
:10042000813051F48EEA92E090934D0180934C011B
:1004300020E482E190E059C0823051F483E692E0FA
:1004400090934D0180934C0120E48BE490E04DC0EB
:10045000833081F591110AC08EE590E090934D01B3
:1004600080934C0120E484E090E03FC0913051F44F
:1004700082E490E090934D0180934C0120E48CE164
:1004800090E033C0923051F484E390E090934D01BA
:1004900080934C0120E48EE090E027C0933011F56A
:1004A00081E090E090934D0180934C0120E28AE03E
:1004B00090E01BC0813251F485E792E090934D01AA
:1004C00080934C0120E489E090E00FC0823251F427
:1004D00082E690E090934D0180934C0120E482E20B
:1004E00090E003C0CE01D2D420E42093490127C07C
:1004F0008830A1F0893019F49093510109C08A30F5
:1005000081F08B3099F48BE480933D0180936901F5
:100510008AE580933C018093680108C021E531E0C1
:1005200002C02AE331E081E090E004C02AE331E038
:1005300080E090E030934D0120934C010DC08F3F3F
:100540002FEF920749F4288127FF02C08E819F81F7
:1005500020E82093490106C02E813F8128173907E2
:1005600008F4C901909301018093000112C08091A9
:10057000490187FF0EC0CE01C2D68F3F21F48EE124
:100580008093020106C0882321F01092010110928D
:10059000000180914E01181614F410924E018091C2
:1005A000020184FF6FC080910001909101018F3F93
:1005B000EFEF9E0709F466C0BC018930910510F089
:1005C00068E070E0861B970B909301018093000117
:1005D0009091310188E8892780933101D62F6623D5
:1005E00009F460C08091490187FF08C082E391E06F
:1005F0000BD6D82F893008F03CC02DC000914C019B
:1006000010914D0185FF0FC082E3E82E81E0F82EA6
:10061000C62FC8011CD9F70181937F010F5F1F4FBF
:10062000C150B9F714C086FF0AC0A2E3B1E0F801D7
:1006300084918D930F5F1F4F6150C9F708C0F80177
:10064000A2E3B1E081918D938F016150D9F71093AE
:100650004D0100934C016D2F82E391E062D0DC5F8D
:10066000DC3071F08FEF9FEF9093010180930001D8
:1006700007C08FEF9FEF9093010180930001DEE1AF
:10068000D093020184E193B1937091F48150D9F732
:1006900010924F01109248018AE580933C018093AB
:1006A000680106C060E082E391E03BD0D4E0DACF9D
:1006B000DF91CF911F910F91FF90EF900895E9E6A0
:1006C000F0E0808182608083E89AACE3B1E08BE463
:1006D00011968C931197E8E6F1E081838AE58C937B
:1006E00080830895DC018FEF9FEF332715C02D9194
:1006F0002827722F22952727822F2695269528278F
:1007000023952270321777952795822F8927972F67
:100710007695279597278227615048F78095909581
:100720000895E0DF8D939D930895CF93CFB7CF9336
:10073000C395189BE9F7189B09C0189B07C0189B25
:1007400005C0189B03C0189B01C0A6C0DF93C091D1
:100750004B01DD27CE5ADE4F189B02C0DF91EBCF55
:100760002F930F931F9303B12FEF00FB20F94F93AB
:100770003F9313B14FEF012700FB21F93BE031C05C
:100780004E7F012F13B1216028C0102F4D7F2260B2
:10079000000003B129C04B7F2460012F000013B17A
:1007A0002BC013B1477F28602AC04F7E03B1206160
:1007B0002CC04F7D13B120622FC04F7B03B120644A
:1007C00032C0422703B149934FEF0000102710FBBE
:1007D00020F913B11370C9F1297F91F2012700FBB1
:1007E00021F903B1237F89F2315058F1102710FB12
:1007F00022F913B1277E79F2012700FB23F92F7C20
:1008000081F203B1102710FB24F92F7971F200C097
:1008100013B1012700FB25F92F7359F200C003B172
:10082000102710FB26F9223040F200C013B1012737
:1008300000FB27F9243028F64F77206813B1000019
:10084000F9CF11E01CBB00271CC03B503195C31BE6
:10085000D04011E01CBB0881033C11F10B3401F1C5
:10086000209148011981110F1213EDCF4A81441FC5
:10087000093659F10D3211F0013E29F74F7009F098
:10088000042F009350013F914F911F910F912F9191
:10089000DF91CCB3C0FD4CCFCF91CFBFCF91189596
:1008A00020915001222379F310914E011123C1F5BB
:1008B0003430C2F130934E0120934A0110914B0124
:1008C0003BE0311B30934B012DC000914E010130B4
:1008D0003CF50AE54F7049F43091020134FD24C023
:1008E00000930201C1E3D1E023C0423049F03091CE
:1008F0003C0134FD19C000933C01CDE3D1E018C0A8
:100900003091680134FD10C000936801C9E6D1E060
:100910000FC02795A8F45150A9F4220F0000F9CF79
:100920004AE503C042ED01C0432FC4E1D0E032E00C
:1009300014B11360289A14B905B120E413E05F9351
:10094000012756E005B9279520F4515021F4220FD4
:10095000F9CF012756E000003B5A05B9D0F22795A0
:1009600028F4515029F4220F0000F9CF012756E056
:10097000279505B920F4515021F4220FF9CF012712
:1009800056E02991332305B921F60C7F10914F01D0
:10099000110FC651D04005B911F01093480111E074
:1009A0001CBB016014B11C7F402F4C7F5F9100C0C5
:1009B00000C005B914B945B966CF8EBD0DB407FEA8
:1009C000FDCF8EB50895DC01CB0121E1B695A79549
:1009D000979587952A95D1F7209176012817D9F018
:1009E00080937601E0917401F09175018DE4099591
:1009F000E0917401F091750180E00995E091740136
:100A0000F0917501809176010995E0917401F09162
:100A1000750180E009940895882319F0883020F149
:100A200001C08CE02DED34E030937501209374010A
:100A30001DBC91E0909377018A3081F028F48830D2
:100A400081F0893061F006C08B3031F08D3011F4C7
:100A50001CBC089581E08DBD81E004C09DBD82E095
:100A600001C083E08CBD08952EE435E0309375011C
:100A70002093740127E030E0281B310983E001C096
:100A8000880F2A95EAF780937701089526B590910B
:100A9000770186B5821B8917E0F308951F93CF93E2
:100AA000DF93182FD8E0C0E017FF02C02B9A01C0D7
:100AB0002B98110FCC0F1C99CF5F2D9AE7DF2D9843
:100AC000E5DFD15089F78C2FDF91CF911F910895E9
:100AD000259A239A229A2C9A2A9A81E066D12A98FA
:100AE0008FEF80937601089584B1837D84B92C982B
:100AF0002B981CBC10920C0108950F931F93CF9359
:100B0000DF9380910C0181112EC08CE080930C0149
:100B10002AC0C0917401D091750184E0CD3DD80701
:100B200019F48CB580658CBD13E02A9A81E03DD123
:100B30002A988EE33AD18CEAFE01099583E5FE01FD
:100B4000099580E0FE010995082F80E0FE010995D6
:100B5000033579F0115049F71CBC80910C0181508C
:100B600080930C0159DF80910C018111D2CF81E07B
:100B700001C080E0DF91CF911F910F910895CF9236
:100B8000DF92EF92FF926B017C011DDF8C2D817053
:100B9000880F880F880FE0917401F09175018062D1
:100BA0000995D701C60129E0B695A7959795879530
:100BB0002A95D1F7E0917401F09175010995D7015B
:100BC000C601B695A79597958795E0917401F09128
:100BD00075010995E0917401F091750180E0FF9035
:100BE000EF90DF90CF900994CF92DF92EF92FF9237
:100BF000CF93DF936B017C01C42FD22FE4DE8C2DC9
:100C00008170880F880F880FE0917401F091750151
:100C100080640995D701C60129E0B695A7959795F7
:100C200087952A95D1F7E0917401F09175010995A6
:100C3000D701C601B695A79597958795E091740160
:100C4000F09175010995E0917401F09175018C2F77
:100C50000995DD2321F0CF3721F48FE0A6D080E085
:100C60000FC0D6B5CEE1C701B60189DF8F37B9F71E
:100C700086B58D1B8D33B8F3D6B5C150A1F781E091
:100C8000DF91CF91FF90EF90DF90CF900895CF92BA
:100C9000DF92EF92FF92CF93DF936B017C01C42F21
:100CA00092DEE0917401F09175018CE40995D70111
:100CB000C60129E0B695A795979587952A95D1F70E
:100CC000E0917401F09175010995D701C601B695BF
:100CD000A79597958795E0917401F0917501099515
:100CE000E0917401F091750180E00995CF3F19F40E
:100CF0008FE05BD010C0D6B5CEE1C701B6013FDFB3
:100D00008F3F49F486B58D1B8D33B8F3D6B5C150EE
:100D1000A1F781E001C080E0DF91CF91FF90EF90DB
:100D2000DF90CF900895CF93DF93EC01E0917401B1
:100D3000F091750180EA0995E0917401F0917501D7
:100D40008D2F0995E0917401F09175018C2F099513
:100D5000E0917401F091750180E0DF91CF910994E9
:100D60001F93CF93DF93D82F192FC62FE0917401D3
:100D7000F091750180EC0995E0917401F091750195
:100D8000812F0995E0917401F09175018D2F0995DE
:100D9000E0917401F09175018C2F09958EE105D0D9
:100DA00080E0DF91CF911F91089526B596B5921BF3
:100DB0009C33E0F38150C9F70895259A23982B9A24
:100DC00050E217D05A95E9F70895AC0188E605D0AE
:100DD000842F03D089E601D0852F0FD028E030E0A2
:100DE000382780FB869506D02A95D1F730FB02D0B4
:100DF00000D0689423982B9A16F02B98239AE091B0
:100E00007801F09179013197F0F72D9AE3B1E3FB86
:100E1000E0917801F09179013197F0F72D980895DC
:100E200020ECE7DF46F42A95E1F780E02AE1E5DFF0
:100E30002A95E9F7DECF28E030E0DBDF869587F9F9
:100E400038272A95D1F7D5DF27F9322772F3D1DF7A
:100E5000D0CFDB01742FB9DF84E2BFDFE1DF8D93F8
:100E60007A95D1F70895DB01742FAFDF83EFB5DFFB
:100E70008DE1B3DF84E6B1DF8D91AFDF82E7ADDFD7
:100E8000CFDF8078D9F77A9589F70895FC0123811F
:100E90002F3061F48281811109C082E492E0909345
:100EA0004D0180934C0181E290E0089580E090E054
:100EB0000895CF93DF93EC018881982F907690343A
:100EC00009F073C18F7109F094C18981813049F4AF
:100ED000F1D380910C01A0DD10921701399AF8DD51
:100EE00088C1823011F400DE01C1833081F5E091C8
:100EF0007401F09175018A81099580932901E0912F
:100F00007401F09175018B81099580932A01E0911C
:100F10007401F09175018C81099580932B01E0910A
:100F20007401F09175018D81099580932C01809158
:100F3000030190910401009709F458C160910501E3
:100F4000262F2873462F44706370CAD34FC1843054
:100F5000D1F48091170181110EC08A819B81092EE5
:100F6000000CAA0BBB0B8093130190931401A09368
:100F70001501B09316018E819F8190931201809389
:100F8000110182E02EC18730D1F4809117018111C7
:100F90000EC08A819B81092E000CAA0BBB0B80938B
:100FA000130190931401A0931501B09316018E8143
:100FB0009F81909312018093110183E012C18530CB
:100FC00011F49BDD98C0863079F58091170181116D
:100FD0000EC08A819B81092E000CAA0BBB0B80934B
:100FE000130190931401A0931501B09316013C8155
:100FF0002D81822F8F7080930E01822F807F40E1A0
:10100000849FC0011124830F911D90931001809340
:101010000F0120FD80930D018E819F81909312011D
:101020008093110181E0DDC0883001F580911701C6
:1010300081110EC08A819B81092E000CAA0BBB0B6B
:101040008093130190931401A0931501B09316019E
:101050001092100110920F0110920E018E819F814B
:10106000909312018093110184E0BBC0893081F418
:1010700081E0809317018A819B81AC81BD8180933F
:10108000130190931401A0931501B0931601B1C000
:101090008A3031F48A8180930C01109229012DC08D
:1010A0008B3081F48A819B819093790180937801C0
:1010B0002A9A229A83E079DE2A98399A80E175DEAD
:1010C0007CDE97C08C30A1F480EC87DE80E085DE8A
:1010D0008AE06BDE2A9A85E068DE2A9885E065DE84
:1010E00084B1837D84B985B1837D85B9399881C008
:1010F0008D3031F495DE8093290181E090E07BC052
:101100008E3019F48A8169DE74C08F30B1F48A811F
:101110009B81092E000CAA0BBB0B809313019093AB
:101120001401A0931501B09316018E819F819093B5
:1011300012018093110185E054C08031B1F48A819D
:101140009B81092E000CAA0BBB0B8093130190937B
:101150001401A0931501B09316018E819F81909385
:1011600012018093110186E03CC08F3769F48091B1
:101170000701809329018091080180932A01109230
:101180002B0110922C0132C08D3599F58C8187305E
:1011900081F580E48093490184E890E090934D01CB
:1011A00080934C018EEB91E02CC0903211F58F7141
:1011B0008130F9F48B818330E1F48981813019F039
:1011C000893051F016C083E091E090934D018093F7
:1011D0004C0188E090E015C08D819E81892B49F0FB
:1011E00087E0809318018FEF9FEF05C084E090E0C7
:1011F00002C080E090E029E231E030934D0120937D
:101200004C01DF91CF910895EF92FF920F931F93BE
:10121000CF93C62F209118013EEF320F323028F4C1
:101220008C017C01E60EF11C4CC0253009F05EC03B
:10123000462FBC0180911301909114010ADE809128
:10124000130190911401A0911501B09116018C0F1A
:10125000911DA11DB11D8093130190931401A093C2
:101260001501B093160144C080911801823069F5D0
:1012700060911301709114018091150190911601F4
:101280007EDCF80180838091130190911401A0917C
:101290001501B09116010196A11DB11D8093130196
:1012A00090931401A0931501B09316018091110140
:1012B00090911201019790931201809311010F5F99
:1012C0001F4F0E151F0581F606C0809113019091E6
:1012D000140129DDD6CFC83030F0809111019091F2
:1012E0001201892B29F41092180102C08FEF01C05E
:1012F0008C2FCF911F910F91FF90EF900895CF9277
:10130000DF92EF92FF920F931F93CF938C01C62F22
:1013100080911801813011F0843031F47801680136
:10132000CC0ED11CC0E068C0863029F0873009F0AF
:10133000E7C0C0E0A5C0462FB8018091130190918D
:10134000140191DD8091130190911401A091150178
:10135000B09116018C0F911DA11DB11D8093130139
:1013600090931401A0931501B0931601809111017F
:10137000909112018C1B910990931201809311019D
:10138000892B09F0BFC0B8C080911801813009F0E5
:1013900052C020910F0130911001609113017091A2
:1013A00014018091150190911601232B49F521E03C
:1013B000F701408119DC8091110190911201019790
:1013C0009093120180931101892BE9F1809113010F
:1013D00090911401A0911501B09116010196A11DE3
:1013E000B11D8093130190931401A0931501B09344
:1013F0001601FFEFEF1AFF0ACE14DF0429F640C0F2
:1014000020E0F7014081F0DB80910D018150809355
:101410000D018111D0CF6091130170911401809161
:10142000150190911601F701408131DC80910F0187
:1014300080930D01C0CFF7016081809113019091DD
:1014400014018EDCB8CF1092180180910E0181FF3B
:1014500015C080910D0190E020910F013091100195
:101460008217930759F060911301709114018091D4
:10147000150190911601F701408109DCC1E0A6CF6A
:1014800080911801873009F03FC0F80183818823DB
:1014900041F0813089F5F8018081918109E010E007
:1014A0001AC0F80180818093030181818093040137
:1014B000828180930501FED0809103019091040107
:1014C0000097D1F060910501262F2873462F4470B4
:1014D000637006D111C06AE070E0A5D1F62EC72F67
:1014E00060E3680FC801BBD18F2D9C2F02501109FA
:1014F000F0E001301F0779F71092180181E005C074
:101500008FEF03C080E001C08C2FCF911F910F910E
:10151000FF90EF90DF90CF900895FC019781992381
:1015200041F1983018F0662321F1962F8091C10087
:1015300087FF1FC080917B0120917A01821B292F98
:1015400030E0280F311D293731051CF08FEF8093D3
:101550004E01DF01E0917B01EF77F0E08D91E658DD
:10156000FE4F828380917B018F5F80937B0191503E
:1015700089F70895A1E2B1E080E02091FD0190910A
:10158000FC01291789F0873079F08F5FE091FC0129
:10159000EF77F0E0E450FE4F92819D939091FC0133
:1015A0009F5F9093FC01E9CF809328012091FD017A
:1015B0009091FC01291791F0873081F4E091FC01B2
:1015C000EF77F0E0E450FE4F8281883038F080936E
:1015D00028018091FC018F5F8093FC0168E081E22B
:1015E00091E0AFC6E9E1F1E08091180180831182BA
:1015F00012821382148215821682178268E0CF014C
:10160000A3C61F920F920FB60F9211248F939F9330
:10161000EF93FF938091FD019091FC01891B80382D
:1016200071F0E091FD01EF77F0E080917E02E450EF
:10163000FE4F82838091FD018F5F8093FD01FF91BA
:10164000EF919F918F910F900FBE0F901F90189563
:101650000090C60000927E02D4CF1F920F920FB668
:101660000F9211248F939F93EF93FF9390917B019F
:1016700080917A01981779F0E0917A01EF77F0E0A4
:10168000E658FE4F82818093C60080917A018F5F79
:1016900080937A0105C08091C1008F7D8093C10045
:1016A000FF91EF919F918F910F900FBE0F901F9020
:1016B0001895D3CF58981092C1008091C1008F7DAA
:1016C0008093C10010927B0110927A011092FD016B
:1016D0001092FC0180914E0187FD10924E010895F9
:1016E000FF920F931F93CF93DF93182F092FD62FBD
:1016F000F42EC22FDFDF10927B0110927A0110923C
:10170000FD011092FC0182E08093C000D13021F0F5
:10171000D23021F480E303C080E201C080E094E095
:10172000F91201C08860C03151F020F4C83051F482
:10173000826008C0C83129F0C03219F003C084604B
:1017400001C086608093C2000093C5001093C4005E
:1017500088E98093C100589ADF91CF911F910F9132
:10176000FF90089583E085BD80E090E070D08038E0
:1017700061F160E880E090E072D06AE081E090E0A2
:101780006ED063E082E090E06AD060E383E090E0B6
:1017900066D060E084E090E062D060E385E090E0B5
:1017A0005ED060E086E090E05AD060E387E090E0B1
:1017B00056D060E088E090E052D060E389E090E0AD
:1017C0004ED060E08AE090E04AD08FEF84B98FE19C
:1017D000ECDA14B8389A73D778948091C10085FDFB
:1017E0000CC090917B0180917A01981731F0809123
:1017F000C10080628093C1000BC090917B018091F9
:101800007A01981305C080914E0187FD10924E0118
:101810009ED580913C0184FDADDE8091680184FFFE
:10182000DCCFE0DEDACFAA1BBB1B51E107C0AA1F49
:10183000BB1FA617B70710F0A61BB70B881F991F71
:101840005A95A9F780959095BC01CD010895F99915
:10185000FECF92BD81BDF89A992780B50895262FB5
:10186000F999FECF92BD81BDF89A019700B4021696
:1018700039F01FBA20BD0FB6F894FA9AF99A0FBE44
:061880000895F894FFCF6B
:0C188600FFFF5A00000000A1000000005D
:00000001FF
