:100000001AC1C8C233C132C131C130C12FC12EC1E2
:100010002DC12CC12BC12AC129C128C127C126C18C
:1000200025C124C1F0C91ACA21C120C11FC11EC1E6
:100030001DC11CC10E035500530042006100730036
:1000400070001C037700770077002E0066006900BF
:100050007300630068006C002E00640065000403F8
:1000600009040600FF0901A1017508150126FF001A
:100070009508090181029508090191029508090175
:10008000B20201C08E0000000001050001008400E2
:1000900000000100000028004400650076006900AF
:1000A0006300650049006E00740065007200660020
:1000B00061006300650047005500490044000000EE
:1000C0004E0000007B004100440035003700440032
:1000D0003300420039002D00310031003600360077
:1000E0002D0034003300460038002D003800370062
:1000F000390030002D004500420045003100340039
:1001000044004400430037003500300034007D00D7
:1001100000008E00000000010500010084000000C6
:1001200001000000280044006500760069006300BB
:10013000650049006E007400650072006600610091
:1001400063006500470055004900440000004E0070
:1001500000007B00430043003400420043003000B5
:10016000330031002D0046003600310041002D00E3
:1001700034004300320042002D00420042004200A1
:1001800032002D00370039003500380037003200CA
:100190004200330038004600360036007D00000083
:1001A0004000000000010400020000000000000008
:1001B000000157494E555342000000000000000066
:1001C000000000000000000001010000000000002D
:1001D000000000000000000000000000000000001F
:1001E00012004D0053004600540031003000300032
:1001F0005D0009023200020100807D090400000058
:10020000FF000002090401000203000002092101AD
:100210000100012222000705810308000A070501E9
:100220000308000A1201000200000008C016DC05E5
:1002300009010102030111241FBECFEFD4E0DEBF8C
:10024000CDBF11E0A0E0B1E0EEEEF4E102C0059018
:100250000D92AA30B107D9F722E0AAE0B1E001C0BF
:100260001D92A836B207E1F72FD93FC9C9CECF9367
:10027000C62F2091320124FF07C03091330128E8B6
:1002800023272093330103C02AE5209332012C2F2A
:10029000FC01A4E3B1E081918D9321501216DCF3AF
:1002A0006C2F84E391E072D1CC5FC0933201CF9187
:1002B0000895CF93DF9360914401635067FDCDC0F3
:1002C00080914101CCE0D0E0C81BD109C85BDE4F72
:1002D00080914001803118F4CE0117D8BCC08D3216
:1002E00009F0AAC0683009F0B6C083EC80932701FA
:1002F0008AE58093010110923F018881807619F090
:10030000CE01FFD486C09A8110923001898181117B
:1003100006C01092310120E331E082E075C08530E3
:1003200019F4909345016DC0863009F054C08B815B
:10033000813041F484E292E0909343018093420142
:1003400082E145C0823041F482EF91E09093430115
:100350008093420182E33BC0833009F5911108C0CC
:100360008EE590E0909343018093420184E02FC09A
:10037000913041F482E490E09093430180934201F4
:100380008CE125C0923041F484E390E090934301E6
:10039000809342018EE01BC09330A9F417C08132D4
:1003A00041F484E092E0909343018093420189E01C
:1003B0000EC0823241F482E690E090934301809334
:1003C000420182E204C0CE018BD401C080E090E4FF
:1003D00090933F011EC0883069F0893019F49093E2
:1003E00047010FC08A3049F08B3059F48BE4809379
:1003F000330107C027E431E002C020E331E081E0AF
:1004000003C020E331E080E03093430120934201B8
:1004100009C08F3F39F4988197FD8E8190E89093C1
:100420003F0107C09F81911104C09E81981708F475
:10043000892F809300010FC080913F0187FF0BC07F
:10044000CE0174D68F3F21F48EE18093010103C069
:10045000811110920001109244018091010184FFEA
:1004600055C0809100018F3F09F450C0C82F8930DA
:1004700008F0C8E08C1B809300019091270188E868
:10048000892780932701CC2309F44BC020913F0199
:1004900027FF08C06C2F88E291E0DCD5C82F893097
:1004A00078F523C0809142019091430126FF0AC054
:1004B000A8E2B1E0FC012C2F34913D9331962150FC
:1004C000D9F708C0DC01E8E2F1E02C2F3D9131932F
:1004D0002150E1F72FEF2C0F30E02F5F3F4F820FBD
:1004E000931F90934301809342016C2F88E291E027
:1004F0004DD0CC5FCC3041F08FEF8093000104C031
:100500008FEF80930001CEE1C093010184E193B1AC
:10051000937069F48150D9F71092450110923E0111
:1005200006C060E088E291E031D0C4E0E5CFDF9121
:10053000CF910895E9E6F0E0808182608083E89AB7
:10054000E2E3F1E08BE481838AE580830895DC01B6
:100550008FEF9FEF332715C02D912827722F2295FB
:100560002727822F26952695282723952270321734
:1005700077952795822F8927972F76952795972707
:100580008227615048F7809590950895E0DF8D931C
:100590009D930895CF93CFB7CF93C395189BE9F759
:1005A000189B09C0189B07C0189B05C0189B03C067
:1005B000189B01C0A6C0DF93C0914101DD27C85B35
:1005C000DE4F189B02C0DF91EBCF2F930F931F9349
:1005D00003B12FEF00FB20F94F933F9313B14FEF7F
:1005E000012700FB21F93BE031C04E7F012F13B101
:1005F000216028C0102F4D7F2260000003B129C068
:100600004B7F2460012F000013B12BC013B1477F33
:1006100028602AC04F7E03B120612CC04F7D13B1EA
:1006200020622FC04F7B03B1206432C0422703B148
:1006300049934FEF0000102710FB20F913B11370FE
:10064000C9F1297F91F2012700FB21F903B1237F32
:1006500089F2315058F1102710FB22F913B1277E8F
:1006600079F2012700FB23F92F7C81F203B11027D7
:1006700010FB24F92F7971F200C013B1012700FBA0
:1006800025F92F7359F200C003B1102710FB26F98A
:10069000223040F200C013B1012700FB27F92430BB
:1006A00028F64F77206813B10000F9CF11E01CBB8A
:1006B00000271CC03B503195C31BD04011E01CBB30
:1006C0000881033C11F10B3401F120913E011981A5
:1006D000110F1213EDCF4A81441F093659F10D3223
:1006E00011F0013E29F74F7009F0042F00934601E5
:1006F0003F914F911F910F912F91DF91CCB3C0FD8E
:100700004CCFCF91CFBFCF91189520914601222396
:1007100079F310914401112369F534306AF1309373
:10072000440120934001109141013BE0311B309383
:10073000410122C0009144010130E4F40AE54F7008
:1007400049F43091010134FD19C000930101C7E261
:10075000D1E018C03091320134FD10C00093320155
:10076000C3E3D1E00FC02795A8F45150A9F4220F9C
:100770000000F9CF4AE503C042ED01C0432FC4E1B8
:10078000D0E032E014B11360289A14B905B120E426
:1007900013E05F93012756E005B9279520F45150E7
:1007A00021F4220FF9CF012756E000003B5A05B98A
:1007B000D0F2279528F4515029F4220F0000F9CFE8
:1007C000012756E0279505B920F4515021F4220F56
:1007D000F9CF012756E02991332305B921F60C7F83
:1007E00010914501110FC651D04005B911F0109379
:1007F0003E0111E01CBB016014B11C7F402F4C7FF7
:100800005F9100C000C005B914B945B971CF8EBD64
:100810000DB407FEFDCF8EB50895DC01CB0121E1BB
:10082000B695A795979587952A95D1F72091600160
:100830002817D9F080936001E0915E01F0915F018B
:100840008DE40995E0915E01F0915F0180E00995EA
:10085000E0915E01F0915F01809160010995E09166
:100860005E01F0915F0180E009940895882319F0FA
:10087000883020F101C08CE027E034E030935F0144
:1008800020935E011DBC91E0909361018A3081F05C
:1008900028F4883081F0893061F006C08B3031F067
:1008A0008D3011F41CBC089581E08DBD81E004C041
:1008B0009DBD82E001C083E08CBD089528E734E04F
:1008C00030935F0120935E0127E030E0281B31095F
:1008D00083E001C0880F2A95EAF7809361010895AB
:1008E00026B59091610186B5821B8917E0F30895C2
:1008F0001F93CF93DF93182FD8E0C0E017FF02C0FB
:100900002B9A01C02B98110FCC0F1C99CF5F2D9AF9
:10091000E7DF2D98E5DFD15089F78C2FDF91CF915C
:100920001F910895259A239A229A2C9A2A9A81E057
:1009300066D12A988FEF80936001089584B1837DFA
:1009400084B92C982B981CBC10920A0108950F931F
:100950001F93CF93DF9380910A0181112EC08CE009
:1009600080930A012AC0C0915E01D0915F0184E0AA
:10097000C730D80719F48CB580658CBD13E02A9A6E
:1009800081E03DD12A988EE33AD18CEAFE010995A7
:1009900083E5FE01099580E0FE010995082F80E0BE
:1009A000FE010995033579F0115049F71CBC80917F
:1009B0000A01815080930A0159DF80910A01811157
:1009C000D2CF81E001C080E0DF91CF911F910F91E4
:1009D0000895CF92DF92EF92FF926B017C011DDFB1
:1009E0008C2D8170880F880F880FE0915E01F09147
:1009F0005F0180620995D701C60129E0B695A795E8
:100A0000979587952A95D1F7E0915E01F0915F0166
:100A10000995D701C601B695A79597958795E09159
:100A20005E01F0915F010995E0915E01F0915F0137
:100A300080E0FF90EF90DF90CF900994CF92DF920B
:100A4000EF92FF92CF93DF936B017C01C42FD22FE3
:100A5000E4DE8C2D8170880F880F880FE0915E0195
:100A6000F0915F0180640995D701C60129E0B69530
:100A7000A795979587952A95D1F7E0915E01F0911A
:100A80005F010995D701C601B695A79597958795FA
:100A9000E0915E01F0915F010995E0915E01F091B6
:100AA0005F018C2F0995DD2321F0CF3721F48FE0F2
:100AB000A6D080E00FC0D6B5CEE1C701B60189DF70
:100AC0008F37B9F786B58D1B8D33B8F3D6B5C150C6
:100AD000A1F781E0DF91CF91FF90EF90DF90CF9071
:100AE0000895CF92DF92EF92FF92CF93DF936B0145
:100AF0007C01C42F92DEE0915E01F0915F018CE4F5
:100B00000995D701C60129E0B695A79597958795D0
:100B10002A95D1F7E0915E01F0915F010995D70127
:100B2000C601B695A79597958795E0915E01F091DE
:100B30005F010995E0915E01F0915F0180E0099508
:100B4000CF3F19F48FE05BD010C0D6B5CEE1C7011E
:100B5000B6013FDF8F3F49F486B58D1B8D33B8F367
:100B6000D6B5C150A1F781E001C080E0DF91CF91FF
:100B7000FF90EF90DF90CF900895CF93DF93EC013B
:100B8000E0915E01F0915F0180EA0995E0915E01DC
:100B9000F0915F018D2F0995E0915E01F0915F0169
:100BA0008C2F0995E0915E01F0915F0180E0DF916B
:100BB000CF9109941F93CF93DF93D82F192FC62F6E
:100BC000E0915E01F0915F0180EC0995E0915E019A
:100BD000F0915F01812F0995E0915E01F0915F0135
:100BE0008D2F0995E0915E01F0915F018C2F0995A1
:100BF0008EE105D080E0DF91CF911F91089526B559
:100C000096B5921B9C33E0F38150C9F70895259A5D
:100C100023982B9A50E217D05A95E9F70895AC0122
:100C200088E605D0842F03D089E601D0852F0FD028
:100C300028E030E0382780FB869506D02A95D1F74A
:100C400030FB02D000D0689423982B9A16F02B9892
:100C5000239AE0916201F09163013197F0F72D9AA8
:100C6000E3B1E3FBE0916201F09163013197F0F7AA
:100C70002D98089520ECE7DF46F42A95E1F780E00F
:100C80002AE1E5DF2A95E9F7DECF28E030E0DBDF77
:100C9000869587F938272A95D1F7D5DF27F93227A6
:100CA00072F3D1DFD0CFDB01742FB9DF84E2BFDF75
:100CB000E1DF8D937A95D1F70895DB01742FAFDFD3
:100CC00083EFB5DF8DE1B3DF84E6B1DF8D91AFDF78
:100CD00082E7ADDFCFDF8078D9F77A9589F708957D
:100CE000FC012381233059F482818E3E41F480EE51
:100CF00091E0909343018093420182E1089580E066
:100D00000895CF93DF93EC019881892F807680340A
:100D100009F07AC19F7109F057C19981913049F466
:100D20009ED380910A01A2DD10921501399AFADD55
:100D300087C1923011F402DEF0C0933009F5E091E2
:100D40005E01F0915F018A81099580931F01E09116
:100D50005E01F0915F018B81099580932001E09104
:100D60005E01F0915F018C81099580932101E091F2
:100D70005E01F0915F018D8109958093220115C17B
:100D80009430D1F48091150181110EC08A819B812C
:100D9000092E000CAA0BBB0B80931101909312013A
:100DA000A0931301B09314018E819F819093100141
:100DB00080930F0182E040C19730D1F480911501FA
:100DC00081110EC08A819B81092E000CAA0BBB0BDE
:100DD0008093110190931201A0931301B093140119
:100DE0008E819F819093100180930F0183E024C135
:100DF000953011F4ACDD96C0963079F580911501EF
:100E000081110EC08A819B81092E000CAA0BBB0B9D
:100E10008093110190931201A0931301B0931401D8
:100E20003C812D81822F8F7080930C01822F807FD7
:100E300040E1849FC0011124830F911D90930E0106
:100E400080930D0120FD80930B018E819F819093F3
:100E5000100180930F0181E0EFC0983001F580917F
:100E6000150181110EC08A819B81092E000CAA0BED
:100E7000BB0B8093110190931201A0931301B093C7
:100E8000140110920E0110920D0110920C018E812E
:100E90009F819093100180930F0184E0CDC0993021
:100EA00081F481E0809315018A819B81AC81BD81B1
:100EB0008093110190931201A0931301B093140138
:100EC000BFC09A3021F48A8180930A0199C09B3077
:100ED00081F48A819B8190936301809362012A9AB5
:100EE000229A83E08CDE2A98399A80E188DE8FDEB0
:100EF000A7C09C30A1F480EC9ADE80E098DE8AE006
:100F00007EDE2A9A85E07BDE2A9885E078DE84B151
:100F1000837D84B985B1837D85B9399891C09D3031
:100F200021F4A8DE80931F016DC09E3019F48A81E0
:100F30007EDE86C09F30B1F48A819B81092E000C31
:100F4000AA0BBB0B8093110190931201A093130184
:100F5000B09314018E819F819093100180930F01B3
:100F600085E06AC09031B1F48A819B81092E000C22
:100F7000AA0BBB0B8093110190931201A093130154
:100F8000B09314018E819F819093100180930F0183
:100F900086E052C09F3759F481E480931F0110927C
:100FA0002001109221011092220184E04AC09D3557
:100FB00009F046C09C81943009F042C090E49093BF
:100FC0003F0120EA31E03FC09130D1F599819A305C
:100FD000B9F09D35A9F59C81953091F580933F013D
:100FE0008A81882329F0813059F584E890E002C095
:100FF00082E191E090934301809342018EE827C003
:1010000010921F0181E01DC08032D1F49F71913098
:10101000B9F48981813019F0893049F011C082E03A
:1010200091E0909343018093420188E010C08D814C
:101030009E81892B29F087E0809316018FEF01C0F4
:1010400080E02FE131E03093430120934201DF91B2
:10105000CF910895EF92FF920F931F93CF93C62FD6
:10106000209116013EEF320F323028F48C017C01C2
:10107000E60EF11C43C0253009F04FC0462FBC01DD
:1010800080911101909112010EDE809111019091D9
:101090001201A0911301B09114018C0F911DA11D9B
:1010A000B11D8093110190931201A0931301B0938D
:1010B000140135C080911601823021F56091110133
:1010C00070911201809113019091140182DCF8015A
:1010D00080838091110190911201A0911301B09130
:1010E00014010196A11DB11D80931101909312016D
:1010F000A0931301B09314010F5F1F4F0E151F052E
:10110000C9F606C0809111019091120136DDDFCF42
:10111000C83028F41092160102C08FEF01C08C2F46
:10112000CF911F910F91FF90EF900895CF92DF9292
:10113000EF92FF920F931F93CF937C01C62F809164
:101140001601813011F0843031F487016701CC0E33
:10115000D11CC0E06AC0863029F0873009F0C8C0D1
:10116000C0E0A7C0462FB7018091110190911201F4
:10117000A4DD8091110190911201A0911301B09111
:1011800014018C0F911DA11DB11D8093110190932D
:101190001201A0931301B093140180910F0190915B
:1011A00010018C1B91099093100180930F01892BE2
:1011B00009F0A0C01092160181E09FC08091160135
:1011C000813009F051C020910D0130910E016091E4
:1011D0001101709112018091130190911401232B40
:1011E00041F521E0F801408129DC80910F019091C7
:1011F000100101979093100180930F01892BE1F169
:101200008091110190911201A0911301B0911401EC
:101210000196A11DB11D8093110190931201A0931D
:101220001301B09314010F5F1F4F0C151D0531F60C
:1012300040C020E0F801408101DC80910B01815029
:1012400080930B018111D1CF609111017091120136
:101250008091130190911401F801408142DC80914A
:101260000D0180930B01C1CFF801608180911101C4
:10127000909112019FDCB9CF1092160180910C0160
:1012800081FF15C080910B0190E020910D013091FC
:101290000E018217930759F06091110170911201AC
:1012A0008091130190911401F80140811ADCC1E092
:1012B000A7CF809116018730F9F4F70180818093E0
:1012C0000201818180930301828180930401C7D050
:1012D0008091020190910301009709F46BCF609116
:1012E0000401262F2873462F44706370BBD062CF51
:1012F0008FEF03C080E001C08C2FCF911F910F9121
:10130000FF90EF90DF90CF9008952091650130918C
:101310006401231B203829F48091C10085FF1BC084
:101320000895FC012781DC01E0916501EF77F0E091
:101330008D91EC59FE4F8283809165018F5F809380
:101340006501215089F78091650190916401891BA5
:10135000803851F3E1CF8091C10080628093C10059
:10136000089512BC11BC9091E7018091E601981795
:10137000E1F081B592B50797C1F081B592B59C01B6
:101380002F5F3F4F32BD21BDE091E601EF77F0E0E6
:10139000EA51FE4F2281FC01E95EFE4F20838091DD
:1013A000E6018F5F8093E601DECF81B592B5809331
:1013B0001E0168E087E191E05AC71F920F920FB6B5
:1013C0000F9211248F939F93EF93FF938091E701E6
:1013D0009091E601891B803869F0E091E701EF7791
:1013E000F0E080B5EA51FE4F82838091E7018F5F84
:1013F0008093E701FF91EF919F918F910F900FBE26
:101400000F901F9018950090C60000924000D5CF15
:101410001F920F920FB60F9211248F939F93EF9309
:10142000FF939091650180916401981771F0E091AC
:101430006401EF77F0E0EC59FE4F82818093C600A3
:10144000809164018F5F80936401FF91EF919F9180
:101450008F910F900FBE0F901F901895D9CF1092BB
:10146000C10008951092C1001092650110926401AC
:101470001092E7011092E60132E03093C000613033
:1014800021F0623021F430E303C030E201C030E0EB
:10149000443009F43860203151F020F4283051F400
:1014A000326008C0283129F0203219F003C03460BE
:1014B00001C036603093C2008093C4009093C50091
:1014C00088E98093C100089583E085BD8FEF84B9DA
:1014D0008FE195DB14B8389A2DD87894EAD68091AC
:0E14E000320184FFFBCF3DDFF9CFF894FFCF40
:0A14EE00FF5A00000000410000005A
:00000001FF
