:1000000044C09BC15DC05CC05BC05AC059C058C0F1
:1000100057C056C055C054C053C052C051C050C044
:100020004FC04EC04DC009021200010100A01909C5
:1000300004000000000000000E03550053004200C1
:100040006100730070001C037700770077002E00BA
:10005000660069007300630068006C002E00640095
:1000600065000403090412034D00530046005400C8
:100070003100300030005D0012010002FF00000876
:10008000C016DC0508010102030111241FBECFE5E3
:10009000D4E0DEBFCDBF10E0A0E6B0E0EAEBFFE0C9
:1000A00002C005900D92AA38B107D9F720E0AAE85E
:1000B000B0E001C01D92A03DB207E1F770D77BC749
:1000C0009FCFCF93DF936091B000635067FDA8C0CE
:1000D0008091AD00CCE0D0E0C81BD109CC54DF4FFB
:1000E0008091AC008D3209F08AC0683009F096C06A
:1000F00083EC80939F008AE5809361001092AB00AF
:100100008881807619F0CE01BED466C08A811092B3
:10011000A8009981911106C01092A90028EA30E048
:1001200082E055C0953019F48093B10042C09630FA
:10013000D1F59B81913019F488E790E004C09230AA
:1001400041F486E290E09093AF008093AE0082E1AC
:1001500026C0933001F5811108C082E690E09093AB
:10016000AF008093AE0084E01AC0813041F486E491
:1001700090E09093AF008093AE008CE110C082308D
:1001800041F488E390E09093AF008093AE008EE05E
:1001900006C0833019F0CE0165D401C080E090E440
:1001A0009093AB0019C0983079F0993031F4809376
:1001B000B30028EA30E080E00AC081E09A3009F01C
:1001C00080E028EA30E003C023EB30E081E03093A8
:1001D000AF002093AE0009C08F3F39F4988197FD9E
:1001E0008E8190E89093AB0007C09F81911104C06D
:1001F0009E81981708F4892F809360000FC080912A
:10020000AB0087FF0BC0CE0109D68F3F21F48EE1F2
:100210008093610003C08111109260001092B000C1
:100220008091610084FF55C0809160008F3F09F488
:1002300050C0C82F893008F0C8E08C1B8093600044
:1002400090919F0088E8892780939F00CC2309F430
:100250004BC02091AB0027FF08C06C2F80EA90E0D4
:1002600071D5C82F893078F523C08091AE00909168
:10027000AF0026FF0AC0A0EAB0E0FC012C2F3491A9
:100280003D9331962150D9F708C0DC01E0EAF0E057
:100290002C2F3D9131932150E1F72FEF2C0F30E0BF
:1002A0002F5F3F4F820F931F9093AF008093AE005C
:1002B0006C2F80EA90E03DD0CC5FCC3041F08FEFE6
:1002C0008093600004C08FEF80936000CEE1C09304
:1002D000610084E196B3937069F48150D9F710926C
:1002E000B1001092AA0006C060E080EA90E021D040
:1002F000C4E0E5CFDF91CF91089585B7826085BFD7
:100300008BB780648BBF0895A82FB92F80E090E051
:1003100041E050EA609530E009C02D918227979521
:10032000879510F084279527305EC8F36F5FA8F398
:100330000895EADF8D939D930895CF93CFB7CF9320
:10034000C395B09BE9F7B09B09C0B09B07C0B09BB9
:1003500005C0B09B03C0B09B01C0A1C0DF93C0919A
:10036000AD00DD27CC54DF4FB09B02C0DF91EBCF57
:100370002F930F931F9306B32FEF00FB20F94F939A
:100380003F9316B34FEF012700FB21F93BE031C04B
:100390004E7F012F16B3216028C0102F4D7F2260A1
:1003A000000006B329C04B7F2460012F000016B364
:1003B0002BC016B3477F28602AC04F7E06B320614A
:1003C0002CC04F7D16B320622FC04F7B06B3206434
:1003D00032C0422706B349934FEF0000102710FBAD
:1003E00020F916B31370C9F1297F91F2012700FBA0
:1003F00021F906B3237F89F2315058F1102710FB01
:1004000022F916B3277E79F2012700FB23F92F7C0E
:1004100081F206B3102710FB24F92F7971F200C086
:1004200016B3012700FB25F92F7359F200C006B35C
:10043000102710FB26F9223040F200C016B3012726
:1004400000FB27F9243028F64F77206816B3000008
:10045000F9CF10E41ABF002717C03B503195C31BDA
:10046000D04010E41ABF0881033CE9F00B34D9F006
:100470002091AA001981110F1213EDCF093641F115
:100480000D3211F0013E39F70093B2003F914F91C8
:100490001F910F912F91DF91CAB7C6FD51CFCF9118
:1004A000CFBFCF9118952091B200222379F31091FC
:1004B000B000112311F5343012F13093B0002093C5
:1004C000AC001091AD003BE0311B3093AD0017C084
:1004D0000091B00001308CF40AE53091610034FDE8
:1004E00010C000936100CFE9D0E00FC02795A8F4B9
:1004F0005150A9F4220F0000F9CF4AE503C042EDA4
:1005000001C0432FC4E1D0E032E017B31360C09ABA
:1005100017BB08B320E413E05F93012756E008BB44
:10052000279520F4515021F4220FF9CF012756E0EE
:1005300000003B5A08BBD0F2279528F4515029F40B
:10054000220F0000F9CF012756E0279508BB20F4C1
:10055000515021F4220FF9CF012756E0299133237E
:1005600008BB21F60C7F1091B100110FC651D0408D
:1005700008BB11F01093AA0010E41ABF016017B372
:100580001C7F402F4C7F5F9100C000C008BB17BB91
:1005900048BB7CCF8FB9779BFECF8FB10895DC012C
:1005A000CB0121E1B695A795979587952A95D1F727
:1005B0002091CC002817D9F08093CC00E091CA009C
:1005C000F091CB008DE40995E091CA00F091CB0049
:1005D00080E00995E091CA00F091CB008091CC00B9
:1005E0000995E091CA00F091CB0080E0099408954C
:1005F000882319F0883020F101C08CE02AEC32E029
:100600003093CB002093CA001EB891E09093CD00A8
:100610008A3081F028F4883081F0893061F006C09A
:100620008B3031F08D3011F41DB8089581E08EB912
:1006300081E004C09EB982E001C083E08DB90895D5
:100640002AE333E03093CB002093CA0027E030E068
:10065000281B310983E001C0880F2A95EAF78093AF
:10066000CD00089522B79091CD0082B7821B8917E3
:10067000E0F308951F93CF93DF93182FD8E0C0E0E5
:1006800017FF02C0C39A01C0C398110FCC0FB499D1
:10069000CF5FC59AE7DFC598E5DFD15089F78C2F8A
:1006A000DF91CF911F910895BD9ABB9ABA9AC49ACF
:1006B000C29A81E066D1C2988FEF8093CC000895F2
:1006C00087B3837D87BBC498C3981DB810928A00F6
:1006D00008950F931F93CF93DF9380918A00811128
:1006E0002EC08CE080938A002AC0C091CA00D091AD
:1006F000CB0082E0CA3CD80719F48DB180658DB972
:1007000013E0C29A81E03DD1C2988EE33AD18CEADF
:10071000FE01099583E5FE01099580E0FE0109953A
:10072000082F80E0FE010995033579F0115049F753
:100730001DB880918A00815080938A0059DF809192
:100740008A008111D2CF81E001C080E0DF91CF919A
:100750001F910F910895CF92DF92EF92FF926B015C
:100760007C011DDF8C2D8170880F880F880FE09130
:10077000CA00F091CB0080620995D701C60129E03B
:10078000B695A795979587952A95D1F7E091CA00D8
:10079000F091CB000995D701C601B695A79597951D
:1007A0008795E091CA00F091CB000995E091CA00CD
:1007B000F091CB0080E0FF90EF90DF90CF90099414
:1007C000CF92DF92EF92FF92CF93DF936B017C0188
:1007D000C42FD22FE4DE8C2D8170880F880F880FF4
:1007E000E091CA00F091CB0080640995D701C60161
:1007F00029E0B695A795979587952A95D1F7E09129
:10080000CA00F091CB000995D701C601B695A7950E
:1008100097958795E091CA00F091CB000995E091FA
:10082000CA00F091CB008C2F0995DD2321F0CF3742
:1008300021F48FE0A6D080E00FC0D2B7CEE1C7018F
:10084000B60189DF8F37B9F782B78D1B8D33B8F3C7
:10085000D2B7C150A1F781E0DF91CF91FF90EF9027
:10086000DF90CF900895CF92DF92EF92FF92CF93D7
:10087000DF936B017C01C42F92DEE091CA00F091FE
:10088000CB008CE40995D701C60129E0B695A79560
:10089000979587952A95D1F7E091CA00F091CB0002
:1008A0000995D701C601B695A79597958795E091CB
:1008B000CA00F091CB000995E091CA00F091CB00FD
:1008C00080E00995CF3F19F48FE05BD010C0D2B71C
:1008D000CEE1C701B6013FDF8F3F49F482B78D1BE0
:1008E0008D33B8F3D2B7C150A1F781E001C080E0E9
:1008F000DF91CF91FF90EF90DF90CF900895CF934D
:10090000DF93EC01E091CA00F091CB0080EA0995F9
:10091000E091CA00F091CB008D2F0995E091CA00BB
:10092000F091CB008C2F0995E091CA00F091CB009B
:1009300080E0DF91CF9109941F93CF93DF93D82F5D
:10094000192FC62FE091CA00F091CB0080EC0995D9
:10095000E091CA00F091CB00812F0995E091CA0087
:10096000F091CB008D2F0995E091CA00F091CB005A
:100970008C2F09958EE105D080E0DF91CF911F91FA
:10098000089522B792B7921B9C33E0F38150C9F7C8
:100990000895BD9ABB98C39A50E217D05A95E9F7CB
:1009A0000895AC0188E605D0842F03D089E601D0F4
:1009B000852F0FD028E030E0382780FB869506D0C1
:1009C0002A95D1F730FB02D000D06894BB98C39A27
:1009D00016F0C398BB9AE091CE00F091CF0031970A
:1009E000F0F7C59AE6B3E3FBE091CE00F091CF00BB
:1009F0003197F0F7C598089520ECE7DF46F42A9583
:100A0000E1F780E02AE1E5DF2A95E9F7DECF28E08B
:100A100030E0DBDF869587F938272A95D1F7D5DFD7
:100A200027F9322772F3D1DFD0CFDB01742FB9DF82
:100A300084E2BFDFE1DF8D937A95D1F70895DB0182
:100A4000742FAFDF83EFB5DF8DE1B3DF84E6B1DF75
:100A50008D91AFDF82E7ADDFCFDF8078D9F77A9570
:100A600089F70895FC012381233059F482818E3E59
:100A700041F486E690E09093AF008093AE0082E16F
:100A8000089580E00895CF93DF93EC018981813050
:100A900041F480918A00ACDD10929500A19A04DEA9
:100AA00045C1823011F40CDEF3C0833011F5E091C2
:100AB000CA00F091CB008A81099580939700E0915C
:100AC000CA00F091CB008B81099580939800E0914A
:100AD000CA00F091CB008C81099580939900E09138
:100AE000CA00F091CB008D81099580939A0084E033
:100AF0001EC18430D1F48091950081110EC08A818D
:100B00009B81092E000CAA0BBB0B80939100909344
:100B10009200A0939300B09394008E819F81909354
:100B2000900080938F0082E0F0C08730D1F48091F4
:100B3000950081110EC08A819B81092E000CAA0BA1
:100B4000BB0B8093910090939200A0939300B0937D
:100B500094008E819F819093900080938F0083E01A
:100B6000D4C0853011F4B5DD98C0863079F5809118
:100B7000950081110EC08A819B81092E000CAA0B61
:100B8000BB0B8093910090939200A0939300B0933D
:100B900094003C812D81822F8F7080938C00822F56
:100BA000807F40E1849FC0011124830F911D9093A9
:100BB0008E0080938D0020FD80938B008E819F811D
:100BC0009093900080938F0081E09FC0883001F562
:100BD0008091950081110EC08A819B81092E000CA5
:100BE000AA0BBB0B8093910090939200A09393006B
:100BF000B093940010928E0010928D0010928C0091
:100C00008E819F819093900080938F0084E07DC0BF
:100C1000893081F481E0809395008A819B81AC8149
:100C2000BD818093910090939200A0939300B09324
:100C300094007CC08A3031F48A8180938A001092BB
:100C400097002DC08B3081F48A819B819093CF00D7
:100C50008093CE00C29ABA9A83E093DEC298A19A9A
:100C600080E18FDE96DE62C08C30A1F480ECA1DEE4
:100C700080E09FDE8AE085DEC29A85E082DEC2984F
:100C800085E07FDE87B3837D87BB88B3837D88BBA8
:100C9000A1984CC08D3029F4AFDE8093970081E09D
:100CA00046C08E3019F48A8184DE40C08F30B1F4A2
:100CB0008A819B81092E000CAA0BBB0B80939100AB
:100CC00090939200A0939300B09394008E819F81A3
:100CD0009093900080938F0085E017C08031C9F415
:100CE0008A819B81092E000CAA0BBB0B809391007B
:100CF00090939200A0939300B09394008E819F8173
:100D00009093900080938F0086E0809396008FEF01
:100D10000EC08D3559F48C81843081F482E690E0E8
:100D20009093AF008093AE0088E209C080E027E98D
:100D300030E03093AF002093AE0001C080E0DF913F
:100D4000CF910895EF92FF920F931F93CF93C62FE9
:100D5000209196003EEF320F323028F48C017C0156
:100D6000E60EF11C43C0253009F04FC0462FBC01F0
:100D7000809191009091920058DE80919100909125
:100D80009200A0919300B09194008C0F911DA11D31
:100D9000B11D8093910090939200A0939300B09323
:100DA000940035C080919600823021F560919100C9
:100DB000709192008091930090919400CCDCF801A6
:100DC00080838091910090919200A0919300B091C6
:100DD00094000196A11DB11D809391009093920003
:100DE000A0939300B09394000F5F1F4F0E151F0543
:100DF000C9F606C0809191009091920080DDDFCF0E
:100E0000C83028F41092960002C08FEF01C08C2FDA
:100E1000CF911F910F91FF90EF900895EF92FF9265
:100E20001F93CF93DF93162F20919600213031F43A
:100E3000EC017C01E10EF11C10E066C02430C1F32E
:100E4000263009F0A3C0462FBC01809191009091FB
:100E50009200F5DD8091910090919200A091930015
:100E6000B0919400810F911DA11DB11D809391003F
:100E700090939200A0939300B093940080918F0080
:100E800090919000811B91099093900080938F0026
:100E9000892B09F07DC01092960081E07AC0809184
:100EA0009600813009F04DC020918D0030918E0068
:100EB00060919100709192008091930090919400C4
:100EC000232B31F521E048817BDC80918F009091CC
:100ED000900001979093900080938F00892BC1F12F
:100EE0008091910090919200A0919300B091940014
:100EF0000196A11DB11D8093910090939200A09343
:100F00009300B09394002196CE15DF0541F63CC0C6
:100F100020E0488155DC80918B00815080938B00CC
:100F20008111D3CF609191007091920080919300D4
:100F300090919400488197DC80918D0080938B0084
:100F4000C4CF68818091910090919200F5DCBDCF73
:100F50001092960080918C0081FF14C080918B00CC
:100F600090E020918D0030918E008217930751F010
:100F70006091910070919200809193009091940003
:100F8000488171DC11E0ACCF812F03C08FEF01C02D
:100F900080E0DF91CF911F91FF90EF90089583E063
:100FA00083BF8FEF87BB8FE1ECDC17BAA09AA5D97E
:0A0FB000789487D8FECFF894FFCFA5
:100FBA00FF5A2800000000010400010000000000A0
:100FCA000000000157494E5553420000000000003E
:0A0FDA00000000000000000000000D
:00000001FF
