:10000000C9C077C2E2C0E1C0E0C0DFC0DEC0DDC071
:10001000DCC0DBC0DAC059C98BC9D7C0D6C0D5C0D7
:10002000D4C0D3C0D2C00E035500530042006100BB
:10003000730070001C037700770077002E006600C5
:1000400069007300630068006C002E0064006500A6
:10005000040309040600FF0901A101750815012622
:10006000FF00950809018102950809019102C08EDF
:1000700000000000010500010084000000010000F4
:1000800000280044006500760069006300650049AF
:10009000006E007400650072006600610063006518
:1000A00000470055004900440000004E0000007B5E
:1000B000004300430034004200430030003300316D
:1000C000002D0046003600310041002D0034004371
:1000D00000320042002D0042004200420032002D5A
:1000E0000037003900350038003700320042003355
:1000F0000038004600360036007D00000040000059
:100100000000010400020000000000000000015790
:10011000494E55534200000000000000000000005E
:1001200000000000000101000000000000000000CD
:100130000000000000000000000000000012004D60
:10014000005300460054003100300030005D0009CB
:10015000023200020100807D0904000000FF00005F
:10016000020904010002030000020921010100014B
:10017000221B000705810308000A07050103080088
:100180000A1201000200000008C016DC0509010186
:100190000203010011241FBECFE5D4E0DEBFCDBFB6
:1001A00010E0A0E6B0E0E8EBF3E102C005900D92AC
:1001B000A236B107D9F721E0A2E6B0E001C01D9256
:1001C000A03CB207E1F7E5D8F5C81ACFCF93C62F08
:1001D00020918A0024FF07C030918B0028E8232754
:1001E00020938B0003C02AE520938A002C2FFC016A
:1001F000ACE8B0E081918D9321501216DCF36C2FA6
:100200008CE890E072D1CC5FC0938A00CF910895C2
:10021000CF93DF9360919C00635067FDCDC08091C8
:100220009900CCE0D0E0C81BD109C056DF4F8091C7
:100230009800803118F4CE01DBD7BCC08D3209F0B4
:10024000AAC0683009F0B6C083EC80937F008AE5CD
:1002500080936100109297008881807619F0CE011A
:10026000FED486C09A81109288008981811106C0CF
:100270001092890028E830E082E075C0853019F4DA
:1002800090939D006DC0863009F054C08B81813001
:1002900041F481E891E090939B0080939A0082E181
:1002A00045C0823041F48FE491E090939B008093AD
:1002B0009A0082E33BC0833009F5911108C080E5C4
:1002C00090E090939B0080939A0084E02FC091303F
:1002D00041F484E390E090939B0080939A008CE13A
:1002E00025C0923041F486E290E090939B00809389
:1002F0009A008EE01BC09330A9F417C0813241F4FC
:1003000081E691E090939B0080939A0089E00EC073
:10031000823241F484E590E090939B0080939A00B0
:100320008BE104C0CE018AD401C080E090E49093B8
:1003300097001EC0883069F0893019F490939F00AF
:100340000FC08A3049F08B3059F48BE480938B00D6
:1003500007C02FE930E002C028E830E081E003C0A8
:1003600028E830E080E030939B0020939A0009C099
:100370008F3F39F4988197FD8E8190E89093970094
:1003800007C09F81911104C09E81981708F4892F9E
:10039000809360000FC08091970087FF0BC0CE0153
:1003A00066D68F3F21F48EE18093610003C08111F6
:1003B0001092600010929C008091610084FF55C0F3
:1003C000809160008F3F09F450C0C82F893008F039
:1003D000C8E08C1B8093600090917F0088E889279B
:1003E00080937F00CC2309F44BC02091970027FF16
:1003F00008C06C2F80E890E0CED5C82F893078F502
:1004000023C080919A0090919B0026FF0AC0A0E82B
:10041000B0E0FC012C2F34913D9331962150D9F757
:1004200008C0DC01E0E8F0E02C2F3D913193215031
:10043000E1F72FEF2C0F30E02F5F3F4F820F931F1C
:1004400090939B0080939A006C2F80E890E04DD0B1
:10045000CC5FCC3041F08FEF8093600004C08FEF11
:1004600080936000CEE1C093610084E196B3937005
:1004700069F48150D9F710929D001092960006C041
:1004800060E080E890E031D0C4E0E5CFDF91CF912B
:10049000089585B7826085BF8BB780648BBFEAE81B
:1004A000F0E08BE481838AE580830895DC018FEF9F
:1004B0009FEF332715C02D912827722F22952727CC
:1004C000822F269526952827239522703217779517
:1004D0002795822F8927972F76952795972782270B
:1004E000615048F7809590950895E0DF8D939D9336
:1004F0000895CF93CFB7CF93C395B09BE9F7B09B47
:1005000009C0B09B07C0B09B05C0B09B03C0B09BA7
:1005100001C0A6C0DF93C0919900DD27C056DF4F10
:10052000B09B02C0DF91EBCF2F930F931F9306B3C5
:100530002FEF00FB20F94F933F9316B34FEF0127A6
:1005400000FB21F93BE031C04E7F012F16B3216043
:1005500028C0102F4D7F2260000006B329C04B7FBA
:100560002460012F000016B32BC016B3477F28600C
:100570002AC04F7E06B320612CC04F7D16B3206287
:100580002FC04F7B06B3206432C0422706B3499385
:100590004FEF0000102710FB20F916B31370C9F1BC
:1005A000297F91F2012700FB21F906B3237F89F20D
:1005B000315058F1102710FB22F916B3277E79F23B
:1005C000012700FB23F92F7C81F206B3102710FBD3
:1005D00024F92F7971F200C016B3012700FB25F929
:1005E0002F7359F200C006B3102710FB26F92230F2
:1005F00040F200C016B3012700FB27F9243028F68B
:100600004F77206816B30000F9CF10E41ABF002717
:100610001CC03B503195C31BD04010E41ABF088169
:10062000033C11F10B3401F1209196001981110F57
:100630001213EDCF4A81441F093659F10D3211F0E2
:10064000013E29F74F7009F0042F00939E003F915F
:100650004F911F910F912F91DF91CAB7C6FD4CCFDB
:10066000CF91CFBFCF91189520919E00222379F38F
:1006700010919C00112369F534306AF130939C008D
:1006800020939800109199003BE0311B3093990022
:1006900022C000919C000130E4F40AE54F7049F457
:1006A0003091610034FD19C000936100CFE7D0E0C4
:1006B00018C030918A0034FD10C000938A00CBE846
:1006C000D0E00FC02795A8F45150A9F4220F0000E4
:1006D000F9CF4AE503C042ED01C0432FC4E1D0E0A9
:1006E00032E017B31360C09A17BB08B320E413E0DD
:1006F0005F93012756E008BB279520F4515021F461
:10070000220FF9CF012756E000003B5A08BBD0F278
:10071000279528F4515029F4220F0000F9CF012722
:1007200056E0279508BB20F4515021F4220FF9CF51
:10073000012756E02991332308BB21F60C7F109145
:100740009D00110FC651D04008BB11F010939600C8
:1007500010E41ABF016017B31C7F402F4C7F5F91DC
:1007600000C000C008BB17BB48BB71CF8FB9779BD7
:10077000FECF8FB10895DC01CB0121E1B695A7959D
:10078000979587952A95D1F72091B8002817D9F029
:100790008093B800E091B600F091B7008DE4099520
:1007A000E091B600F091B70080E00995E091B600C5
:1007B000F091B7008091B8000995E091B600F091F2
:1007C000B70080E009940895882319F0883020F15B
:1007D00001C08CE026EB33E03093B7002093B600E5
:1007E0001EB891E09093B9008A3081F028F48830E7
:1007F00081F0893061F006C08B3031F08D3011F41A
:100800001DB8089581E08EB981E004C09EB982E0F0
:1008100001C083E08DB9089526E234E03093B7003B
:100820002093B60027E030E0281B310983E001C0A7
:10083000880F2A95EAF78093B900089522B790911E
:10084000B90082B7821B8917E0F308951F93CF93F5
:10085000DF93182FD8E0C0E017FF02C0C39A01C091
:10086000C398110FCC0FB499CF5FC59AE7DFC59835
:10087000E5DFD15089F78C2FDF91CF911F9108953B
:10088000BD9ABB9ABA9AC49AC29A81E066D1C298BC
:100890008FEF8093B800089587B3837D87BBC4989A
:1008A000C3981DB81092620008950F931F93CF93C1
:1008B000DF938091620081112EC08CE080936200F2
:1008C0002AC0C091B600D091B70083E0C63BD807DC
:1008D00019F48DB180658DB913E0C29A81E03DD1E4
:1008E000C2988EE33AD18CEAFE01099583E5FE01B8
:1008F000099580E0FE010995082F80E0FE01099529
:10090000033579F0115049F71DB88091620081508C
:100910008093620059DF809162008111D2CF81E023
:1009200001C080E0DF91CF911F910F910895CF9288
:10093000DF92EF92FF926B017C011DDF8C2D8170A5
:10094000880F880F880FE091B600F091B7008062A1
:100950000995D701C60129E0B695A7959795879582
:100960002A95D1F7E091B600F091B7000995D7012B
:10097000C601B695A79597958795E091B600F09139
:10098000B7000995E091B600F091B70080E0FF90C4
:10099000EF90DF90CF900994CF92DF92EF92FF9289
:1009A000CF93DF936B017C01C42FD22FE4DE8C2D1B
:1009B0008170880F880F880FE091B600F091B70022
:1009C00080640995D701C60129E0B695A79597954A
:1009D00087952A95D1F7E091B600F091B700099577
:1009E000D701C601B695A79597958795E091B60072
:1009F000F091B7000995E091B600F091B7008C2F07
:100A00000995DD2321F0CF3721F48FE0A6D080E0D7
:100A10000FC0D2B7CEE1C701B60189DF8F37B9F772
:100A200082B78D1B8D33B8F3D2B7C150A1F781E0E7
:100A3000DF91CF91FF90EF90DF90CF900895CF920C
:100A4000DF92EF92FF92CF93DF936B017C01C42F73
:100A500092DEE091B600F091B7008CE40995D701E1
:100A6000C60129E0B695A795979587952A95D1F760
:100A7000E091B600F091B7000995D701C601B6958F
:100A8000A79597958795E091B600F091B7000995E5
:100A9000E091B600F091B70080E00995CF3F19F4DE
:100AA0008FE05BD010C0D2B7CEE1C701B6013FDF07
:100AB0008F3F49F482B78D1B8D33B8F3D2B7C15045
:100AC000A1F781E001C080E0DF91CF91FF90EF902E
:100AD000DF90CF900895CF93DF93EC01E091B600C3
:100AE000F091B70080EA0995E091B600F091B70067
:100AF0008D2F0995E091B600F091B7008C2F0995E4
:100B0000E091B600F091B70080E0DF91CF910994B9
:100B10001F93CF93DF93D82F192FC62FE091B600E4
:100B2000F091B70080EC0995E091B600F091B70024
:100B3000812F0995E091B600F091B7008D2F0995AE
:100B4000E091B600F091B7008C2F09958EE105D0A9
:100B500080E0DF91CF911F91089522B792B7921B49
:100B60009C33E0F38150C9F70895BD9ABB98C39AAE
:100B700050E217D05A95E9F70895AC0188E605D000
:100B8000842F03D089E601D0852F0FD028E030E0F4
:100B9000382780FB869506D02A95D1F730FB02D006
:100BA00000D06894BB98C39A16F0C398BB9AE091A2
:100BB000BA00F091BB003197F0F7C59AE6B3E3FBBA
:100BC000E091BA00F091BB003197F0F7C598089515
:100BD00020ECE7DF46F42A95E1F780E02AE1E5DF43
:100BE0002A95E9F7DECF28E030E0DBDF869587F94C
:100BF00038272A95D1F7D5DF27F9322772F3D1DFCD
:100C0000D0CFDB01742FB9DF84E2BFDFE1DF8D934A
:100C10007A95D1F70895DB01742FAFDF83EFB5DF4D
:100C20008DE1B3DF84E6B1DF8D91AFDF82E7ADDF29
:100C3000CFDF8078D9F77A9589F70895FC01238171
:100C4000233059F482818E3E41F48DE391E09093FC
:100C50009B0080939A0082E1089580E00895CF93ED
:100C6000DF93EC019881892F8076803209F48FC15F
:100C70008981813049F45FD380916200A5DD1092B3
:100C80006D00A19AFDDD7BC1823011F405DEF2C05A
:100C9000833009F5E091B600F091B7008A8109959B
:100CA00080937700E091B600F091B7008B810995B1
:100CB00080937800E091B600F091B7008C8109959F
:100CC00080937900E091B600F091B7008D8109958D
:100CD00080937A001BC18430D1F480916D00811122
:100CE0000EC08A819B81092E000CAA0BBB0B80933E
:100CF000690090936A00A0936B00B0936C008E81A2
:100D00009F81909368008093670082E0F0C08730F5
:100D1000D1F480916D0081110EC08A819B81092ED2
:100D2000000CAA0BBB0B8093690090936A00A09300
:100D30006B00B0936C008E819F81909368008093CC
:100D4000670083E0D4C0853011F4AFDD98C08630F1
:100D500079F580916D0081110EC08A819B81092EE9
:100D6000000CAA0BBB0B8093690090936A00A093C0
:100D70006B00B0936C003C812D81822F8F7080932B
:100D80006400822F807F40E1849FC0011124830F83
:100D9000911D909366008093650020FD8093630011
:100DA0008E819F81909368008093670081E09FC04F
:100DB000883001F580916D0081110EC08A819B8180
:100DC000092E000CAA0BBB0B8093690090936A005C
:100DD000A0936B00B0936C001092660010926500B7
:100DE000109264008E819F819093680080936700C9
:100DF00084E07DC0893081F481E080936D008A8138
:100E00009B81AC81BD818093690090936A00A0931F
:100E10006B00B0936C00B3C08A3031F48A81809348
:100E20006200109277002DC08B3081F48A819B8103
:100E30009093BB008093BA00C29ABA9A83E08DDE89
:100E4000C298A19A80E189DE90DE99C08C30A1F42D
:100E500080EC9BDE80E099DE8AE07FDEC29A85E04E
:100E60007CDEC29885E079DE87B3837D87BB88B35B
:100E7000837D88BBA19883C08D3029F4A9DE80933F
:100E8000770081E07DC08E3019F48A817EDE77C0E4
:100E90008F30B1F48A819B81092E000CAA0BBB0B09
:100EA0008093690090936A00A0936B00B0936C00EC
:100EB0008E819F81909368008093670085E017C0C2
:100EC0008031C9F48A819B81092E000CAA0BBB0BCF
:100ED0008093690090936A00A0936B00B0936C00BC
:100EE0008E819F81909368008093670086E0809355
:100EF0006E008FEF45C08F3759F481E480937700FF
:100F0000109278001092790010927A0084E038C034
:100F10008C3351F46C81262F2873462F44706370F4
:100F20008A819B810AD22BC08F3311F404D227C04F
:100F3000903C81F48D3519F58C81843001F580E485
:100F4000809397008DEF90E090939B0080939A00A0
:100F500080E41EC0913C99F48D3589F48C818530F4
:100F600071F480E4809397008A81811108C08FE634
:100F700090E090939B0080939A008EE809C080E0F7
:100F800027E730E030939B0020939A0001C080E077
:100F9000DF91CF910895EF92FF920F931F93CF931C
:100FA000C62F20916E003EEF320F323028F48C01B4
:100FB0007C01E60EF11C43C0253009F04FC0462FDE
:100FC000BC018091690090916A001BDE80916900EC
:100FD00090916A00A0916B00B0916C008C0F911DF4
:100FE000A11DB11D8093690090936A00A0936B00CE
:100FF000B0936C0035C080916E00823021F5609115
:10100000690070916A0080916B0090916C008FDC98
:10101000F80180838091690090916A00A0916B0033
:10102000B0916C000196A11DB11D80936900909351
:101030006A00A0936B00B0936C000F5F1F4F0E15FA
:101040001F05C9F606C08091690090916A0043DDD2
:10105000DFCFC83028F410926E0002C08FEF01C0BD
:101060008C2FCF911F910F91FF90EF900895EF92E9
:10107000FF921F93CF93DF93162F20916E002130A4
:1010800031F4EC017C01E10EF11C10E066C024306B
:10109000C1F3263009F0A3C0462FBC01809169003E
:1010A00090916A00B8DD8091690090916A00A091EA
:1010B0006B00B0916C00810F911DA11DB11D80933B
:1010C000690090936A00A0936B00B0936C008091CC
:1010D000670090916800811B91099093680080934C
:1010E0006700892B09F07DC010926E0081E07AC004
:1010F00080916E00813009F04DC0209165003091E3
:1011000066006091690070916A0080916B00909117
:101110006C00232B31F521E048813EDC8091670093
:101120009091680001979093680080936700892BE5
:10113000C1F18091690090916A00A0916B00B0911B
:101140006C000196A11DB11D8093690090936A0007
:10115000A0936B00B0936C002196CE15DF0541F68D
:101160003CC020E0488118DC80916300815080936E
:1011700063008111D3CF6091690070916A00809102
:101180006B0090916C0048815ADC809165008093DF
:101190006300C4CF68818091690090916A00B8DCD7
:1011A000BDCF10926E008091640081FF14C08091C9
:1011B000630090E0209165003091660082179307EC
:1011C00051F06091690070916A0080916B0090917C
:1011D0006C00488134DC11E0ACCF812F03C08FEF6D
:1011E00001C080E0DF91CF911F91FF90EF900895B3
:1011F000DC016623B1F09091BD008091BC0061508C
:10120000981B903871F0E091BD00EF77F0E08D9180
:10121000E454FF4F82839091BD009F5F9093BD0087
:10122000E8CF559A08951FBA1EBA90913F01809158
:101230003E019817E1F08EB39FB30797C1F08EB3CC
:101240009FB39C012F5F3F4F3FBB2EBBE0913E0100
:10125000EF77F0E0E25CFE4F2281FC01E159FF4FA5
:10126000208380913E018F5F80933E01DECF8EB35D
:101270009FB38093760068E08FE690E0A7C71F9247
:101280000F920FB60F9211248F939F93EF93FF93BA
:1012900080913F0190913E01891B803869F0E09177
:1012A0003F01EF77F0E08DB3E25CFE4F82838091E7
:1012B0003F018F5F80933F01FF91EF919F918F914D
:1012C0000F900FBE0F901F9018950CB00DBAD7CF8E
:1012D0001F920F920FB60F9211248F939F93EF934B
:1012E000FF93CF93DF931F92CDB7DEB79091BD00F0
:1012F0008091BC00981781F0E091BC00EF77F0E09E
:10130000E454FF4F828189838091BC008F5F80937A
:10131000BC0089818CB9559A0F90DF91CF91FF91D4
:10132000EF919F918F910F900FBE0F901F90189586
:1013300055987894CDCF1AB808951AB81092BD0078
:101340001092BC0010923F0110923E0132E03BB976
:10135000613021F0623021F430E303C030E201C09B
:1013600030E0443009F43860203151F020F4283066
:1013700051F4326008C0283129F0203219F003C03E
:10138000346001C0366030BD89B990BD88E98AB942
:10139000089583E083BF8FEF87BB8FE1DEDB17BA51
:1013A000A09A77D8789434D780918A0084FFFBCFB5
:0813B0003ADFF9CFF894FFCFFA
:0213B800FF5ADA
:00000001FF
