:100000003BC08EC154C053C052C051C050C04FC03D
:100010004EC04DC04CC04BC04AC049C048C047C08C
:1000200046C045C044C009021200010100A01909E0
:10003000040000000000000012011001FF00000891
:10004000C016DC050601010200010E035500530035
:1000500042006100730070001C0377007700770096
:100060002E00660069007300630068006C002E00BB
:10007000640065000403090411241FBECFE5D4E029
:10008000DEBFCDBF10E0A0E6B0E0E8ECFFE002C0CC
:1000900005900D92A236B107D9F720E0A2E6B0E0B4
:1000A00001C01D92A83AB207E1F77AD78BC7A8CF53
:1000B000CF93DF9360918800635067FDA4C0809167
:1000C0008500CCE0D0E0C81BD109C457DF4F809138
:1000D00084008D3209F086C0683009F092C083EC4C
:1000E000809377008AE58093610010928300888175
:1000F000807631F0CE01C7D48F3F09F462C068C06A
:100100008A81109280009981911106C0109281001D
:1001100020E830E082E050C0953019F480938900E7
:100120003DC09630A9F59B81913019F488E390E0A9
:1001300004C0923041F486E290E09093870080936F
:10014000860082E121C09330F1F4811108C084E778
:1001500090E0909387008093860084E015C0813002
:1001600041F488E590E090938700809386008CE1CD
:100170000BC0823041F48AE490E090938700809332
:1001800086008EE001C080E090E49093830020C060
:10019000983079F0993031F480938B0020E830E08A
:1001A00080E00AC081E09A3009F080E020E830E089
:1001B00003C02BE830E081E0309387002093860075
:1001C00007C0988197FD8E8190E89093830007C0C7
:1001D0009F81911104C09E81981708F4892F809304
:1001E00060000FC08091830087FF0BC0CE0117D63F
:1001F0008F3F21F48EE18093610003C08111109242
:100200006000109288008091610084FF55C0809149
:1002100060008F3F09F450C0C82F893008F0C8E053
:100220008C1B809360009091770088E889278093E9
:100230007700CC2309F44BC02091830027FF08C02E
:100240006C2F88E790E07FD5C82F893078F523C0E0
:10025000809186009091870026FF0AC0A8E7B0E051
:10026000FC012C2F34913D9331962150D9F708C0D1
:10027000DC01E8E7F0E02C2F3D9131932150E1F7CC
:100280002FEF2C0F30E02F5F3F4F820F931F909383
:100290008700809386006C2F88E790E03DD0CC5F8C
:1002A000CC3041F08FEF8093600004C08FEF8093DB
:1002B0006000CEE1C093610084E196B3937069F46D
:1002C0008150D9F7109289001092820006C060E038
:1002D00088E790E021D0C4E0E5CFDF91CF91089589
:1002E00085B7836085BF8BB780648BBF0895A82FC7
:1002F000B92F80E090E041E050EA609530E009C01D
:100300002D9182279795879510F084279527305E49
:10031000C8F36F5FA8F30895EADF8D939D93089566
:10032000CF93CFB7CF93C395B09BE9F7B09B09C0EC
:10033000B09B07C0B09B05C0B09B03C0B09B01C081
:10034000A1C0DF93C0918500DD27C457DF4FB09B6C
:1003500002C0DF91EBCF2F930F931F9306B32FEFC4
:1003600000FB20F94F933F9316B34FEF012700FB9B
:1003700021F93BE031C04E7F012F16B3216028C028
:10038000102F4D7F2260000006B329C04B7F2460F0
:10039000012F000016B32BC016B3477F28602AC078
:1003A0004F7E06B320612CC04F7D16B320622FC054
:1003B0004F7B06B3206432C0422706B349934FEF08
:1003C0000000102710FB20F916B31370C9F1297F24
:1003D00091F2012700FB21F906B3237F89F2315006
:1003E00058F1102710FB22F916B3277E79F2012766
:1003F00000FB23F92F7C81F206B3102710FB24F9B0
:100400002F7971F200C016B3012700FB25F92F7375
:1004100059F200C006B3102710FB26F9223040F233
:1004200000C016B3012700FB27F9243028F64F77C8
:10043000206816B30000F9CF10E41ABF002717C0D8
:100440003B503195C31BD04010E41ABF0881033CD8
:10045000E9F00B34D9F0209182001981110F1213A9
:10046000EDCF093641F10D3211F0013E39F700931D
:100470008A003F914F911F910F912F91DF91CAB741
:10048000C6FD51CFCF91CFBFCF91189520918A0053
:10049000222379F310918800112311F5343012F1E1
:1004A0003093880020938400109185003BE0311B3D
:1004B0003093850017C00091880001308CF40AE564
:1004C0003091610034FD10C000936100C7E7D0E0B7
:1004D0000FC02795A8F45150A9F4220F0000F9CFBE
:1004E0004AE503C042ED01C0432FC4E1D0E032E051
:1004F00017B31360C09A17BB08B320E413E05F93EF
:10050000012756E008BB279520F4515021F4220F13
:10051000F9CF012756E000003B5A08BBD0F22795DF
:1005200028F4515029F4220F0000F9CF012756E09A
:10053000279508BB20F4515021F4220FF9CF012751
:1005400056E02991332308BB21F60C7F10918900D6
:10055000110FC651D04008BB11F01093820010E477
:100560001ABF016017B31C7F402F4C7F5F9100C002
:1005700000C008BB17BB48BB7CCF8FB9779BFECFB1
:100580008FB10895DC01CB0121E1B695A795979530
:1005900087952A95D1F72091A4002817D9F0809348
:1005A000A400E091A200F091A3008DE40995E091F0
:1005B000A200F091A30080E00995E091A200F091E3
:1005C000A3008091A4000995E091A200F091A300FE
:1005D00080E009940895882319F0883000F101C063
:1005E0008CE02DEB32E03093A3002093A2001EB8E4
:1005F00091E09093A500893069F018F4883061F09B
:1006000004C08A3031F08B3011F081E08EB981E086
:1006100004C09EB982E001C083E08DB9089529E24B
:1006200033E03093A3002093A20027E030E0281BA2
:10063000310983E001C0880F2A95EAF78093A5006D
:10064000089522B79091A50082B7821B8917E0F325
:1006500008951F93CF93DF93182FD8E0C0E017FFC2
:1006600002C0C39A01C0C398110FCC0FB499CF5FD9
:10067000C59AE7DFC598E5DFD15089F78C2FDF9168
:10068000CF911F910895BD9ABB9AC49ADADFBA9AA6
:100690008FEF8093A400089587B3837D87BB88B3D1
:1006A000837D88BB1DB80895CF938091620081112E
:1006B00003C08CE0809362008091A2009091A3001F
:1006C0008D5B924019F48DB180658DB9E091A200E7
:1006D000F091A3008CEA0995E091A200F091A300AB
:1006E00083E50995E091A200F091A30080E00995CF
:1006F000E091A200F091A30080E009951DB88091DF
:10070000620069DF80916200882389F1C29A99DFD3
:10071000C2988091A2009091A3008D5B924019F441
:100720008DB180658DB98EE33DD1E091A200F0914D
:10073000A3008CEA0995E091A200F091A30083E563
:100740000995E091A200F091A30080E00995C82FDF
:10075000E091A200F091A30080E00995C33549F033
:100760001DB880916200815080936200CACF81E001
:1007700001C080E0CF910895CF92DF92EF92FF9277
:100780006B017C01FFDE8C2D8170880F880F880F34
:10079000E091A200F091A30080620995D701C60103
:1007A00029E0B695A795979587952A95D1F7E09179
:1007B000A200F091A3000995D701C601B695A795AF
:1007C00097958795E091A200F091A3000995E0919B
:1007D000A200F091A30080E0FF90EF90DF90CF9017
:1007E0000994CF92DF92EF92FF92CF93DF936B0148
:1007F0007C01C42FD22FC6DE8C2D8170880F880F0C
:10080000880FE091A200F091A30080640995D701C0
:10081000C60129E0B695A795979587952A95D1F7B2
:10082000E091A200F091A3000995D701C601B69509
:10083000A79597958795E091A200F091A30009955F
:10084000E091A200F091A3008C2F0995DD2321F007
:10085000CF3721F48FE0A6D080E00FC0D2B7CEE131
:10086000C701B60189DF8F37B9F782B78D1B8D338A
:10087000B8F3D2B7C150A1F781E0DF91CF91FF90DB
:10088000EF90DF90CF900895CF92DF92EF92FF929A
:10089000CF93DF936B017C01C42F74DEE091A20043
:1008A000F091A3008CE40995D701C60129E0B69523
:1008B000A795979587952A95D1F7E091A200F09199
:1008C000A3000995D701C601B695A7959795879579
:1008D000E091A200F091A3000995E091A200F091AF
:1008E000A30080E00995CF3F19F48FE05BD010C0E2
:1008F000D2B7CEE1C701B6013FDF8F3F49F482B7DF
:100900008D1B8D33B8F3D2B7C150A1F781E001C080
:1009100080E0DF91CF91FF90EF90DF90CF9008952E
:10092000CF93DF93EC01E091A200F091A30080EA65
:100930000995E091A200F091A3008D2F0995E09117
:10094000A200F091A3008C2F0995E091A200F091F4
:10095000A30080E0DF91CF9109941F93CF93DF93A1
:10096000D82F192FC62FE091A200F091A30080ECA0
:100970000995E091A200F091A300812F0995E091E3
:10098000A200F091A3008D2F0995E091A200F091B3
:10099000A3008C2F09958EE105D080E0DF91CF91E7
:1009A0001F91089522B792B7921B9C33E0F38150B8
:1009B000C9F70895BD9ABB98C39A50E217D05A95CB
:1009C000E9F70895AC0188E605D0842F03D089E6C5
:1009D00001D0852F0FD028E030E0382780FB8695A6
:1009E00006D02A95D1F730FB02D000D06894BB988E
:1009F000C39A16F0C398BB9AE091A600F091A700A5
:100A00003197F0F7C59AE6B3E3FBE091A600F091C9
:100A1000A7003197F0F7C598089520ECE7DF46F47A
:100A20002A95E1F780E02AE1E5DF2A95E9F7DECFB4
:100A300028E030E0DBDF869587F938272A95D1F763
:100A4000D5DF27F9322772F3D1DFD0CFDB01742F46
:100A5000B9DF84E2BFDFE1DF8D937A95D1F70895A6
:100A6000DB01742FAFDF83EFB5DF8DE1B3DF84E609
:100A7000B1DF8D91AFDF82E7ADDFCFDF8078D9F7CF
:100A80007A9589F70895CF93DF93EC0189818130BE
:100A900061F49A9902C085E002C0809162009BDDFA
:100AA00010926D00A19AEFDD44C1823011F4F4DDA3
:100AB000F2C0833009F5E091A200F091A3008A8191
:100AC000099580936F00E091A200F091A3008B81C3
:100AD000099580937000E091A200F091A3008C81B1
:100AE000099580937100E091A200F091A3008D819F
:100AF0000995809372001BC18430D1F480916D0000
:100B000081110EC08A819B81092E000CAA0BBB0BA0
:100B10008093690090936A00A0936B00B0936C007F
:100B20008E819F81909368008093670082E0F0C07F
:100B30008730D1F480916D0081110EC08A819B8134
:100B4000092E000CAA0BBB0B8093690090936A00DE
:100B5000A0936B00B0936C008E819F81909368008E
:100B60008093670083E0D4C0853011F49DDD98C088
:100B7000863079F580916D0081110EC08A819B814C
:100B8000092E000CAA0BBB0B8093690090936A009E
:100B9000A0936B00B0936C003C812D81822F8F70ED
:100BA00080936400822F807F40E1849FC0011124E4
:100BB000830F911D909366008093650020FD8093C4
:100BC00063008E819F81909368008093670081E02D
:100BD0009FC0883001F580916D0081110EC08A811F
:100BE0009B81092E000CAA0BBB0B8093690090938C
:100BF0006A00A0936B00B0936C0010926600109294
:100C00006500109264008E819F81909368008093AC
:100C1000670084E07DC0893081F481E080936D00BD
:100C20008A819B81AC81BD818093690090936A0029
:100C3000A0936B00B0936C007CC08A3031F48A8141
:100C40008093620010926F002DC08B3081F48A81F6
:100C50009B819093A7008093A600C29ABA9A83E0E2
:100C6000A1DEC298A19A80E19DDEA4DE62C08C3034
:100C7000A1F480ECAFDE80E0ADDE8AE093DEC29AC4
:100C800085E090DEC29885E08DDE87B3837D87BBEB
:100C900088B3837D88BBA1984CC08D3029F4BDDE1C
:100CA00080936F0081E046C08E3019F48A8192DE15
:100CB00040C08F30B1F48A819B81092E000CAA0BB1
:100CC000BB0B8093690090936A00A0936B00B09374
:100CD0006C008E819F81909368008093670085E00F
:100CE00017C08031C9F48A819B81092E000CAA0BA0
:100CF000BB0B8093690090936A00A0936B00B09344
:100D00006C008E819F81909368008093670086E0DD
:100D100080936E008FEF0EC08F3759F481E080937F
:100D20006F0010927000109271001092720084E0B7
:100D300001C080E02FE630E03093870020938600EA
:100D4000DF91CF910895EF92FF920F931F93CF936E
:100D5000C62F20916E003EEF320F323028F48C0106
:100D60007C01E60EF11C43C0253009F04FC0462F30
:100D7000BC018091690090916A0068DE80916900F1
:100D800090916A00A0916B00B0916C008C0F911D46
:100D9000A11DB11D8093690090936A00A0936B0020
:100DA000B0936C0035C080916E00823021F5609167
:100DB000690070916A0080916B0090916C00DCDC9E
:100DC000F80180838091690090916A00A0916B0086
:100DD000B0916C000196A11DB11D809369009093A4
:100DE0006A00A0936B00B0936C000F5F1F4F0E154D
:100DF0001F05C9F606C08091690090916A0090DDD8
:100E0000DFCFC83028F410926E0002C08FEF01C00F
:100E10008C2FCF911F910F91FF90EF900895EF923B
:100E2000FF921F93CF93DF93162F20916E002130F6
:100E300031F4EC017C01E10EF11C10E066C02430BD
:100E4000C1F3263009F0A3C0462FBC018091690090
:100E500090916A0005DE8091690090916A00A091EE
:100E60006B00B0916C00810F911DA11DB11D80938D
:100E7000690090936A00A0936B00B0936C0080911E
:100E8000670090916800811B91099093680080939E
:100E90006700892B09F07DC010926E0081E07AC056
:100EA00080916E00813009F04DC020916500309135
:100EB00066006091690070916A0080916B0090916A
:100EC0006C00232B31F521E048818BDC8091670099
:100ED0009091680001979093680080936700892B38
:100EE000C1F18091690090916A00A0916B00B0916E
:100EF0006C000196A11DB11D8093690090936A005A
:100F0000A0936B00B0936C002196CE15DF0541F6DF
:100F10003CC020E0488165DC809163008150809373
:100F200063008111D3CF6091690070916A00809154
:100F30006B0090916C004881A7DC809165008093E4
:100F40006300C4CF68818091690090916A0005DDDB
:100F5000BDCF10926E008091640081FF14C080911B
:100F6000630090E02091650030916600821793073E
:100F700051F06091690070916A0080916B009091CE
:100F80006C00488181DC11E0ACCF812F03C08FEF72
:100F900001C080E0DF91CF911F91FF90EF90089505
:100FA0008BEF81BB8FEF87BB8FE295E70197F1F75E
:100FB00000C0000017BA83E083BFA09A91D978944B
:080FC00077D8FECFF894FFCFB3
:020FC800FF5ACE
:00000001FF
