:1000000013C1C5C22CC12BC12AC129C128C127C116
:1000100026C125C124C1ECC915CA21C120C11FC1F7
:100020001EC11DC11CC10E035500530042006100DA
:10003000730070001C037700770077002E006600C5
:1000400069007300630068006C002E0064006500A6
:10005000040309040600FF0901A101750815012622
:10006000FF00950809018102950809019102950890
:100070000901B20201C08E0000000001050001006C
:1000800084000000010000002800440065007600A4
:1000900069006300650049006E007400650072002D
:1000A0006600610063006500470055004900440098
:1000B00000004E0000007B00410044003500370086
:1000C00044003300420039002D0031003100360079
:1000D00036002D0034003300460038002D00380073
:1000E0003700390030002D00450042004500310046
:1000F0003400440044004300370035003000340031
:100100007D0000008E000000000105000100840059
:10011000000001000000280044006500760069002E
:100120006300650049006E0074006500720066009F
:10013000610063006500470055004900440000006D
:100140004E0000007B0043004300340042004300A7
:100150003000330031002D004600360031004100F0
:100160002D0034004300320042002D0042004200C6
:10017000420032002D0037003900350038003700CA
:1001800032004200330038004600360036007D0061
:100190000000400000000001040002000000000018
:1001A0000000000157494E55534200000000000076
:1001B000000000000000000000000101000000003D
:1001C000000000000000000000000000000000002F
:1001D000000012004D005300460054003100300072
:1001E00030005D0009023200020100807D09040038
:1001F0000000FF00000209040100020300000209E0
:1002000021010100012222000705810308000A07DD
:1002100005010308000A1201000200000008C016D0
:10022000DC0509010102030111241FBECFE5D4E062
:10023000DEBFCDBF10E0A0E6B0E0EEE2F5E102C027
:1002400005900D92AA36B107D9F721E0AAE6B0E0F1
:1002500001C01D92A83CB207E1F741D966C9D0CED2
:10026000CF93C62F2091920024FF07C030919300B6
:1002700028E823272093930003C02AE520939200C7
:100280002C2FFC01A4E9B0E081918D93215012162E
:10029000DCF36C2F84E990E076D1CC5FC0939200C0
:1002A000CF910895CF93DF936091A400635067FDD1
:1002B000D1C08091A100CCE0D0E0C81BD109C855C5
:1002C000DF4F8091A000803118F4CE0116D8BCC059
:1002D0008D3209F0AAC0683009F0B6C083EC809373
:1002E00087008AE58093610010929F008881807664
:1002F00019F0CE0102D586C09A81109290008981B2
:10030000811106C01092910020E930E082E075C0B2
:10031000853019F49093A5006DC0863009F054C063
:100320008B81813041F486E192E09093A300809329
:10033000A20082E145C0823041F484EE91E09093C6
:10034000A3008093A20082E33BC0833009F59111A2
:1003500008C080E590E09093A3008093A20084E021
:100360002FC0913041F484E390E09093A3008093F8
:10037000A2008CE125C0923041F486E290E0909397
:10038000A3008093A2008EE01BC09330A9F417C095
:10039000813241F486EF91E09093A3008093A20014
:1003A00089E00EC0823241F484E590E09093A3008E
:1003B0008093A20082E204C0CE018ED401C080E00E
:1003C00090E490939F001EC0883069F0893019F442
:1003D0009093A7000FC08A3049F08B3059F48BE41A
:1003E0008093930007C027EA30E002C020E930E0A4
:1003F00081E003C020E930E080E03093A300209347
:10040000A20009C08F3F39F4988197FD8E8190E852
:1004100090939F0007C09F81911104C09E819817FF
:1004200008F4892F809360000FC080919F0087FFA0
:100430000BC0CE0173D68F3F21F48EE18093610013
:1004400003C08111109260008091A400181614F46A
:100450001092A4008091610084FF55C080916000DB
:100460008F3F09F450C0C82F893008F0C8E08C1BBA
:10047000809360009091870088E8892780938700A7
:10048000CC2309F44BC020919F0027FF08C06C2F9C
:1004900088E890E0D7D5C82F893078F523C08091BF
:1004A000A2009091A30026FF0AC0A8E8B0E0FC01DA
:1004B0002C2F34913D9331962150D9F708C0DC019F
:1004C000E8E8F0E02C2F3D9131932150E1F72FEF38
:1004D0002C0F30E02F5F3F4F820F931F9093A300AC
:1004E0008093A2006C2F88E890E04DD0CC5FCC3098
:1004F00041F08FEF8093600004C08FEF8093600025
:10050000CEE1C093610084E196B3937069F48150A9
:10051000D9F71092A50010929E0006C060E088E80E
:1005200090E031D0C4E0E5CFDF91CF91089585B759
:10053000826085BF8BB780648BBFE2E9F0E08BE41B
:1005400081838AE580830895DC018FEF9FEF332755
:1005500015C02D912827722F22952727822F2695A7
:100560002695282723952270321777952795822F75
:100570008927972F7695279597278227615048F7E7
:10058000809590950895E0DF8D939D930895CF9386
:10059000CFB7CF93C395B09BE9F7B09B09C0B09B91
:1005A00007C0B09B05C0B09B03C0B09B01C0A6C0F4
:1005B000DF93C091A100DD27C855DF4FB09B02C07B
:1005C000DF91EBCF2F930F931F9306B32FEF00FB19
:1005D00020F94F933F9316B34FEF012700FB21F90A
:1005E0003BE031C04E7F012F16B3216028C0102F91
:1005F0004D7F2260000006B329C04B7F2460012F8D
:10060000000016B32BC016B3477F28602AC04F7E68
:1006100006B320612CC04F7D16B320622FC04F7BE4
:1006200006B3206432C0422706B349934FEF00005F
:10063000102710FB20F916B31370C9F1297F91F22E
:10064000012700FB21F906B3237F89F2315058F1CD
:10065000102710FB22F916B3277E79F2012700FB41
:1006600023F92F7C81F206B3102710FB24F92F7990
:1006700071F200C016B3012700FB25F92F7359F260
:1006800000C006B3102710FB26F9223040F200C04C
:1006900016B3012700FB27F9243028F64F7720688E
:1006A00016B30000F9CF10E41ABF00271CC03B505E
:1006B0003195C31BD04010E41ABF0881033C11F1EF
:1006C0000B3401F120919E001981110F1213EDCF0F
:1006D0004A81441F093659F10D3211F0013E29F7C4
:1006E0004F7009F0042F0093A6003F914F911F9186
:1006F0000F912F91DF91CAB7C6FD4CCFCF91CFBFDD
:10070000CF9118952091A600222379F31091A4008F
:10071000112369F534306AF13093A4002093A000CE
:100720001091A1003BE0311B3093A10022C0009149
:10073000A4000130E4F40AE54F7049F430916100FF
:1007400034FD19C000936100C7E8D0E018C03091B3
:10075000920034FD10C000939200C3E9D0E00FC0B6
:100760002795A8F45150A9F4220F0000F9CF4AE5CB
:1007700003C042ED01C0432FC4E1D0E032E017B323
:100780001360C09A17BB08B320E413E05F930127FE
:1007900056E008BB279520F4515021F4220FF9CFE1
:1007A000012756E000003B5A08BBD0F2279528F4F9
:1007B000515029F4220F0000F9CF012756E0279568
:1007C00008BB20F4515021F4220FF9CF012756E045
:1007D0002991332308BB21F60C7F1091A500110F3E
:1007E000C651D04008BB11F010939E0010E41ABF10
:1007F000016017B31C7F402F4C7F5F9100C000C089
:1008000008BB17BB48BB71CF8FB9779BFECF8FB1A9
:100810000895DC01CB0121E1B695A79597958795C1
:100820002A95D1F72091C0002817D9F08093C000F5
:10083000E091BE00F091BF008DE40995E091BE000B
:10084000F091BF0080E00995E091BE00F091BF00FB
:100850008091C0000995E091BE00F091BF0080E05A
:1008600009940895882319F0883020F101C08CE0A4
:1008700024E034E03093BF002093BE001EB891E026
:100880009093C1008A3081F028F4883081F089305B
:1008900061F006C08B3031F08D3011F41DB8089531
:1008A00081E08EB981E004C09EB982E001C083E09E
:1008B0008DB9089524E734E03093BF002093BE0043
:1008C00027E030E0281B310983E001C0880F2A951A
:1008D000EAF78093C100089522B79091C10082B7D2
:1008E000821B8917E0F308951F93CF93DF93182F8E
:1008F000D8E0C0E017FF02C0C39A01C0C398110F2F
:10090000CC0FB499CF5FC59AE7DFC598E5DFD1502A
:1009100089F78C2FDF91CF911F910895BD9ABB9AD3
:10092000BA9AC49AC29A81E066D1C2988FEF809336
:10093000C000089587B3837D87BBC498C3981DB852
:1009400010926A0008950F931F93CF93DF938091C5
:100950006A0081112EC08CE080936A002AC0C09189
:10096000BE00D091BF0084E0C430D80719F48DB127
:1009700080658DB913E0C29A81E03DD1C2988EE3C3
:100980003AD18CEAFE01099583E5FE01099580E0E4
:10099000FE010995082F80E0FE010995033579F0E5
:1009A000115049F71DB880916A00815080936A0008
:1009B00059DF80916A008111D2CF81E001C080E0CF
:1009C000DF91CF911F910F910895CF92DF92EF9217
:1009D000FF926B017C011DDF8C2D8170880F880FC9
:1009E000880FE091BE00F091BF0080620995D701A9
:1009F000C60129E0B695A795979587952A95D1F7D1
:100A0000E091BE00F091BF000995D701C601B695EF
:100A1000A79597958795E091BE00F091BF00099545
:100A2000E091BE00F091BF0080E0FF90EF90DF907A
:100A3000CF900994CF92DF92EF92FF92CF93DF9302
:100A40006B017C01C42FD22FE4DE8C2D8170880FC6
:100A5000880F880FE091BE00F091BF008064099577
:100A6000D701C60129E0B695A795979587952A9550
:100A7000D1F7E091BE00F091BF000995D701C60102
:100A8000B695A79597958795E091BE00F091BF0028
:100A90000995E091BE00F091BF008C2F0995DD23F0
:100AA00021F0CF3721F48FE0A6D080E00FC0D2B77D
:100AB000CEE1C701B60189DF8F37B9F782B78D1B49
:100AC0008D33B8F3D2B7C150A1F781E0DF91CF9158
:100AD000FF90EF90DF90CF900895CF92DF92EF924A
:100AE000FF92CF93DF936B017C01C42F92DEE091E4
:100AF000BE00F091BF008CE40995D701C60129E042
:100B0000B695A795979587952A95D1F7E091BE0060
:100B1000F091BF000995D701C601B695A7959795A5
:100B20008795E091BE00F091BF000995E091BE006D
:100B3000F091BF0080E00995CF3F19F48FE05BD0C2
:100B400010C0D2B7CEE1C701B6013FDF8F3F49F4F5
:100B500082B78D1B8D33B8F3D2B7C150A1F781E0B6
:100B600001C080E0DF91CF91FF90EF90DF90CF90B8
:100B70000895CF93DF93EC01E091BE00F091BF00A8
:100B800080EA0995E091BE00F091BF008D2F099594
:100B9000E091BE00F091BF008C2F0995E091BE005E
:100BA000F091BF0080E0DF91CF9109941F93CF9324
:100BB000DF93D82F192FC62FE091BE00F091BF0010
:100BC00080EC0995E091BE00F091BF00812F09955E
:100BD000E091BE00F091BF008D2F0995E091BE001D
:100BE000F091BF008C2F09958EE105D080E0DF9158
:100BF000CF911F91089522B792B7921B9C33E0F3D7
:100C00008150C9F70895BD9ABB98C39A50E217D096
:100C10005A95E9F70895AC0188E605D0842F03D0F2
:100C200089E601D0852F0FD028E030E0382780FBFF
:100C3000869506D02A95D1F730FB02D000D0689473
:100C4000BB98C39A16F0C398BB9AE091C200F0918A
:100C5000C3003197F0F7C59AE6B3E3FBE091C20019
:100C6000F091C3003197F0F7C598089520ECE7DFC5
:100C700046F42A95E1F780E02AE1E5DF2A95E9F7D5
:100C8000DECF28E030E0DBDF869587F938272A952C
:100C9000D1F7D5DF27F9322772F3D1DFD0CFDB01CF
:100CA000742FB9DF84E2BFDFE1DF8D937A95D1F74E
:100CB0000895DB01742FAFDF83EFB5DF8DE1B3DF84
:100CC00084E6B1DF8D91AFDF82E7ADDFCFDF8078E3
:100CD000D9F77A9589F70895FC012381233059F4D7
:100CE00082818E3E41F482ED91E09093A300809347
:100CF000A20082E1089580E00895CF93DF93EC0194
:100D00009881892F8076803409F076C19F7109F02F
:100D100059C19981913049F496D380916A00A2DD3E
:100D200010927500A19AFADD83C1923011F402DEAF
:100D3000F2C0933009F5E091BE00F091BF008A81C6
:100D4000099580937F00E091BE00F091BF008B81F8
:100D5000099580938000E091BE00F091BF008C81E6
:100D6000099580938100E091BE00F091BF008D81D4
:100D700009958093820018C19430D1F48091750058
:100D800081110EC08A819B81092E000CAA0BBB0B1E
:100D90008093710090937200A0937300B0937400DD
:100DA0008E819F819093700080936F0082E03CC1A0
:100DB0009730D1F48091750081110EC08A819B819A
:100DC000092E000CAA0BBB0B80937100909372004C
:100DD000A0937300B09374008E819F8190937000F4
:100DE00080936F0083E020C1953011F4ACDD98C092
:100DF000963079F58091750081110EC08A819B81B2
:100E0000092E000CAA0BBB0B80937100909372000B
:100E1000A0937300B09374003C812D81822F8F705A
:100E200080936C00822F807F40E1849FC001112459
:100E3000830F911D90936E0080936D0020FD809331
:100E40006B008E819F819093700080936F0081E092
:100E5000EBC0983001F58091750081110EC08A8138
:100E60009B81092E000CAA0BBB0B80937100909301
:100E70007200A0937300B093740010926E001092F1
:100E80006D0010926C008E819F8190937000809312
:100E90006F0084E0C9C0993081F481E080937500CF
:100EA0008A819B81AC81BD81809371009093720097
:100EB000A0937300B0937400BBC09A3031F48A8160
:100EC00080936A0010927F002DC09B3081F48A814C
:100ED0009B819093C3008093C200C29ABA9A83E028
:100EE0008ADEC298A19A80E186DE8DDEA1C09C30A8
:100EF000A1F480EC98DE80E096DE8AE07CDEC29A87
:100F000085E079DEC29885E076DE87B3837D87BB96
:100F100088B3837D88BBA1988BC09D3029F4A6DE61
:100F200080937F0081E085C09E3019F48A817BDE4A
:100F30007FC09F30B1F48A819B81092E000CAA0BDF
:100F4000BB0B8093710090937200A0937300B093D9
:100F500074008E819F819093700080936F0085E074
:100F600063C09031B1F48A819B81092E000CAA0BD9
:100F7000BB0B8093710090937200A0937300B093A9
:100F800074008E819F819093700080936F0086E043
:100F90004BC09F3759F481E480937F00109280000A
:100FA000109281001092820084E043C09D3509F0C8
:100FB0003FC09C819430E1F590E490939F0022E93A
:100FC00031E039C09130A1F599819D3589F59C8139
:100FD000953071F580939F008A81882329F08130B4
:100FE00039F586E790E002C084E091E09093A30099
:100FF0008093A2008EE823C08032D1F49F7191309B
:10100000B9F48981813019F0893049F011C082E644
:1010100090E09093A3008093A20088E010C08D819F
:101020009E81892B29F087E0809376008FEF01C0A5
:1010300080E02FE730E03093A3002093A200DF91FF
:10104000CF910895EF92FF920F931F93CF93C62FE6
:10105000209176003EEF320F323028F48C017C0173
:10106000E60EF11C43C0253009F04FC0462FBC01ED
:10107000809171009091720012DE809171009091C8
:101080007200A0917300B09174008C0F911DA11D8E
:10109000B11D8093710090937200A0937300B09380
:1010A000740035C080917600823021F56091710026
:1010B00070917200809173009091740086DCF80149
:1010C00080838091710090917200A0917300B09123
:1010D00074000196A11DB11D809371009093720060
:1010E000A0937300B09374000F5F1F4F0E151F0580
:1010F000C9F606C080917100909172003ADDDFCF91
:10110000C83028F41092760002C08FEF01C08C2FF7
:10111000CF911F910F91FF90EF900895CF92DF92A2
:10112000EF92FF920F931F93CF937C01C62F809174
:101130007600813011F0843031F487016701CC0EE4
:10114000D11CC0E06AC0863029F0873009F0C8C0E1
:10115000C0E0A7C0462FB701809171009091720046
:10116000A8DD8091710090917200A0917300B09100
:1011700074008C0F911DA11DB11D8093710090937F
:101180007200A0937300B093740080916F009091EF
:1011900070008C1B91099093700080936F00892BD5
:1011A00009F0A0C01092760081E09FC08091760087
:1011B000813009F051C020916D0030916E00609136
:1011C0007100709172008091730090917400232BD4
:1011D00041F521E0F80140812DDC80916F00909174
:1011E000700001979093700080936F00892BE1F15C
:1011F0008091710090917200A0917300B091740081
:101200000196A11DB11D8093710090937200A0936F
:101210007300B09374000F5F1F4F0C151D0531F65E
:1012200040C020E0F801408105DC80916B008150D6
:1012300080936B008111D1CF609171007091720029
:101240008091730090917400F801408146DC809198
:101250006D0080936B00C1CFF801608180917100B7
:1012600090917200A3DCB9CF1092760080916C004F
:1012700081FF15C080916B0090E020916D0030914E
:101280006E008217930759F060917100709172009F
:101290008091730090917400F80140811EDCC1E0E0
:1012A000A7CF809176008730F9F4F7018081809391
:1012B0006200818180936300828180936400C3D047
:1012C0008091620090916300009709F46BCF609168
:1012D0006400262F2873462F44706370C4D062CFF9
:1012E0008FEF03C080E001C08C2FCF911F910F9131
:1012F000FF90EF90DF90CF900895FC012781283078
:1013000008F4622F662309F1579B1FC04091C50066
:101310002091C400421B262F30E0240F311D2937B5
:1013200031051CF02FEF2093A400DC01E091C500F3
:10133000EF77F0E08D91EC53FF4F82838091C500F1
:101340008F5F8093C500615089F708951FBA1EBA58
:1013500090914701809146019817E1F08EB39FB3B9
:101360000797C1F08EB39FB39C012F5F3F4F3FBBE8
:101370002EBBE0914601EF77F0E0EA5BFE4F228161
:10138000FC01E958FF4F2083809146018F5F8093D5
:101390004601DECF8EB39FB380937E0068E087E77F
:1013A00090E05EC71F920F920FB60F9211248F9399
:1013B0009F93EF93FF938091470190914601891B82
:1013C000803869F0E0914701EF77F0E08DB3EA5B98
:1013D000FE4F8283809147018F5F80934701FF9189
:1013E000EF919F918F910F900FBE0F901F901895C6
:1013F0000CB00DBAD7CF1F920F920FB60F921124D7
:101400008F939F93EF93FF939091C5008091C400B9
:10141000981771F0E091C400EF77F0E0EC53FF4FC4
:1014200082818CB98091C4008F5F8093C40001C019
:101430005598FF91EF919F918F910F900FBE0F9054
:101440001F901895D8CF1AB81092C5001092C400FA
:10145000109247011092460155988091A40087FD93
:101460001092A4000895FF920F931F93CF93DF93E0
:10147000182F092FD62FF42EC22FE5DF1092C500AA
:101480001092C400109247011092460182E08BB97D
:10149000D13021F0D23021F480E303C080E201C0DA
:1014A00080E094E0F91201C08860C03151F020F46E
:1014B000C83051F4826008C0C83129F0C03219F038
:1014C00003C0846001C0866080BD00BD19B988E991
:1014D0008AB9DF91CF911F910F91FF90089583E01A
:1014E00083BF8FEF87BB8FE186DB17BAA09A1FD827
:1014F0007894559908C09091C5008091C4009817C0
:1015000011F0559A0BC09091C5008091C4009813BA
:1015100005C08091A40087FD1092A400C3D68091DD
:0E152000920084FFE6CF12DFE4CFF894FFCFF5
:0A152E00FF5A000000004100000019
:00000001FF
