:10000000D0C09DC2E9C0E8C0E7C0E6C0E5C0E4C01A
:10001000E3C0E2C0E1C0E0C0DFC0DEC0DDC0DCC0E4
:10002000DBC0DAC0D9C00E03300030003000300031
:10003000300030000E035500530042006100730091
:1000400070001C037700770077002E0066006900BF
:100050007300630068006C002E00640065000403F8
:1000600009040600FF0901A1017508150026FF001B
:10007000954009018102954009019102C08E00005E
:1000800000000105000100840000000100000028BC
:100090000044006500760069006300650049006E59
:1000A000007400650072006600610063006500472F
:1000B0000055004900440000004E0000007B004352
:1000C0000043003400420043003000330031002D73
:1000D0000046003600310041002D0034004300325C
:1000E0000042002D0042004200420032002D003745
:1000F0000039003500380037003200420033003844
:10010000004600360036007D000000400000000080
:100110000104000200000000000000000157494EE9
:1001200055534200000000000000000000000000E5
:1001300000000001010000000000000000000000BD
:10014000000000000000000000000012004D0053FD
:1001500000460054003100300030005D00090232DA
:1001600000020100807D0904000000FF0000020978
:100170000401000203000004092101010001221B07
:10018000000705810308000A0705010308000A1299
:1001900001000200000008C016DC05100101020386
:1001A000010011241FBECFE5D4E0DEBFCDBF10E0BB
:1001B000A0E6B0E0E4EAF2E102C005900D92A436B8
:1001C000B107D9F721E0A4E6B0E001C01D92A03448
:1001D000B207E1F754D864C813CFCF93C62F20914C
:1001E0008C0024FF07C030918D0028E8232720933E
:1001F0008D0003C02AE520938C002C2FFC01AEE873
:10020000B0E081918D9321501216DCF36C2F8EE8B3
:1002100090E091D1CC5FC0938C00CF910895CF93A3
:10022000DF9360919E00635067FDDFC080919B006B
:10023000CCE0D0E0C81BD109CE55DF4F80919A00A9
:10024000803118F4CE01DCD7CEC08D3209F0B9C0B0
:10025000683009F0C8C083EC809381008AE5809300
:100260006200109299008881807619F0CE011FD526
:1002700090C09A8110928A008981811107C01092E2
:100280008B002AE830E082E090E07EC0853019F4EF
:1002900090939F0075C0863009F05BC08B818130E0
:1002A00049F48FE891E090939D0080939C0082E157
:1002B00090E04BC0823049F48DE591E090939D0031
:1002C00080939C0082E390E040C0833031F591112F
:1002D00009C08EE590E090939D0080939C0084E09F
:1002E00090E033C0913049F482E490E090939D0017
:1002F00080939C008CE190E028C0923019F484E354
:1003000090E004C09330F9F486E290E090939D0071
:1003100080939C008EE090E018C0813249F48FE613
:1003200091E090939D0080939C0089E090E00DC047
:10033000823249F482E690E090939D0080939C0085
:100340008BE190E002C0CE019FD420E4209399007D
:1003500020C0883069F0893019F49093A10010C052
:100360008A3049F08B3061F48BE480938D0008C0B3
:1003700021EA30E002C02AE830E081E090E004C0E9
:100380002AE830E080E090E030939D0020939C00CC
:100390000DC08F3F2FEF920749F4288127FF02C03D
:1003A0008E819F8120E82093990006C02E813F8195
:1003B0002817390708F4C901909361008093600001
:1003C00012C08091990087FF0EC0CE0158D68F3F92
:1003D00021F48EE18093620006C0882321F0109200
:1003E00061001092600010929E008091620084FF74
:1003F00062C080916000909161008F3F2FEF920763
:1004000009F459C0BC018930910510F068E070E032
:10041000861B970B90936100809360009091810000
:1004200088E8892780938100C62F662309F44EC08F
:100430002091990027FF07C082E890E0B4D5C82F2B
:10044000893080F521C080919C0090919D0026FF0D
:1004500009C0A2E8B0E0FC0124912D9331966150CF
:10046000D9F707C0DC01E2E8F0E02D91219361505B
:10047000E1F72FEF2C0F30E02F5F3F4F820F931FDC
:1004800090939D0080939C006C2F82E890E053D065
:10049000CC5FCC3071F08FEF9FEF90936100809331
:1004A000600007C08FEF9FEF909361008093600022
:1004B000CEE1C093620084E196B3937069F48150F9
:1004C000D9F710929F001092980006C060E082E871
:1004D00090E031D0C4E0DFCFDF91CF91089585B7B0
:1004E000826085BF8BB780648BBFECE8F0E08BE463
:1004F00081838AE580830895DC018FEF9FEF3327A6
:1005000015C02D912827722F22952727822F2695F7
:100510002695282723952270321777952795822FC5
:100520008927972F7695279597278227615048F737
:10053000809590950895E0DF8D939D930895CF93D6
:10054000CFB7CF93C395B09BE9F7B09B09C0B09BE1
:1005500007C0B09B05C0B09B03C0B09B01C0A6C044
:10056000DF93C0919B00DD27CE55DF4FB09B02C0CB
:10057000DF91EBCF2F930F931F9306B32FEF00FB69
:1005800020F94F933F9316B34FEF012700FB21F95A
:100590003BE031C04E7F012F16B3216028C0102FE1
:1005A0004D7F2260000006B329C04B7F2460012FDD
:1005B000000016B32BC016B3477F28602AC04F7EB9
:1005C00006B320612CC04F7D16B320622FC04F7B35
:1005D00006B3206432C0422706B349934FEF0000B0
:1005E000102710FB20F916B31370C9F1297F91F27F
:1005F000012700FB21F906B3237F89F2315058F11E
:10060000102710FB22F916B3277E79F2012700FB91
:1006100023F92F7C81F206B3102710FB24F92F79E0
:1006200071F200C016B3012700FB25F92F7359F2B0
:1006300000C006B3102710FB26F9223040F200C09C
:1006400016B3012700FB27F9243028F64F772068DE
:1006500016B30000F9CF10E41ABF00271CC03B50AE
:100660003195C31BD04010E41ABF0881033C11F13F
:100670000B3401F1209198001981110F1213EDCF65
:100680004A81441F093659F10D3211F0013E29F714
:100690004F7009F0042F0093A0003F914F911F91DC
:1006A0000F912F91DF91CAB7C6FD4CCFCF91CFBF2D
:1006B000CF9118952091A000222379F310919E00EC
:1006C000112369F534306AF130939E0020939A002B
:1006D00010919B003BE0311B30939B0022C00091A6
:1006E0009E000130E4F40AE54F7049F43091620055
:1006F00034FD19C000936200C1E8D0E018C0309109
:100700008C0034FD10C000938C00CDE8D0E00FC009
:100710002795A8F45150A9F4220F0000F9CF4AE51B
:1007200003C042ED01C0432FC4E1D0E032E017B373
:100730001360C09A17BB08B320E413E05F9301274E
:1007400056E008BB279520F4515021F4220FF9CF31
:10075000012756E000003B5A08BBD0F2279528F449
:10076000515029F4220F0000F9CF012756E02795B8
:1007700008BB20F4515021F4220FF9CF012756E095
:100780002991332308BB21F60C7F10919F00110F94
:10079000C651D04008BB11F01093980010E41ABF66
:1007A000016017B31C7F402F4C7F5F9100C000C0D9
:1007B00008BB17BB48BB71CF8FB9779BFECF8FB1FA
:1007C0000895DC01CB0121E1B695A7959795879512
:1007D0002A95D1F72091BA002817D9F08093BA0052
:1007E000E091B800F091B9008DE40995E091B8006E
:1007F000F091B90080E00995E091B800F091B9005E
:100800008091BA000995E091B800F091B90080E0BC
:1008100009940895882319F0883020F101C08CE0F4
:100820002CED33E03093B9002093B8001EB891E06E
:100830009093BB008A3081F028F4883081F08930B1
:1008400061F006C08B3031F08D3011F41DB8089581
:1008500081E08EB981E004C09EB982E001C083E0EE
:100860008DB908952CE434E03093B9002093B8009A
:1008700027E030E0281B310983E001C0880F2A956A
:10088000EAF78093BB00089522B79091BB0082B72E
:10089000821B8917E0F308951F93CF93DF93182FDE
:1008A000D8E0C0E017FF02C0C39A01C0C398110F7F
:1008B000CC0FB499CF5FC59AE7DFC598E5DFD1507B
:1008C00089F78C2FDF91CF911F910895BD9ABB9A24
:1008D000BA9AC49AC29A81E066D1C2988FEF809387
:1008E000BA00089587B3837D87BBC498C3981DB8A9
:1008F0001092640008950F931F93CF93DF9380911C
:10090000640081112EC08CE0809364002AC0C091E5
:10091000B800D091B90083E0CC3DD80719F48DB16F
:1009200080658DB913E0C29A81E03DD1C2988EE313
:100930003AD18CEAFE01099583E5FE01099580E034
:10094000FE010995082F80E0FE010995033579F035
:10095000115049F71DB88091640081508093640064
:1009600059DF809164008111D2CF81E001C080E025
:10097000DF91CF911F910F910895CF92DF92EF9267
:10098000FF926B017C011DDF8C2D8170880F880F19
:10099000880FE091B800F091B90080620995D70105
:1009A000C60129E0B695A795979587952A95D1F721
:1009B000E091B800F091B9000995D701C601B6954C
:1009C000A79597958795E091B800F091B9000995A2
:1009D000E091B800F091B90080E0FF90EF90DF90D7
:1009E000CF900994CF92DF92EF92FF92CF93DF9353
:1009F0006B017C01C42FD22FE4DE8C2D8170880F17
:100A0000880F880FE091B800F091B90080640995D3
:100A1000D701C60129E0B695A795979587952A95A0
:100A2000D1F7E091B800F091B9000995D701C6015E
:100A3000B695A79597958795E091B800F091B90084
:100A40000995E091B800F091B9008C2F0995DD234C
:100A500021F0CF3721F48FE0A6D080E00FC0D2B7CD
:100A6000CEE1C701B60189DF8F37B9F782B78D1B99
:100A70008D33B8F3D2B7C150A1F781E0DF91CF91A8
:100A8000FF90EF90DF90CF900895CF92DF92EF929A
:100A9000FF92CF93DF936B017C01C42F92DEE09134
:100AA000B800F091B9008CE40995D701C60129E09E
:100AB000B695A795979587952A95D1F7E091B800B7
:100AC000F091B9000995D701C601B695A7959795FC
:100AD0008795E091B800F091B9000995E091B800D0
:100AE000F091B90080E00995CF3F19F48FE05BD019
:100AF00010C0D2B7CEE1C701B6013FDF8F3F49F446
:100B000082B78D1B8D33B8F3D2B7C150A1F781E006
:100B100001C080E0DF91CF91FF90EF90DF90CF9008
:100B20000895CF93DF93EC01E091B800F091B90004
:100B300080EA0995E091B800F091B9008D2F0995F0
:100B4000E091B800F091B9008C2F0995E091B800C0
:100B5000F091B90080E0DF91CF9109941F93CF937A
:100B6000DF93D82F192FC62FE091B800F091B9006C
:100B700080EC0995E091B800F091B900812F0995BA
:100B8000E091B800F091B9008D2F0995E091B8007F
:100B9000F091B9008C2F09958EE105D080E0DF91AE
:100BA000CF911F91089522B792B7921B9C33E0F327
:100BB0008150C9F70895BD9ABB98C39A50E217D0E7
:100BC0005A95E9F70895AC0188E605D0842F03D043
:100BD00089E601D0852F0FD028E030E0382780FB50
:100BE000869506D02A95D1F730FB02D000D06894C4
:100BF000BB98C39A16F0C398BB9AE091BC00F091E1
:100C0000BD003197F0F7C59AE6B3E3FBE091BC0075
:100C1000F091BD003197F0F7C598089520ECE7DF1B
:100C200046F42A95E1F780E02AE1E5DF2A95E9F725
:100C3000DECF28E030E0DBDF869587F938272A957C
:100C4000D1F7D5DF27F9322772F3D1DFD0CFDB011F
:100C5000742FB9DF84E2BFDFE1DF8D937A95D1F79E
:100C60000895DB01742FAFDF83EFB5DF8DE1B3DFD4
:100C700084E6B1DF8D91AFDF82E7ADDFCFDF807833
:100C8000D9F77A9589F70895FC012381233061F41F
:100C900082818E3E49F48BE491E090939D00809395
:100CA0009C0082E190E0089580E090E00895CF9369
:100CB000DF93EC018981813041F480916400AADDE9
:100CC00010926F00A19A02DE60C1823011F40ADE38
:100CD000F3C0833011F5E091B800F091B9008A813A
:100CE000099580937900E091B800F091B9008B816B
:100CF000099580937A00E091B800F091B9008C8159
:100D0000099580937B00E091B800F091B9008D8146
:100D1000099580937C0084E039C18430D1F48091BE
:100D20006F0081110EC08A819B81092E000CAA0BD5
:100D3000BB0B80936B0090936C00A0936D00B093FD
:100D40006E008E819F8190936A008093690082E09B
:100D5000F0C08730D1F480916F0081110EC08A817C
:100D60009B81092E000CAA0BBB0B80936B00909308
:100D70006C00A0936D00B0936E008E819F81909364
:100D80006A008093690083E0D4C0853011F4B3DD3C
:100D900098C0863079F580916F0081110EC08A81EC
:100DA0009B81092E000CAA0BBB0B80936B009093C8
:100DB0006C00A0936D00B0936E003C812D81822F5A
:100DC0008F7080936600822F807F40E1849FC001F6
:100DD0001124830F911D909368008093670020FD7C
:100DE000809365008E819F8190936A008093690053
:100DF00081E09FC0883001F580916F0081110EC0A5
:100E00008A819B81092E000CAA0BBB0B80936B007F
:100E100090936C00A0936D00B0936E0010926800E8
:100E200010926700109266008E819F8190936A00F5
:100E30008093690084E07DC0893081F481E08093F3
:100E40006F008A819B81AC81BD8180936B00909300
:100E50006C00A0936D00B0936E0097C08A3031F49F
:100E60008A8180936400109279002DC08B3081F4C8
:100E70008A819B819093BD008093BC00C29ABA9AEC
:100E800083E091DEC298A19A80E18DDE94DE7DC080
:100E90008C30A1F480EC9FDE80E09DDE8AE083DE72
:100EA000C29A85E080DEC29885E07DDE87B3837DCF
:100EB00087BB88B3837D88BBA19867C08D3029F438
:100EC000ADDE8093790081E061C08E3019F48A81B3
:100ED00082DE5BC08F30B1F48A819B81092E000CC9
:100EE000AA0BBB0B80936B0090936C00A0936D00DA
:100EF000B0936E008E819F8190936A008093690009
:100F000085E017C08031C9F48A819B81092E000CCD
:100F1000AA0BBB0B80936B0090936C00A0936D00A9
:100F2000B0936E008E819F8190936A0080936900D8
:100F300086E0809370008FEF29C09881903C81F407
:100F40008D3561F58C81843049F580E4809399007A
:100F50008BE091E090939D0080939C0080E41FC003
:100F6000913C99F48D35D1F48C818530B9F480E4CD
:100F7000809399008A81811111C08DE790E0909350
:100F80009D0080939C008EE80AC080E090E029E7F5
:100F900030E030939D0020939C0002C080E090E000
:100FA000DF91CF910895EF92FF920F931F93CF930C
:100FB000C62F209170003EEF320F323028F48C01A2
:100FC0007C01E60EF11C43C0253009F04FC0462FCE
:100FD000BC0180916B0090916C0039DE80916B00B8
:100FE00090916C00A0916D00B0916E008C0F911DDE
:100FF000A11DB11D80936B0090936C00A0936D00B8
:10100000B0936E0035C080917000823021F5609100
:101010006B0070916C0080916D0090916E00ADDC62
:10102000F801808380916B0090916C00A0916D001D
:10103000B0916E000196A11DB11D80936B0090933D
:101040006C00A0936D00B0936E000F5F1F4F0E15E4
:101050001F05C9F606C080916B0090916C0061DDA0
:10106000DFCFC83028F41092700002C08FEF01C0AB
:101070008C2FCF911F910F91FF90EF900895EF92D9
:10108000FF921F93CF93DF93162F20917000213092
:1010900031F4EC017C01E10EF11C10E066C024305B
:1010A000C1F3263009F0A3C0462FBC0180916B002C
:1010B00090916C00D6DD80916B0090916C00A091B6
:1010C0006D00B0916E00810F911DA11DB11D809327
:1010D0006B0090936C00A0936D00B0936E008091B4
:1010E000690090916A00811B910990936A00809336
:1010F0006900892B09F07DC01092700081E07AC0F0
:1011000080917000813009F04DC0209167003091CE
:10111000680060916B0070916C0080916D009091FF
:101120006E00232B31F521E048815CDC8091690061
:1011300090916A00019790936A0080936900892BCF
:10114000C1F180916B0090916C00A0916D00B09105
:101150006E000196A11DB11D80936B0090936C00F1
:10116000A0936D00B0936E002196CE15DF0541F679
:101170003CC020E0488136DC80916500815080933E
:1011800065008111D3CF60916B0070916C008091EC
:101190006D0090916E00488178DC809167008093AB
:1011A0006500C4CF688180916B0090916C00D6DCA3
:1011B000BDCF109270008091660081FF14C08091B5
:1011C000650090E0209167003091680082179307D6
:1011D00051F060916B0070916C0080916D00909166
:1011E0006E00488152DC11E0ACCF812F03C08FEF3D
:1011F00001C080E0DF91CF911F91FF90EF900895A3
:101200006150B8F02091BF003091BE00231B203800
:10121000B9F32091BF002F5F2093BF00E091BF0082
:10122000EF77F0E0DC012C91E254FF4F228301962E
:10123000E7CF089588E027E030E08150E0F040916A
:10124000BF009091BE00491799F09091BE009F5F3A
:101250009093BE00E091BE00EF77F0E0E254FF4FC4
:101260009281F901E81BF109EF58FF4F9083E5CF18
:1012700069E0681B01C068E081E790E0AEC783E0E9
:1012800083BF8FEF87BB8FE18EDC17BAA09A27D977
:101290007894C5D780918C0084FFFBCFCBDFF9CF4A
:0412A000F894FFCFF0
:0412A400FFFF5A00EE
:00000001FF
