:1000000017C11AC330C12FC12EC12DC12CC12BC1A4
:100010002AC129C128C162CA8BCA25C124C123C1F2
:1000200022C121C120C10A0330003000300031005C
:100030000E035500530042006100730070001C0362
:100040007700770077002E00660069007300630078
:1000500068006C002E0064006500040309040600BB
:10006000FF0901A1017508150126FF009508090186
:10007000810295080901910295080901B20201C0A7
:100080000A0000000000030636010800010000001D
:100090002C010800020000009C00140003005749D6
:1000A0004E55534200000000000000000000800098
:1000B0000400010028004400650076006900630028
:1000C000650049006E007400650072006600610002
:1000D00063006500470055004900440000004E00E1
:1000E0007B004100440035003700440033004200EB
:1000F00039002D0031003100360036002D0034006B
:100100003300460038002D00380037003900300039
:100110002D0030004200450031003400440044000E
:10012000430037003500300034007D000000080037
:100130000200010088008000040001002800440043
:100140006500760069006300650049006E00740078
:10015000650072006600610063006500470055009D
:100160004900440000004E007B004100440035007F
:10017000370044003300420039002D0031003100C7
:10018000360036002D0034003300460038002D00C4
:1001900038003700390030002D00310042004500A2
:1001A0003100340044004400430037003500300083
:1001B00034007D000000050F35000214100400B962
:1001C000D357AD6611F8438790EBE14DDC75941C75
:1001D000100500DF60DDD88945C74C9CD2659D9E27
:1001E000648A9F0000030636015D000902320002A6
:1001F000010080FA0904000000FF00000209040168
:10020000000203000002092101010001222200076F
:1002100005810308000A0705010308000A1201010D
:100220000200000008C016DC0510010102030100F5
:1002300011241FBECFE5D4E0DEBFCDBF10E0A0E6A5
:10024000B0E0EAE1F6E102C005900D92AC36B107EC
:10025000D9F721E0ACE6B0E001C01D92AA3CB2079C
:10026000E1F7B3D9D8C9CCCECF93209194002E31E9
:10027000F1F02091940024FF07C03091950028E808
:1002800023272093950003C02AE520939400262F6E
:10029000FC01A6E9B0E081918D9321501216DCF3A8
:1002A000C62F86E990E0C4D1CC5FC0939400CF9173
:1002B0000895CF93DF936091A600635067FD0FC14F
:1002C0008091A300CCE0D0E0C81BD109C655DF4F18
:1002D0008091A200803118F4CE015CD8FAC08D3232
:1002E00009F0E5C0683009F0F4C083EC8093890020
:1002F0008AE5809362001092A1002881822F807687
:1003000019F0CE0151D5BBC09A813C811092920068
:100310008981811114C02F71223051F4313841F498
:100320009091940081E09E3109F080E080939200EA
:100330001092930022E930E082E090E09BC0282FE9
:100340002D7F213081F4911191C0313809F08EC098
:10035000813011F08EE101C08AE5809394008BE436
:100360008093950083C0853019F49093A7007EC0D8
:10037000863009F061C08B81813049F48DE192E0D3
:100380009093A5008093A40082E190E051C0823058
:1003900049F48BEE91E09093A5008093A40082E352
:1003A00090E046C0833061F5911109C08AE590E084
:1003B0009093A5008093A40084E090E039C0913030
:1003C00049F48EE390E09093A5008093A4008CE123
:1003D00090E02EC0923049F480E390E09093A50025
:1003E0008093A4008EE090E023C09330F9F486E27D
:1003F00090E09093A5008093A4008AE090E018C05C
:10040000813249F48DEF91E09093A5008093A40090
:1004100089E090E00DC0823249F48EE590E090933F
:10042000A5008093A40082E290E002C0CE01A9D48E
:1004300020E42093A10023C0883081F0893019F492
:100440009093A90007C08A3061F08B3079F48BE477
:10045000809395008AE58093940008C029EA30E0F3
:1004600002C022E930E081E090E004C022E930E0FF
:1004700080E090E03093A5002093A4000DC08F3F52
:100480002FEF920749F4288127FF02C08E819F81B8
:1004900020E82093A10006C02E813F81281739074C
:1004A00008F4C901909361008093600012C08091AC
:1004B000A10087FF0EC0CE017ED68F3F21F48EE1D2
:1004C0008093620006C0882321F010926100109290
:1004D00060008091A600181614F41092A600809176
:1004E000620084FF62C080916000909161008F3F44
:1004F0002FEF920709F459C0BC018930910510F023
:1005000068E070E0861B970B909361008093600019
:100510009091890088E8892780938900C62F6623F7
:1005200009F451C02091A10027FF07C08AE890E09C
:10053000D6D5C82F893080F521C08091A400909134
:10054000A50026FF09C0AAE8B0E0FC0124912D9384
:1005500031966150D9F707C0DC01EAE8F0E02D914F
:1005600021936150E1F72FEF2C0F30E02F5F3F4FC9
:10057000820F931F9093A5008093A4006C2F8AE8AC
:1005800090E056D0CC5FCC3071F08FEF9FEF90931E
:1005900061008093600007C08FEF9FEF9093610030
:1005A00080936000CEE1C093620084E196B39370C3
:1005B00081F48150D9F71092A7001092A0008AE52B
:1005C0008093940006C060E08AE890E031D0C4E0F7
:1005D000DCCFDF91CF91089585B7826085BF8BB75F
:1005E00080648BBFE4E9F0E08BE481838AE580835B
:1005F0000895DC018FEF9FEF332715C02D91282739
:10060000722F22952727822F269526952827239516
:100610002270321777952795822F8927972F769505
:10062000279597278227615048F7809590950895E0
:10063000E0DF8D939D930895CF93CFB7CF93C3956C
:10064000B09BE9F7B09B09C0B09B07C0B09B05C049
:10065000B09B03C0B09B01C0A6C0DF93C091A300B4
:10066000DD27C655DF4FB09B02C0DF91EBCF2F9344
:100670000F931F9306B32FEF00FB20F94F933F9387
:1006800016B34FEF012700FB21F93BE031C04E7F4D
:10069000012F16B3216028C0102F4D7F226000006B
:1006A00006B329C04B7F2460012F000016B32BC076
:1006B00016B3477F28602AC04F7E06B320612CC046
:1006C0004F7D16B320622FC04F7B06B3206432C02B
:1006D000422706B349934FEF0000102710FB20F983
:1006E00016B31370C9F1297F91F2012700FB21F99C
:1006F00006B3237F89F2315058F1102710FB22F9FD
:1007000016B3277E79F2012700FB23F92F7C81F2B3
:1007100006B3102710FB24F92F7971F200C016B32D
:10072000012700FB25F92F7359F200C006B31027EB
:1007300010FB26F9223040F200C016B3012700FB5F
:1007400027F9243028F64F77206816B30000F9CF38
:1007500010E41ABF00271CC03B503195C31BD0408A
:1007600010E41ABF0881033C11F10B3401F1209110
:10077000A0001981110F1213EDCF4A81441F0936D1
:1007800059F10D3211F0013E29F74F7009F0042F95
:100790000093A8003F914F911F910F912F91DF91EE
:1007A000CAB7C6FD4CCFCF91CFBFCF91189520913E
:1007B000A800222379F31091A600112369F53430A3
:1007C0006AF13093A6002093A2001091A3003BE0B1
:1007D000311B3093A30022C00091A6000130E4F445
:1007E0000AE54F7049F43091620034FD19C000935E
:1007F0006200C9E8D0E018C03091940034FD10C008
:1008000000939400C5E9D0E00FC02795A8F451509B
:10081000A9F4220F0000F9CF4AE503C042ED01C060
:10082000432FC4E1D0E032E017B31360C09A17BB86
:1008300008B320E413E05F93012756E008BB279537
:1008400020F4515021F4220FF9CF012756E0000087
:100850003B5A08BBD0F2279528F4515029F4220FB7
:100860000000F9CF012756E0279508BB20F451502E
:1008700021F4220FF9CF012756E02991332308BB39
:1008800021F60C7F1091A700110FC651D04008BB74
:1008900011F01093A00010E41ABF016017B31C7F81
:1008A000402F4C7F5F9100C000C008BB17BB48BB06
:1008B00071CF8FB9779BFECF8FB10895DC01CB014B
:1008C00021E1B695A795979587952A95D1F720911F
:1008D000C2002817D9F08093C200E091C000F091C7
:1008E000C1008DE40995E091C000F091C10080E065
:1008F0000995E091C000F091C1008091C200099576
:10090000E091C000F091C10080E00994089588232F
:1009100019F0883020F101C08CE029E534E03093F3
:10092000C1002093C0001EB891E09093C3008A30AC
:1009300081F028F4883081F0893061F006C08B3076
:1009400031F08D3011F41DB8089581E08EB981E049
:1009500004C09EB982E001C083E08DB9089529ECFE
:1009600034E03093C1002093C00027E030E0281B22
:10097000310983E001C0880F2A95EAF78093C3000C
:10098000089522B79091C30082B7821B8917E0F3C4
:1009900008951F93CF93DF93182FD8E0C0E017FF7F
:1009A00002C0C39A01C0C398110FCC0FB499CF5F96
:1009B000C59AE7DFC598E5DFD15089F78C2FDF9125
:1009C000CF911F910895BD9ABB9ABA9AC49AC29AC0
:1009D00081E066D1C2988FEF8093C200089587B3FB
:1009E000837D87BBC498C3981DB810926C0008958E
:1009F0000F931F93CF93DF9380916C0081112EC0D2
:100A00008CE080936C002AC0C091C000D091C100DE
:100A100084E0C935D80719F48DB180658DB913E02C
:100A2000C29A81E03DD1C2988EE33AD18CEAFE01B0
:100A3000099583E5FE01099580E0FE010995082FDF
:100A400080E0FE010995033579F0115049F71DB892
:100A500080916C00815080936C0059DF80916C0014
:100A60008111D2CF81E001C080E0DF91CF911F9151
:100A70000F910895CF92DF92EF92FF926B017C016C
:100A80001DDF8C2D8170880F880F880FE091C000CA
:100A9000F091C10080620995D701C60129E0B695A1
:100AA000A795979587952A95D1F7E091C000F09189
:100AB000C1000995D701C601B695A7959795879569
:100AC000E091C000F091C1000995E091C000F09163
:100AD000C10080E0FF90EF90DF90CF900994CF921B
:100AE000DF92EF92FF92CF93DF936B017C01C42FD3
:100AF000D22FE4DE8C2D8170880F880F880FE09153
:100B0000C000F091C10080640995D701C60129E0B9
:100B1000B695A795979587952A95D1F7E091C0004E
:100B2000F091C1000995D701C601B695A795979593
:100B30008795E091C000F091C1000995E091C00057
:100B4000F091C1008C2F0995DD2321F0CF3721F4DE
:100B50008FE0A6D080E00FC0D2B7CEE1C701B601CA
:100B600089DF8F37B9F782B78D1B8D33B8F3D2B7D2
:100B7000C150A1F781E0DF91CF91FF90EF90DF901E
:100B8000CF900895CF92DF92EF92FF92CF93DF93B1
:100B90006B017C01C42F92DEE091C000F091C10096
:100BA0008CE40995D701C60129E0B695A7959795DC
:100BB00087952A95D1F7E091C000F091C100099581
:100BC000D701C601B695A79597958795E091C00086
:100BD000F091C1000995E091C000F091C10080E062
:100BE0000995CF3F19F48FE05BD010C0D2B7CEE1AA
:100BF000C701B6013FDF8F3F49F482B78D1B8D33AC
:100C0000B8F3D2B7C150A1F781E001C080E0DF9115
:100C1000CF91FF90EF90DF90CF900895CF93DF9327
:100C2000EC01E091C000F091C10080EA0995E091EB
:100C3000C000F091C1008D2F0995E091C000F091A6
:100C4000C1008C2F0995E091C000F091C10080E0B7
:100C5000DF91CF9109941F93CF93DF93D82F192F52
:100C6000C62FE091C000F091C10080EC0995E091A1
:100C7000C000F091C100812F0995E091C000F09172
:100C8000C1008D2F0995E091C000F091C1008C2F1B
:100C900009958EE105D080E0DF91CF911F910895F5
:100CA00022B792B7921B9C33E0F38150C9F70895A5
:100CB000BD9ABB98C39A50E217D05A95E9F70895A8
:100CC000AC0188E605D0842F03D089E601D0852FBA
:100CD0000FD028E030E0382780FB869506D02A9593
:100CE000D1F730FB02D000D06894BB98C39A16F0BD
:100CF000C398BB9AE091C400F091C5003197F0F71A
:100D0000C59AE6B3E3FBE091C400F091C5003197CA
:100D1000F0F7C598089520ECE7DF46F42A95E1F74F
:100D200080E02AE1E5DF2A95E9F7DECF28E030E030
:100D3000DBDF869587F938272A95D1F7D5DF27F9A4
:100D4000322772F3D1DFD0CFDB01742FB9DF84E219
:100D5000BFDFE1DF8D937A95D1F70895DB01742F22
:100D6000AFDF83EFB5DF8DE1B3DF84E6B1DF8D91D7
:100D7000AFDF82E7ADDFCFDF8078D9F77A9589F7EB
:100D80000895FC0123812F3061F48281811109C013
:100D900086EB91E09093A5008093A40085E390E01A
:100DA000089580E090E00895CF93DF93EC0188816F
:100DB000982F9076903409F066C18F7109F084C144
:100DC0008981813049F4B5D380916C00A0DD109207
:100DD0007700A19AF8DD78C1823011F400DEF2C00C
:100DE000833009F5E091C000F091C1008A81099536
:100DF00080938100E091C000F091C1008B81099542
:100E000080938200E091C000F091C1008C8109952F
:100E100080938300E091C000F091C1008D8109951D
:100E2000809384001CC18430D1F4809177008111BB
:100E30000EC08A819B81092E000CAA0BBB0B8093EC
:100E4000730090937400A0937500B09376008E8128
:100E50009F81909372008093710082E030C187304F
:100E6000D1F48091770081110EC08A819B81092E77
:100E7000000CAA0BBB0B8093730090937400A0939B
:100E80007500B09376008E819F819093720080935D
:100E9000710083E014C1853011F4AADD98C086305A
:100EA00079F58091770081110EC08A819B81092E8E
:100EB000000CAA0BBB0B8093730090937400A0935B
:100EC0007500B09376003C812D81822F8F708093C6
:100ED0006E00822F807F40E1849FC0011124830F28
:100EE000911D9093700080936F0020FD80936D00A2
:100EF0008E819F81909372008093710081E0DFC0AA
:100F0000883001F58091770081110EC08A819B8124
:100F1000092E000CAA0BBB0B8093730090937400F6
:100F2000A0937500B09376001092700010926F003D
:100F300010926E008E819F81909372008093710059
:100F400084E0BDC0893081F481E0809377008A819C
:100F50009B81AC81BD818093730090937400A093BA
:100F60007500B0937600B0C08A3031F48A818093E6
:100F70006C00109281002DC08B3081F48A819B819E
:100F80009093C5008093C400C29ABA9A83E088DE29
:100F9000C298A19A80E184DE8BDE96C08C30A1F4E9
:100FA00080EC96DE80E094DE8AE07ADEC29A85E00C
:100FB00077DEC29885E074DE87B3837D87BB88B314
:100FC000837D88BBA19880C08D3031F4A4DE8093EE
:100FD000810081E090E07AC08E3019F48A8178DE59
:100FE00073C08F30B1F48A819B81092E000CAA0B4B
:100FF000BB0B8093730090937400A0937500B09323
:1010000076008E819F81909372008093710085E0BD
:1010100056C08031B1F48A819B81092E000CAA0B45
:10102000BB0B8093730090937400A0937500B093F2
:1010300076008E819F81909372008093710086E08C
:101040003EC08F3779F48091670080938100809152
:10105000680080938200109283001092840084E0E4
:1010600090E034C08D3581F58C81873069F580E45E
:101070008093A10080E890E09093A5008093A40065
:1010800086E391E029C09032F9F48F718130E1F468
:101090008B818330C9F48981813019F0893051F016
:1010A00013C083E690E09093A5008093A40088E0AD
:1010B00090E012C08D819E81892B31F087E0809372
:1010C00078008FEF9FEF02C080E090E021E830E0F1
:1010D0003093A5002093A400DF91CF910895EF9263
:1010E000FF920F931F93CF93C62F209178003EEF6E
:1010F000320F323028F48C017C01E60EF11C43C023
:10110000253009F04FC0462FBC01809173009091AB
:1011100074001ADE8091730090917400A0917500A4
:10112000B09176008C0F911DA11DB11D80937300AD
:1011300090937400A0937500B093760035C08091B1
:101140007800823021F56091730070917400809175
:101150007500909176008EDCF80180838091730099
:1011600090917400A0917500B09176000196A11D38
:10117000B11D8093730090937400A0937500B09399
:1011800076000F5F1F4F0E151F05C9F606C0809130
:1011900073009091740042DDDFCFC83028F41092C4
:1011A000780002C08FEF01C08C2FCF911F910F915B
:1011B000FF90EF900895CF92DF92EF92FF920F93FE
:1011C0001F93CF937C01C62F80917800813011F05E
:1011D000843031F487016701CC0ED11CC0E06AC0B5
:1011E000863029F0873009F0C8C0C0E0A7C0462F7C
:1011F000B7018091730090917400B0DD809173000D
:1012000090917400A0917500B09176008C0F911DA3
:10121000A11DB11D8093730090937400A09375007D
:10122000B093760080917100909172008C1B9109AF
:101230009093720080937100892B09F0A0C01092E6
:10124000780081E09FC080917800813009F051C022
:1012500020916F0030917000609173007091740064
:101260008091750090917600232B41F521E0F801E3
:10127000408135DC809171009091720001979093CC
:10128000720080937100892BE1F18091730090913D
:101290007400A0917500B09176000196A11DB11D5A
:1012A0008093730090937400A0937500B0937600C0
:1012B0000F5F1F4FC016D10631F640C020E0F80185
:1012C00040810DDC80916D00815080936D00811113
:1012D000D1CF6091730070917400809175009091EE
:1012E0007600F80140814EDC80916F0080936D00A4
:1012F000C1CFF80160818091730090917400ABDCE4
:10130000B9CF1092780080916E0081FF15C0809156
:101310006D0090E020916F0030917000821793076C
:1013200059F06091730070917400809175009091F4
:101330007600F801408126DCC1E0A7CF80917800DB
:101340008730F9F4F7018081809363008181809375
:101350006400828180936500ECD08091630090915D
:101360006400009709F46BCF60916500262F287305
:10137000462F44706370EDD062CF8FEF03C080E0E2
:1013800001C08C2FCF911F910F91FF90EF90DF90B4
:10139000CF900895FC019781992331F1983018F08E
:1013A000662311F1962F579B1FC08091C700209193
:1013B000C600821B292F30E0280F311D2937310547
:1013C0001CF08FEF8093A600DF01E091C700EF775C
:1013D000F0E08D91EA53FF4F82838091C7008F5FC9
:1013E0008093C700915089F708951FBA1EBA909153
:1013F0004901809148019817E1F08EB39FB3079798
:10140000C1F08EB39FB39C012F5F3F4F3FBB2EBBFC
:10141000E0914801EF77F0E0E85BFE4F2281FC01AC
:10142000E758FF4F2083809148018F5F80934801E8
:10143000DECF8EB39FB3809380009091490180915D
:101440004801981709F18EB39FB30797E9F4E0912B
:101450004801EF77F0E0E85BFE4F82812EB33FB3A7
:101460002730310589F42EB33FB3482F50E02417BD
:10147000350750F4EEB3FFB3E758FF4F80838091F8
:1014800048018F5F8093480168E089E790E0ECC6EF
:101490001F920F920FB60F9211248F939F93EF9389
:1014A000FF938091490190914801891B803869F030
:1014B000E0914901EF77F0E08DB3E85BFE4F828366
:1014C000809149018F5F80934901FF91EF919F9136
:1014D0008F910F900FBE0F901F9018950CB00DBA02
:1014E000D7CF1F920F920FB60F9211248F939F9315
:1014F000EF93FF939091C7008091C600981771F009
:10150000E091C600EF77F0E0EA53FF4F82818CB99B
:101510008091C6008F5F8093C60001C05598FF91EF
:10152000EF919F918F910F900FBE0F901F90189584
:10153000D8CF1AB855981092C7001092C6001092D2
:101540004901109248018091A60087FD1092A600E3
:101550000895FF920F931F93CF93DF93182F092FB6
:10156000D62FF42EC22FE5DF1092C7001092C600CE
:10157000109249011092480182E08BB9D13021F0DC
:10158000D23021F480E303C080E201C080E094E027
:10159000F91201C08860C03151F020F4C83051F414
:1015A000826008C0C83129F0C03219F003C08460DD
:1015B00001C0866080BD00BD19B988E98AB9DF9194
:1015C000CF911F910F91FF90089583E083BF8FEF1C
:1015D00087BB8FE165DB17BAA09AFED7789455993F
:1015E00008C09091C7008091C600981711F0559AD5
:1015F0000BC09091C7008091C600981305C08091E0
:10160000A60087FD1092A60054D68091940084FF16
:0A161000E6CFEBDEE4CFF894FFCF45
:0C161A00FFFF5A000000008100000000EB
:00000001FF
