:100000003BC08EC154C053C052C051C050C04FC03D
:100010004EC04DC04CC04BC04AC049C048C047C08C
:1000200046C045C044C009021200010100A01909E0
:10003000040000000000000012011001FF00000891
:10004000C016DC050501010200010E035500530036
:1000500042006100730070001C0377007700770096
:100060002E00660069007300630068006C002E00BB
:10007000640065000403090411241FBECFE5D4E029
:10008000DEBFCDBF10E0A0E6B0E0EEEBFFE002C0C7
:1000900005900D92A236B107D9F720E0A2E6B0E0B4
:1000A00001C01D92AA3AB207E1F773D786C7A8CF5D
:1000B000CF93DF9360918800635067FDA4C0809167
:1000C0008500CCE0D0E0C81BD109C457DF4F809138
:1000D00084008D3209F086C0683009F092C083EC4C
:1000E000809377008AE58093610010928300888175
:1000F000807631F0CE01C0D48F3F09F462C068C071
:100100008A81109280009981911106C0109281001D
:1001100020E830E082E050C0953019F480938900E7
:100120003DC09630A9F59B81913019F488E390E0A9
:1001300004C0923041F486E290E09093870080936F
:10014000860082E121C09330F1F4811108C084E778
:1001500090E0909387008093860084E015C0813002
:1001600041F488E590E090938700809386008CE1CD
:100170000BC0823041F48AE490E090938700809332
:1001800086008EE001C080E090E49093830020C060
:10019000983079F0993031F480938B0020E830E08A
:1001A00080E00AC081E09A3009F080E020E830E089
:1001B00003C02BE830E081E0309387002093860075
:1001C00007C0988197FD8E8190E89093830007C0C7
:1001D0009F81911104C09E81981708F4892F809304
:1001E00060000FC08091830087FF0BC0CE0110D646
:1001F0008F3F21F48EE18093610003C08111109242
:100200006000109288008091610084FF55C0809149
:1002100060008F3F09F450C0C82F893008F0C8E053
:100220008C1B809360009091770088E889278093E9
:100230007700CC2309F44BC02091830027FF08C02E
:100240006C2F88E790E078D5C82F893078F523C0E7
:10025000809186009091870026FF0AC0A8E7B0E051
:10026000FC012C2F34913D9331962150D9F708C0D1
:10027000DC01E8E7F0E02C2F3D9131932150E1F7CC
:100280002FEF2C0F30E02F5F3F4F820F931F909383
:100290008700809386006C2F88E790E03DD0CC5F8C
:1002A000CC3041F08FEF8093600004C08FEF8093DB
:1002B0006000CEE1C093610084E196B3937069F46D
:1002C0008150D9F7109289001092820006C060E038
:1002D00088E790E021D0C4E0E5CFDF91CF91089589
:1002E00085B7836085BF8BB780648BBF0895A82FC7
:1002F000B92F80E090E041E050EA609530E009C01D
:100300002D9182279795879510F084279527305E49
:10031000C8F36F5FA8F30895EADF8D939D93089566
:10032000CF93CFB7CF93C395B09BE9F7B09B09C0EC
:10033000B09B07C0B09B05C0B09B03C0B09B01C081
:10034000A1C0DF93C0918500DD27C457DF4FB09B6C
:1003500002C0DF91EBCF2F930F931F9306B32FEFC4
:1003600000FB20F94F933F9316B34FEF012700FB9B
:1003700021F93BE031C04E7F012F16B3216028C028
:10038000102F4D7F2260000006B329C04B7F2460F0
:10039000012F000016B32BC016B3477F28602AC078
:1003A0004F7E06B320612CC04F7D16B320622FC054
:1003B0004F7B06B3206432C0422706B349934FEF08
:1003C0000000102710FB20F916B31370C9F1297F24
:1003D00091F2012700FB21F906B3237F89F2315006
:1003E00058F1102710FB22F916B3277E79F2012766
:1003F00000FB23F92F7C81F206B3102710FB24F9B0
:100400002F7971F200C016B3012700FB25F92F7375
:1004100059F200C006B3102710FB26F9223040F233
:1004200000C016B3012700FB27F9243028F64F77C8
:10043000206816B30000F9CF10E41ABF002717C0D8
:100440003B503195C31BD04010E41ABF0881033CD8
:10045000E9F00B34D9F0209182001981110F1213A9
:10046000EDCF093641F10D3211F0013E39F700931D
:100470008A003F914F911F910F912F91DF91CAB741
:10048000C6FD51CFCF91CFBFCF91189520918A0053
:10049000222379F310918800112311F5343012F1E1
:1004A0003093880020938400109185003BE0311B3D
:1004B0003093850017C00091880001308CF40AE564
:1004C0003091610034FD10C000936100C7E7D0E0B7
:1004D0000FC02795A8F45150A9F4220F0000F9CFBE
:1004E0004AE503C042ED01C0432FC4E1D0E032E051
:1004F00017B31360C09A17BB08B320E413E05F93EF
:10050000012756E008BB279520F4515021F4220F13
:10051000F9CF012756E000003B5A08BBD0F22795DF
:1005200028F4515029F4220F0000F9CF012756E09A
:10053000279508BB20F4515021F4220FF9CF012751
:1005400056E02991332308BB21F60C7F10918900D6
:10055000110FC651D04008BB11F01093820010E477
:100560001ABF016017B31C7F402F4C7F5F9100C002
:1005700000C008BB17BB48BB7CCF8FB9779BFECFB1
:100580008FB10895DC01CB0121E1B695A795979530
:1005900087952A95D1F72091A6002817D9F0809346
:1005A000A600E091A300F091A4008DE40995E091EC
:1005B000A300F091A40080E00995E091A300F091E0
:1005C000A4008091A6000995E091A300F091A400F9
:1005D00080E0099408958091A5008DB98091A200D2
:1005E0008EB90895882319F0883040F101C08AE05F
:1005F0002DEB32E03093A4002093A3001092A200D0
:1006000091E09093A700893099F018F4883091F028
:1006100008C08B3021F08C3021F49093A20081E54A
:100620000AC082E58093A50081E08093A20008952E
:1006300082E501C083E58093A500089526E433E0B8
:100640003093A4002093A300843081F030F48230F2
:1006500079F0833079F480E30EC0863061F020F0C9
:10066000873041F483E007C08CE005C088E103C017
:1006700080E601C080EC8093A700089522B7909196
:10068000A70082B7821B8917E0F308951F93CF93C9
:10069000DF93182FD8E0C0E017FF02C0C39A01C053
:1006A000C398110FCC0FB499CF5FC59AE7DFC598F7
:1006B000E5DFD15089F78C2FDF91CF911F910895FD
:1006C00087B38C6287BBC298C598D8DFC29AD6DF41
:1006D000C2988091A3009091A4008D5B924009F490
:1006E0007ADF8FEF8093A600089587B3837D87BB61
:1006F00088B3837D88BB1DB80895CF93DF93C1E293
:10070000C15051F1E091A300F091A4008CEA099549
:10071000E091A300F091A40083E50995E091A30086
:10072000F091A40080E00995D82FE091A300F0910A
:10073000A40080E00995D33589F01DB89FDFC29AE7
:100740009DDFC2989BDF8091A3009091A4008D5BF8
:100750009240B1F640DFD4CF81E001C080E0DF916C
:10076000CF910895CF92DF92EF92FF926B017C01BF
:1007700009DF8C2D8170880F880F880FE091A3000E
:10078000F091A40080620995D701C60129E0B695D1
:10079000A795979587952A95D1F7E091A300F091B9
:1007A000A4000995D701C601B695A7959795879599
:1007B000E091A300F091A4000995E091A300F091CD
:1007C000A40080E0FF90EF90DF90CF900994CF924B
:1007D000DF92EF92FF92CF93DF936B017C01C42FE6
:1007E000D22FD0DE8C2D8170880F880F880FE0917A
:1007F000A300F091A40080640995D701C60129E007
:10080000B695A795979587952A95D1F7E091A3007E
:10081000F091A4000995D701C601B695A7959795C3
:100820008795E091A300F091A4000995E091A300C1
:10083000F091A4008C2F0995DD2321F0CF3721F40E
:100840008FE0A6D080E00FC0D2B7CEE1C701B601DD
:1008500089DF8F37B9F782B78D1B8D33B8F3D2B7E5
:10086000C150A1F781E0DF91CF91FF90EF90DF9031
:10087000CF900895CF92DF92EF92FF92CF93DF93C4
:100880006B017C01C42F7EDEE091A300F091A400F7
:100890008CE40995D701C60129E0B695A7959795EF
:1008A00087952A95D1F7E091A300F091A4000995CE
:1008B000D701C601B695A79597958795E091A300B6
:1008C000F091A4000995E091A300F091A40080E0CC
:1008D0000995CF3F19F48FE05BD010C0D2B7CEE1BD
:1008E000C701B6013FDF8F3F49F482B78D1B8D33BF
:1008F000B8F3D2B7C150A1F781E001C080E0DF9129
:10090000CF91FF90EF90DF90CF900895CF93DF933A
:10091000EC01E091A300F091A40080EA0995E09138
:10092000A300F091A4008D2F0995E091A300F09110
:10093000A4008C2F0995E091A300F091A40080E021
:10094000DF91CF9109941F93CF93DF93D82F192F65
:10095000C62FE091A300F091A40080EC0995E091EE
:10096000A300F091A400812F0995E091A300F091DC
:10097000A4008D2F0995E091A300F091A4008C2F85
:1009800009958EE105D080E0DF91CF911F91089508
:1009900090E0981739F032B722B7231B2C33E0F3DD
:1009A0009F5FF7CF0895BD9ABB98C39A50E217D0C6
:1009B0005A95E9F70895AC0188E605D0842F03D055
:1009C00089E601D0852F0FD028E030E0382780FB62
:1009D000869506D02A95D1F730FB02D000D06894D6
:1009E000BB98C39A16F0C398BB9AE091A800F09107
:1009F000A9003197F0F7C59AE6B3E3FBE091A800B0
:100A0000F091A9003197F0F7C598089520ECE7DF41
:100A100046F42A95E1F780E02AE1E5DF2A95E9F737
:100A2000DECF28E030E0DBDF869587F938272A958E
:100A3000D1F7D5DF27F9322772F3D1DFD0CFDB0131
:100A4000742FB9DF84E2BFDFE1DF8D937A95D1F7B0
:100A50000895DB01742FAFDF83EFB5DF8DE1B3DFE6
:100A600084E6B1DF8D91AFDF82E7ADDFCFDF807845
:100A7000D9F77A9589F70895CF93DF93EC018981AF
:100A8000813061F49A9902C085E002C080916D00C6
:100A9000A9DD10926C00A99813DE44C1823011F4D4
:100AA00024DEF2C0833009F5E091A300F091A400A8
:100AB0008A81099580936F00E091A300F091A400D2
:100AC0008B81099580937000E091A300F091A400C0
:100AD0008C81099580937100E091A300F091A400AE
:100AE0008D810995809372001BC18430D1F480916F
:100AF0006C0081110EC08A819B81092E000CAA0B0B
:100B0000BB0B8093680090936900A0936A00B09338
:100B10006B008E819F81909367008093660082E0D6
:100B2000F0C08730D1F480916C0081110EC08A81B1
:100B30009B81092E000CAA0BBB0B8093680090933D
:100B40006900A0936A00B0936B008E819F8190939F
:100B500067008093660083E0D4C0853011F4CDDD5A
:100B600098C0863079F580916C0081110EC08A8121
:100B70009B81092E000CAA0BBB0B809368009093FD
:100B80006900A0936A00B0936B003C812D81822F95
:100B90008F7080936300822F807F40E1849FC0012B
:100BA0001124830F911D909365008093640020FDB4
:100BB000809362008E819F8190936700809366008E
:100BC00081E09FC0883001F580916C0081110EC0DA
:100BD0008A819B81092E000CAA0BBB0B80936800B5
:100BE00090936900A0936A00B0936B001092650027
:100BF00010926400109263008E819F819093670031
:100C00008093660084E07DC0893081F481E0809328
:100C10006C008A819B81AC81BD8180936800909338
:100C20006900A0936A00B0936B007CC08A3031F4F5
:100C30008A8180936D0010926F002DC08B3081F4FB
:100C40008A819B819093A9008093A800C29ABA9A46
:100C500083E09EDEC298A99880E19ADEA4DE62C09D
:100C60008C30A1F480ECAFDE80E0ADDE8AE090DE77
:100C7000C29A85E08DDEC29885E08ADE87B3837DE7
:100C800087BB88B3837D88BBA99A4CC08D3029F47B
:100C9000BDDE80936F0081E046C08E3019F48A81FA
:100CA00092DE40C08F30B1F48A819B81092E000C06
:100CB000AA0BBB0B8093680090936900A0936A0015
:100CC000B0936B008E819F81909367008093660044
:100CD00085E017C08031C9F48A819B81092E000C00
:100CE000AA0BBB0B8093680090936900A0936A00E5
:100CF000B0936B008E819F81909367008093660014
:100D000086E080936E008FEF0EC08F3759F481E03C
:100D100080936F0010927000109271001092720018
:100D200084E001C080E02FE630E03093870020931C
:100D30008600DF91CF910895EF92FF920F931F935A
:100D4000CF93C62F20916E003EEF320F323028F441
:100D50008C017C01E60EF11C43C0253009F04FC028
:100D6000462FBC01809168009091690068DE8091F7
:100D7000680090916900A0916A00B0916B008C0F9F
:100D8000911DA11DB11D8093680090936900A093EF
:100D90006A00B0936B0035C080916E00823021F5FF
:100DA000609168007091690080916A0090916B0079
:100DB000D9DCF80180838091680090916900A0914E
:100DC0006A00B0916B000196A11DB11D809368006F
:100DD00090936900A0936A00B0936B000F5F1F4F60
:100DE0000E151F05C9F606C0809168009091690034
:100DF0008DDDDFCFC83028F410926E0002C08FEF77
:100E000001C08C2FCF911F910F91FF90EF9008950B
:100E1000EF92FF921F93CF93DF93162F20916E00D6
:100E2000213031F4EC017C01E10EF11C10E066C0D0
:100E30002430C1F3263009F0A3C0462FBC018091B5
:100E400068009091690005DE8091680090916900CA
:100E5000A0916A00B0916B00810F911DA11DB11D81
:100E60008093680090936900A0936A00B0936B0030
:100E70008091660090916700811B910990936700B3
:100E800080936600892B09F07DC010926E0081E08E
:100E90007AC080916E00813009F04DC020916400CD
:100EA00030916500609168007091690080916A00DE
:100EB00090916B00232B31F521E0488188DC8091F3
:100EC0006600909167000197909367008093660099
:100ED000892BC1F18091680090916900A0916A000E
:100EE000B0916B000196A11DB11D80936800909395
:100EF0006900A0936A00B0936B002196CE15DF05C0
:100F000041F63CC020E0488162DC80916200815063
:100F1000809362008111D3CF609168007091690065
:100F200080916A0090916B004881A4DC80916400FC
:100F300080936200C4CF68818091680090916900BD
:100F400002DDBDCF10926E008091630081FF14C05E
:100F50008091620090E020916400309165008217DA
:100F6000930751F0609168007091690080916A0068
:100F700090916B0048817EDC11E0ACCF812F03C0E3
:100F80008FEF01C080E0DF91CF911F91FF90EF9034
:100F900008958BEF81BB8FEF87BB8FE295E70197B9
:100FA000F1F700C0000017BA83E084BB9EEF95BB49
:0E0FB00083BF96D978947CD8FECFF894FFCFFB
:020FBE00FF5AD8
:00000001FF
